01MAS202412152025121350
5024001659  4AGT4150000087000100R415000MA1000001100001011000100100011000001100000110000011100000000000000000000000000000000000000000000000000000000000000000000000000000000000000000000000000000000000000000000000000000000000000000000000000000000000000000000000000000000000000000000000000000000000000000000000000000000000000000000000000000000000000000000000000000000000000000000000000000000000000000000000000000000000000000000000000000000000000000174003TR174698ES2187FEC06                   415001   
75    26V6UM  1174003TR 15174698ES1517919                     
52174003TR  1      41500000            00010002   87D      75000  1      500         FRE   0   
52174003AR  241500041500000      000200      2087D   75000       1 500         FREFREV2    0   
52174003AT  341500041500000      000500      2087D   75000       1 500         V2    V2    0   
52174003PK  441500041500000      000900      2087D   75000       1 500         V2    V2    0   
5217411000  541500041500000      001300      2087D   75000       1 500         V2    V2    0   
52174102BF  641500041500000      001700      2087D   75000       1 500         V2    VU    0   
52174102EP  741500041500000      002200      2087D   75000       1 500         VU    VU    0   
5217460700  841500041500000      002800      2087D   75000       1 500         VU    VU    0   
5217462300  941500041500000      004300      2087D   75000       1 500         VU    VU    0   
52174649BV 1041500041500000      005400      2087D   75000       1 500         VU    VU    0   
5217465600 1141500041500000      010100      2087D   75000       1 500         VU    VU    0   
52174664BV 1241500041500000011100      0112002287D87D75000 75000 11500   500   VU    VU    0   
52174664PN 1341500041500000011200      0113002287D87D75000 75000 11500   500   VU    VU    0   
52174698EP 1441500041500000      012300      2087D   75000       1 500         VU    VU    0   
52174698ES 15415000      00012700            2087D   75000       1 500         VU          0   
5024001659  5R4S4150000087000100R415000MA1000000000000000000000000000000000000000000000000000001110000110100011010001101000110100011010001101000110100000000000000000000000000000000000000000000000000000000000000000000000000000000000000000000000000000000000000000000000000000000000000000000000000000000000000000000000000000000000000000110100011010001101000110100011010001101000000100011010001101000110100011010000000000000000000000000000000000000174003TR174698ES2187FEC06                   415001   
75    26V6UM  1174003TR 15174698ES1517919                     
52174003TR  1      41500000            00010002   87D      75000  1      500         FRE   0   
52174003AR  241500041500000      000200      2087D   75000       1 500         FREFREV2    0   
52174003AT  341500041500000      000500      2087D   75000       1 500         V2    V2    0   
52174003PK  441500041500000      000900      2087D   75000       1 500         V2    V2    0   
5217411000  541500041500000      001300      2087D   75000       1 500         V2    V2    0   
52174102BF  641500041500000      001700      2087D   75000       1 500         V2    VU    0   
52174102EP  741500041500000      002200      2087D   75000       1 500         VU    VU    0   
5217460700  841500041500000      002800      2087D   75000       1 500         VU    VU    0   
5217462300  941500041500000      004300      2087D   75000       1 500         VU    VU    0   
52174649BV 1041500041500000      005400      2087D   75000       1 500         VU    VU    0   
5217465600 1141500041500000      010100      2087D   75000       1 500         VU    VU    0   
52174664BV 1241500041500000011100      0112002287D87D75000 75000 11500   500   VU    VU    0   
52174664PN 1341500041500000011200      0113002287D87D75000 75000 11500   500   VU    VU    0   
52174698EP 1441500041500000      012300      2087D   75000       1 500         VU    VU    0   
52174698ES 15415000      00012700            2087D   75000       1 500         VU          0   
5024001659  6R4S4150000087000100R415000MA1000000000000000000000000000000000000000000000000000000000000000000000000000000000000000000000000000000000000011010001101000110100001010001100000110000000000000000000110000011010000101000110100011010001101000110100001010001101000110100011010001100000110100011010001101000110100011010001101000000000000000000000000000000000000000000000000000000000000000000000000000000000000000000000000000000000000000000174003TR174698ES2187FEC06                   415001   
75    26V6UM  1174003TR 15174698ES1517919                     
52174003TR  1      41500000            00010002   87D      75000  1      500         FRE   0   
52174003AR  241500041500000      000200      2087D   75000       1 500         FREFREV2    0   
52174003AT  341500041500000      000500      2087D   75000       1 500         V2    V2    0   
52174003PK  441500041500000      000900      2087D   75000       1 500         V2    V2    0   
5217411000  541500041500000      001300      2087D   75000       1 500         V2    V2    0   
52174102BF  641500041500000      001700      2087D   75000       1 500         V2    VU    0   
52174102EP  741500041500000      002200      2087D   75000       1 500         VU    VU    0   
5217460700  841500041500000      003100      2087D   75000       1 500         VU    VU    0   
5217462300  941500041500000      005000      2087D   75000       1 500         VU    VU    0   
52174649BV 1041500041500000      010600      2087D   75000       1 500         VU    VU    0   
5217465600 1141500041500000      011400      2087D   75000       1 500         VU    VU    0   
52174664BV 1241500041500000012700      0128002287D87D75000 75000 11500   500   VU    VU    0   
52174664PN 1341500041500000012800      0129002287D87D75000 75000 11500   500   VU    VU    0   
52174698EP 1441500041500000      014100      2087D   75000       1 500         VU    VU    0   
52174698ES 15415000      00014700            2087D   75000       1 500         VU          0   
5024001659  7R4S4150000087000100R415000MA1000000000000000000000000000000000000000000000000000000000000000000000000000000000000000000000000000000000000000000000000000000000000000000000000000000011010001101000000000000000000000000000000000000000000000000000000000000000000000000000000000000000000000000000000000000000000000000000000000000000000000000000000000000000000000000000000000000000000000000000000000000000000000000000000000000000000000000174003TR174698ES2187FEC06                   415001   
75    26VWGY  1174003TR 15174698ES1517919                     
52174003TR  1      41500000            00010002   87D      75000  1      500         FRE   0   
52174003AR  241500041500000      000200      2087D   75000       1 500         FREFREV2    0   
52174003AT  341500041500000      000500      2087D   75000       1 500         V2    V2    0   
52174003PK  441500041500000      000900      2087D   75000       1 500         V2    V2    0   
5217411000  541500041500000      001300      2087D   75000       1 500         V2    V2    0   
52174102BF  641500041500000      001700      2087D   75000       1 500         V2    VU    0   
52174102EP  741500041500000      002200      2087D   75000       1 500         VU    VU    0   
5217460700  841500041500000      003100      2087D   75000       1 500         VU    VU    0   
5217462300  941500041500000      005000      2087D   75000       1 500         VU    VU    0   
52174649BV 1041500041500000      010600      2087D   75000       1 500         VU    VU    0   
5217465600 1141500041500000      011400      2087D   75000       1 500         VU    VU    0   
52174664BV 1241500041500000012700      0128002287D87D75000 75000 11500   500   VU    VU    0   
52174664PN 1341500041500000012800      0129002287D87D75000 75000 11500   500   VU    VU    0   
52174698EP 1441500041500000      014200      2087D   75000       1 500         VU    VU    0   
52174698ES 15415000      00014700            2087D   75000       1 500         VU          0   
5024001659  8R4S4150000087045000R415000MA1000000000000000000000000000000000000000000000000000000000000000000000000000000000000000000000000000000000000000000000000000000000000000000000000000000000000000000000000000000000000000000000000000000000000000000000010000000000000000000000000000000000000000000000000000000000000000000000000000000000000000000000000000000000000000000000000000000000000000000000000000000000000000000000000000000000000000000174003TR174698ES2187FEC06                   415001   
75    26XCHW  1174003TR 14174698ES1517919                     
52174003TR  1      41500000            04500002   87D      75000  1      500      FRC2B    0   
52174003AT  241500041500000      045400      2087D   75000       1 500         2B 2B V2    0   
52174003PK  341500041500000      045900      2087D   75000       1 500         V2    V2    0   
5217411000  441500041500000      050300      2087D   75000       1 500         V2    V2    0   
52174102BF  541500041500000      050700      2087D   75000       1 500         V2    VU    0   
52174102EP  641500041500000      051200      2087D   75000       1 500         VU    VU    0   
5217460700  741500041500000      052100      2087D   75000       1 500         VU    VU    0   
5217462300  841500041500000      054000      2087D   75000       1 500         VU    VU    0   
52174649BV  941500041500000      055600      2087D   75000       1 500         VU    VU    0   
5217465600 1041500041500000      060400      2087D   75000       1 500         VU    VU    0   
52174664BV 1141500041500000061700      0618002287D87D75000 75000 11500   500   VU    VU    0   
52174664PN 1241500041500000061800      0619002287D87D75000 75000 11500   500   VU    VU    0   
52174698EP 1341500041500000      063200      2087D   75000       1 500         VU    VU    0   
52174698ES 14415000      00063700            2087D   75000       1 500         VU          0   
5024001659  9R4S4150000087045000R415000MA1000000000000000000000000000000000000000000000000000000000000000000000000000000000000000000000000000000000000000000000000000000000000000000000000000000000000000000000000000000000000000000000000000000000000000000000000000000000000000000000000000000000000000000000000000000000000000000000000000000000000000000000000000000000000000000000010000000000000000000000000000000000000000000000000000000000000000000174003TR174698ES2187FEC06                   415001   
75    26Z4F3  1174003TR 14174698ES1517919                     
52174003TR  1      41500000            04500002   87D      75000  1      500      FRC2B    0   
52174003AT  241500041500000      045400      2087D   75000       1 500         2B 2B V2    0   
52174003PK  341500041500000      045900      2087D   75000       1 500         V2    V2    0   
5217411000  441500041500000      050300      2087D   75000       1 500         V2    V2    0   
52174102BF  541500041500000      050700      2087D   75000       1 500         V2    VU    0   
52174102EP  641500041500000      051100      2087D   75000       1 500         VU    VU    0   
5217460700  741500041500000      051800      2087D   75000       1 500         VU    VU    0   
5217462300  841500041500000      053200      2087D   75000       1 500         VU    VU    0   
52174649BV  941500041500000      054400      2087D   75000       1 500         VU    VU    0   
5217465600 1041500041500000      055100      2087D   75000       1 500         VU    VU    0   
52174664BV 1141500041500000060100      0602002287D87D75000 75000 11500   500   VU    VU    0   
52174664PN 1241500041500000060200      0603002287D87D75000 75000 11500   500   VU    VU    0   
52174698EP 1341500041500000      061300      2087D   75000       1 500         VU    VU    0   
52174698ES 14415000      00061700            2087D   75000       1 500         VU          0   
5024001659 10AGT4150000087041600R415000MA1000000000000000000000000000000000000000000000000000000000000000000000000000000000000000000000000000000000000000000000000000000000010000000000000000000000000000000000000000000000000000000000000000000000000000000000000000000000000000000000000000000000000000000000000000000000000000000000000000000000000000000000000000000000000000000000000000000000000000000000000000000000000000000000000000000000000000000174003TR174698ES2187FEC06                   415001   
75    26Z4F3  1174003TR 15174698ES1517919                     
52174003TR  1      41500000            04160002   87D      75000  1      500         FRE   0   
52174003AR  241500041500000      041700      2087D   75000       1 500         FREFREV2    0   
52174003AT  341500041500000      042000      2087D   75000       1 500         V2    V2    0   
52174003PK  441500041500000      042400      2087D   75000       1 500         V2    V2    0   
5217411000  541500041500000      042900      2087D   75000       1 500         V2    V2    0   
52174102BF  641500041500000      043300      2087D   75000       1 500         V2    VU    0   
52174102EP  741500041500000      043800      2087D   75000       1 500         VU    VU    0   
5217460700  841500041500000      044700      2087D   75000       1 500         VU    VU    0   
5217462300  941500041500000      050500      2087D   75000       1 500         VU    VU    0   
52174649BV 1041500041500000      052100      2087D   75000       1 500         VU    VU    0   
5217465600 1141500041500000      052900      2087D   75000       1 500         VU    VU    0   
52174664BV 1241500041500000054200      0543002287D87D75000 75000 11500   500   VU    VU    0   
52174664PN 1341500041500000054300      0544002287D87D75000 75000 11500   500   VU    VU    0   
52174698EP 1441500041500000      055600      2087D   75000       1 500         VU    VU    0   
52174698ES 15415000      00060200            2087D   75000       1 500         VU          0   
5024001659 11R4S4150000087041600R415000MA1000000000000000000000000000000000000000000000000000000000000000000000000000000000000000000000000000000000000000000000000000000000000000000000000000000000000000000000000000000000001000000000000000000000000000000000000000000000000000000000000000000000000000000000000000000000000000000000000000000000000000000000000000000000000000000000000000000000000000000000000000000000000000000000000000000000000000000174003TR174698ES2187FEC06                   415001   
75    26Z4F3  1174003TR 15174698ES1517919                     
52174003TR  1      41500000            04160002   87D      75000  1      500         FRE   0   
52174003AR  241500041500000      041700      2087D   75000       1 500         FREFREV2    0   
52174003AT  341500041500000      042000      2087D   75000       1 500         V2    V2    0   
52174003PK  441500041500000      042400      2087D   75000       1 500         V2    V2    0   
5217411000  541500041500000      042900      2087D   75000       1 500         V2    V2    0   
52174102BF  641500041500000      043300      2087D   75000       1 500         V2    VU    0   
52174102EP  741500041500000      043800      2087D   75000       1 500         VU    VU    0   
5217460700  841500041500000      044700      2087D   75000       1 500         VU    VU    0   
5217462300  941500041500000      050500      2087D   75000       1 500         VU    VU    0   
52174649BV 1041500041500000      052100      2087D   75000       1 500         VU    VU    0   
5217465600 1141500041500000      052900      2087D   75000       1 500         VU    VU    0   
52174664BV 1241500041500000054200      0543002287D87D75000 75000 11500   500   VU    VU    0   
52174664PN 1341500041500000054300      0544002287D87D75000 75000 11500   500   VU    VU    0   
52174698EP 1441500041500000      055600      2087D   75000       1 500         VU    VU    0   
52174698ES 15415000      00060200            2087D   75000       1 500         VU          0   
5024001659 12AGT4150000087043000R415000MA1000000000000000000000000000000000000000000000000000000000000000000000000000000000000000000000000000000000000000000000000000000000000000010000001000000000000000000001000000000000000000000000000000000000000000000000000000000000000000000000000000000000000000000000000000000000000000000000000000000000000000000000000000000000000000000000000000000000000000000000000000000000000000000000000000000000000000000174003TR174698ES2187FEC06                   415001   
75    26ZN8N  1174003TR 14174698ES1517919                     
52174003TR  1      41500000            04300002   87D      75000  1      500      FRC2B    0   
52174003AT  241500041500000      043400      2087D   75000       1 500         2B 2B V2    0   
52174003PK  341500041500000      043900      2087D   75000       1 500         V2    V2    0   
5217411000  441500041500000      044300      2087D   75000       1 500         V2    V2    0   
52174102BF  541500041500000      044700      2087D   75000       1 500         V2    VU    0   
52174102EP  641500041500000      045200      2087D   75000       1 500         VU    VU    0   
5217460700  741500041500000      050100      2087D   75000       1 500         VU    VU    0   
5217462300  841500041500000      052000      2087D   75000       1 500         VU    VU    0   
52174649BV  941500041500000      053600      2087D   75000       1 500         VU    VU    0   
5217465600 1041500041500000      054400      2087D   75000       1 500         VU    VU    0   
52174664BV 1141500041500000055700      0558002287D87D75000 75000 11500   500   VU    VU    0   
52174664PN 1241500041500000055800      0559002287D87D75000 75000 11500   500   VU    VU    0   
52174698EP 1341500041500000      061200      2087D   75000       1 500         VU    VU    0   
52174698ES 14415000      00061700            2087D   75000       1 500         VU          0   
5024001660  5AGT4150010087030000R415001MA1000001100001011000100100011000001100000110000011100000000000000000000000000000000000000000000000000000000000000000000000000000000000000000000000000000000000000000000000000000000000000000000000000000000000000000000000000000000000000000000000000000000000000000000000000000000000000000000000000000000000000000000000000000000000000000000000000000000000000000000000000000000000000000000000000000000000000000174698ES174003TR2187FEC06          415000            
75    26V6UN  1174698ES 14174003TR1517918                     
52174698ES  1      41500100            03000002   87D      75000  1      1000        VU    0   
52174698EP  241500141500100      030400      2087D   75000       1 1000        VU    VU    0   
52174664PN  341500141500100031400      0315002287D87D75000 75000 111000  1000  VU    VU    0   
52174664BV  441500141500100031600      0317002287D87D75000 75000 111000  1000  VU    VU    0   
5217465600  541500141500100      032700      2087D   75000       1 1000        VU    VU    0   
52174649BV  641500141500100      033400      2087D   75000       1 1000        VU    VU    0   
5217462300  741500141500100      034600      2087D   75000       1 1000        VU    VU    0   
5217460700  841500141500100      040000      2087D   75000       1 1000        VU    VU    0   
52174102EP  941500141500100      040700      2087D   75000       1 1000        VU    VU    0   
52174102BF 1041500141500100      041100      2087D   75000       1 1000        VU VU V1    0   
5217411000 1141500141500100      041600      2087D   75000       1 1000        V1    V1    0   
52174003AT 1241500141500100      042500      2087D   75000       1 1000        V1    V1    0   
52174003AR 1341500141500100      042700      2087D   75000       1 1000        V1    FRE   0   
52174003TR 14415001      00043000            2087D   75000       1 1000        FRE         0   
5024001660  6R4S4150010087030000R415001MA1000000000000000000000000000000000000000000000000000001110000110000011010001101000110100011010001101000110100000000000000000000000000000000000000000000000000000000000000000000000000000000000000000000000000000000000000000000000000000000000000000000000000000000000000000000000000000000000000000110100011010001101000110100011010001101000000100011010001101000110100011010000000000000000000000000000000000000174698ES174003TR2187FEC06          415000            
75    26V6UN  1174698ES 14174003TR1517918                     
52174698ES  1      41500100            03000002   87D      75000  1      1000        VU    0   
52174698EP  241500141500100      030400      2087D   75000       1 1000        VU    VU    0   
52174664PN  341500141500100031400      0315002287D87D75000 75000 111000  1000  VU    VU    0   
52174664BV  441500141500100031600      0317002287D87D75000 75000 111000  1000  VU    VU    0   
5217465600  541500141500100      032700      2087D   75000       1 1000        VU    VU    0   
52174649BV  641500141500100      033400      2087D   75000       1 1000        VU    VU    0   
5217462300  741500141500100      034600      2087D   75000       1 1000        VU    VU    0   
5217460700  841500141500100      040000      2087D   75000       1 1000        VU    VU    0   
52174102EP  941500141500100      040700      2087D   75000       1 1000        VU    VU    0   
52174102BF 1041500141500100      041100      2087D   75000       1 1000        VU VU V1    0   
5217411000 1141500141500100      041600      2087D   75000       1 1000        V1    V1    0   
52174003AT 1241500141500100      042500      2087D   75000       1 1000        V1    V1    0   
52174003AR 1341500141500100      042700      2087D   75000       1 1000        V1    FRE   0   
52174003TR 14415001      00043000            2087D   75000       1 1000        FRE         0   
5024001660  7R4S4150010087030000R415001MA1000000000000000000000000000000000000000000000000000000000000000000000000000000000000000000000000000000000000011010001101000110100001010001100000110000000000000000000110000011010000101000110100011010001101000110100001010001101000110100011010001100000110100011010001101000110100011010001101000000000000000000000000000000000000000000000000000000000000000000000000000000000000000000000000000000000000000000174698ES174003TR2187FEC06          415000            
75    26V6UN  1174698ES 14174003TR1517918                     
52174698ES  1      41500100            03000002   87D      75000  1      1000        VU    0   
52174698EP  241500141500100      030600      2087D   75000       1 1000        VU    VU    0   
52174664PN  341500141500100031800      0319002287D87D75000 75000 111000  1000  VU    VU    0   
52174664BV  441500141500100032000      0321002287D87D75000 75000 111000  1000  VU    VU    0   
5217465600  541500141500100      033400      2087D   75000       1 1000        VU    VU    0   
52174649BV  641500141500100      034300      2087D   75000       1 1000        VU    VU    0   
5217462300  741500141500100      035800      2087D   75000       1 1000        VU    VU    0   
5217460700  841500141500100      041700      2087D   75000       1 1000        VU    VU    0   
52174102EP  941500141500100      042600      2087D   75000       1 1000        VU    VU    0   
52174102BF 1041500141500100      043100      2087D   75000       1 1000        VU VU V1    0   
5217411000 1141500141500100      043600      2087D   75000       1 1000        V1    V1    0   
52174003AT 1241500141500100      044500      2087D   75000       1 1000        V1    V1    0   
52174003AR 1341500141500100      044700      2087D   75000       1 1000        V1    FRE   0   
52174003TR 14415001      00045000            2087D   75000       1 1000        FRE         0   
5024001660  8R4S4150010087030000R415001MA1000000000000000000000000000000000000000000000000000000000000000100000000000000000000000000000000000000000000000000000000000000000000000000000000000000000000000000000000000000000000000000000000000000000000000000000000000000000000000000000000000000000000000000000000000000000000000000000000000000000000000000000000000000000000000000000000000000000000000000000000000000000000000000000000000000000000000000174698ES174003TR2187FEC06          415000            
75    26V6UN  1174698ES 14174003TR1517918                     
52174698ES  1      41500100            03000002   87D      75000  1      1000        VU    0   
52174698EP  241500141500100      030400      2087D   75000       1 1000        VU    VU    0   
52174664PN  341500141500100031400      0315002287D87D75000 75000 111000  1000  VU    VU    0   
52174664BV  441500141500100031600      0317002287D87D75000 75000 111000  1000  VU    VU    0   
5217465600  541500141500100      032700      2087D   75000       1 1000        VU    VU    0   
52174649BV  641500141500100      033400      2087D   75000       1 1000        VU    VU    0   
5217462300  741500141500100      034500      2087D   75000       1 1000        VU    VU    0   
5217460700  841500141500100      035900      2087D   75000       1 1000        VU    VU    0   
52174102EP  941500141500100      040600      2087D   75000       1 1000        VU    VU    0   
52174102BF 1041500141500100      041000      2087D   75000       1 1000        VU VU V1    0   
5217411000 1141500141500100      041600      2087D   75000       1 1000        V1    V1    0   
52174003AT 1241500141500100      042500      2087D   75000       1 1000        V1    V1    0   
52174003AR 1341500141500100      042700      2087D   75000       1 1000        V1    FRE   0   
52174003TR 14415001      00043000            2087D   75000       1 1000        FRE         0   
5024001660  9R4S4150010087030000R415001MA1000000000000000000000000000000000000000000000000000000000000000000000000000000000000000000000000000000000000000000000000000000000000000000000000000000011010001101000000000000000000000000000000000000000000000000000000000000000000000000000000000000000000000000000000000000000000000000000000000000000000000000000000000000000000000000000000000000000000000000000000000000000000000000000000000000000000000000174698ES174003TR2187FEC06          415000            
75    26VWGP  1174698ES 14174003TR1517918                     
52174698ES  1      41500100            03000002   87D      75000  1      1000        VU    0   
52174698EP  241500141500100      030600      2087D   75000       1 1000        VU    VU    0   
52174664PN  341500141500100031800      0319002287D87D75000 75000 111000  1000  VU    VU    0   
52174664BV  441500141500100032000      0321002287D87D75000 75000 111000  1000  VU    VU    0   
5217465600  541500141500100      033400      2087D   75000       1 1000        VU    VU    0   
52174649BV  641500141500100      034300      2087D   75000       1 1000        VU    VU    0   
5217462300  741500141500100      035800      2087D   75000       1 1000        VU    VU    0   
5217460700  841500141500100      041700      2087D   75000       1 1000        VU    VU    0   
52174102EP  941500141500100      042600      2087D   75000       1 1000        VU    VU    0   
52174102BF 1041500141500100      043100      2087D   75000       1 1000        VU VU V1    0   
5217411000 1141500141500100      043600      2087D   75000       1 1000        V1    V1    0   
52174003AT 1241500141500100      044500      2087D   75000       1 1000        V1    V1    0   
52174003AR 1341500141500100      044700      2087D   75000       1 1000        V1    FRE   0   
52174003TR 14415001      00045000            2087D   75000       1 1000        FRE         0   
5024001660 10R4S4150010087075500R415001MA1000000000000000000000000000000000000000000000000000000000000000000000000000000000000000000000000000000000000000000000000000000000000000000000000000000000000000000000000000000000000000000000000000000000000000000000010000000000000000000000000000000000000000000000000000000000000000000000000000000000000000000000000000000000000000000000000000000000000000000000000000000000000000000000000000000000000000000174698ES174003TR2187FEC06          415000            
75    26XCHQ  1174698ES 13174003TR1517918                     
52174698ES  1      41500100            07550002   87D      75000  1      1000        VU    0   
52174698EP  241500141500100      080100      2087D   75000       1 1000        VU    VU    0   
52174664PN  341500141500100081300      0814002287D87D75000 75000 111000  1000  VU    VU    0   
52174664BV  441500141500100081500      0816002287D87D75000 75000 111000  1000  VU    VU    0   
5217465600  541500141500100      082900      2087D   75000       1 1000        VU    VU    0   
52174649BV  641500141500100      083800      2087D   75000       1 1000        VU    VU    0   
5217462300  741500141500100      085300      2087D   75000       1 1000        VU    VU    0   
5217460700  841500141500100      091200      2087D   75000       1 1000        VU    VU    0   
52174102EP  941500141500100      092100      2087D   75000       1 1000        VU    VU    0   
52174102BF 1041500141500100      092600      2087D   75000       1 1000        VU VU V1    0   
5217411000 1141500141500100      093100      2087D   75000       1 1000        V1 V1 1B    0   
52174003AT 1241500141500100      094000      2087D   75000       1 1000        1B 1B FRC   0   
52174003TR 13415001      00094600            2087D   75000       1 1000        FRC         0   
5024001660 11R4S4150010087075500R415001MA1000000000000000000000000000000000000000000000000000000000000000000000000000000000000000000000000000000000000000000000000000000000000000000000000000000000000000000000000000000000000000000000000000000000000000000000000000000000000000000000000000000000000000000000000000000000000000000000000000000000000000000000000000000000000000000000010000000000000000000000000000000000000000000000000000000000000000000174698ES174003TR2187FEC06          415000            
75    26Z4F6  1174698ES 13174003TR1517918                     
52174698ES  1      41500100            07550002   87D      75000  1      1000        VU    0   
52174698EP  241500141500100      075900      2087D   75000       1 1000        VU    VU    0   
52174664PN  341500141500100080900      0810002287D87D75000 75000 111000  1000  VU    VU    0   
52174664BV  441500141500100081100      0812002287D87D75000 75000 111000  1000  VU    VU    0   
5217465600  541500141500100      082200      2087D   75000       1 1000        VU    VU    0   
52174649BV  641500141500100      082900      2087D   75000       1 1000        VU    VU    0   
5217462300  741500141500100      084100      2087D   75000       1 1000        VU    VU    0   
5217460700  841500141500100      085500      2087D   75000       1 1000        VU    VU    0   
52174102EP  941500141500100      090200      2087D   75000       1 1000        VU    VU    0   
52174102BF 1041500141500100      090600      2087D   75000       1 1000        VU VU V1    0   
5217411000 1141500141500100      091100      2087D   75000       1 1000        V1 V1 1B    0   
52174003AT 1241500141500100      092000      2087D   75000       1 1000        1B 1B FRC   0   
52174003TR 13415001      00092600            2087D   75000       1 1000        FRC         0   
5024001660 12R4S4150010087075500R415001MA1000000000000000000000000000000000000000000000000000000000000000000000000000000000000000000000000000000000000000000000000000000000000000000000000000000000000000000000000000000000001000000000000000000000000000000000000000000000000000000000000000000000000000000000000000000000000000000000000000000000000000000000000000000000000000000000000000000000000000000000000000000000000000000000000000000000000000000174698ES174003TR2187FEC06          415000            
75    26Z4F6  1174698ES 13174003TR1517918                     
52174698ES  1      41500100            07550002   87D      75000  1      1000        VU    0   
52174698EP  241500141500100      080100      2087D   75000       1 1000        VU    VU    0   
52174664PN  341500141500100081300      0814002287D87D75000 75000 111000  1000  VU    VU    0   
52174664BV  441500141500100081500      0816002287D87D75000 75000 111000  1000  VU    VU    0   
5217465600  541500141500100      082900      2087D   75000       1 1000        VU    VU    0   
52174649BV  641500141500100      083800      2087D   75000       1 1000        VU    VU    0   
5217462300  741500141500100      085300      2087D   75000       1 1000        VU    VU    0   
5217460700  841500141500100      091200      2087D   75000       1 1000        VU    VU    0   
52174102EP  941500141500100      092100      2087D   75000       1 1000        VU    VU    0   
52174102BF 1041500141500100      092600      2087D   75000       1 1000        VU VU V1    0   
5217411000 1141500141500100      093100      2087D   75000       1 1000        V1 V1 1B    0   
52174003AT 1241500141500100      094000      2087D   75000       1 1000        1B 1B FRC   0   
52174003TR 13415001      00094600            2087D   75000       1 1000        FRC         0   
5024001660 13AGT4150010087070500R415001MA1000000000000000000000000000000000000000000000000000000000000000000000000000000000000000000000000000000000000000000000000000000000010000000000000000000000000000000000000000000000000000000000000000000000000000000000000000000000000000000000000000000000000000000000000000000000000000000000000000000000000000000000000000000000000000000000000000000000000000000000000000000000000000000000000000000000000000000174698ES174003TR2187FEC06                            
75    26Z4F6  1174698ES 14174003TR1517918                     
52174698ES  1      41500100            07050002   87D      75000  1      1000        VU    0   
52174698EP  241500141500100      071100      2087D   75000       1 1000        VU    VU    0   
52174664PN  341500141500100072300      0724002287D87D75000 75000 111000  1000  VU    VU    0   
52174664BV  441500141500100072500      0726002287D87D75000 75000 111000  1000  VU    VU    0   
5217465600  541500141500100      073900      2087D   75000       1 1000        VU    VU    0   
52174649BV  641500141500100      074800      2087D   75000       1 1000        VU    VU    0   
5217462300  741500141500100      080300      2087D   75000       1 1000        VU    VU    0   
5217460700  841500141500100      082200      2087D   75000       1 1000        VU    VU    0   
52174102EP  941500141500100      083100      2087D   75000       1 1000        VU    VU    0   
52174102BF 1041500141500100      083600      2087D   75000       1 1000        VU VU V1    0   
5217411000 1141500141500100      084200      2087D   75000       1 1000        V1    V1    0   
52174003AT 1241500141500100      085000      2087D   75000       1 1000        V1    V1    0   
52174003AR 1341500141500100      085300      2087D   75000       1 1000        V1    FRE   0   
52174003TR 14415001      00085500            2087D   75000       1 1000        FRE         0   
5024001660 14AGT4150010087071500R415001MA1000000000000000000000000000000000000000000000000000000000000000000000000000000000000000000000000000000000000000000000000000000000000000010000000000000000000000000000000000000000000000000000000000000000000000000000000000000000000000000000000000000000000000000000000000000000000000000000000000000000000000000000000000000000000000000000000000000000000000000000000000000000000000000000000000000000000000000174698ES174003TR2187FEC06                            
75    26ZN8M  1174698ES 13174003TR1517918                     
52174698ES  1      41500100            07150002   87D      75000  1      1000        VU    0   
52174698EP  241500141500100      072100      2087D   75000       1 1000        VU    VU    0   
52174664PN  341500141500100073300      0734002287D87D75000 75000 111000  1000  VU    VU    0   
52174664BV  441500141500100073500      0736002287D87D75000 75000 111000  1000  VU    VU    0   
5217465600  541500141500100      074900      2087D   75000       1 1000        VU    VU    0   
52174649BV  641500141500100      075800      2087D   75000       1 1000        VU    VU    0   
5217462300  741500141500100      081300      2087D   75000       1 1000        VU    VU    0   
5217460700  841500141500100      083200      2087D   75000       1 1000        VU    VU    0   
52174102EP  941500141500100      084100      2087D   75000       1 1000        VU    VU    0   
52174102BF 1041500141500100      084600      2087D   75000       1 1000        VU VU V1    0   
5217411000 1141500141500100      085100      2087D   75000       1 1000        V1 V1 1B    0   
52174003AT 1241500141500100      090000      2087D   75000       1 1000        1B 1B FRC   0   
52174003TR 13415001      00090600            2087D   75000       1 1000        FRC         0   
5024001660 15AGT4150010087080000R415001MA1000000000000000000000000000000000000000000000000000000000000000000000000000000000000000000000000000000000000000000000000000000000000000000000001000000000000000000001000000000000000000000000000000000000000000000000000000000000000000000000000000000000000000000000000000000000000000000000000000000000000000000000000000000000000000000000000000000000000000000000000000000000000000000000000000000000000000000174698ES174003TR2187FEC06                            
75    26ZN8L  1174698ES 13174003TR1517918                     
52174698ES  1      41500100            08000002   87D      75000  1      1000        VU    0   
52174698EP  241500141500100      080600      2087D   75000       1 1000        VU    VU    0   
52174664PN  341500141500100081800      0819002287D87D75000 75000 111000  1000  VU    VU    0   
52174664BV  441500141500100082000      0821002287D87D75000 75000 111000  1000  VU    VU    0   
5217465600  541500141500100      083400      2087D   75000       1 1000        VU    VU    0   
52174649BV  641500141500100      084300      2087D   75000       1 1000        VU    VU    0   
5217462300  741500141500100      085800      2087D   75000       1 1000        VU    VU    0   
5217460700  841500141500100      091700      2087D   75000       1 1000        VU    VU    0   
52174102EP  941500141500100      092600      2087D   75000       1 1000        VU    VU    0   
52174102BF 1041500141500100      093100      2087D   75000       1 1000        VU VU V1    0   
5217411000 1141500141500100      093600      2087D   75000       1 1000        V1 V1 1B    0   
52174003AT 1241500141500100      094500      2087D   75000       1 1000        1B 1B FRC   0   
52174003TR 13415001      00095100            2087D   75000       1 1000        FRC         0   
5024001661  2AGT4150900087140000R415090MA1000111010011001001000100111010011101001110100111000000000000000000000000000000000000000000000000000000000000000000000000000000000000000000000000000000000000000000000000000000000000000000000000000000000000000000000000000000000000000000000000000000000000000000000000000000000000000000000000000000000000000000000000000000000000000000000000000000000000000000000000000000000000000000000000000000000000000000174003TR171637002187FCC05                   415092   
75    26KNYR  1174003TR 15171637001517916                     
52174003TR  1      41509000            14000002   87W      75000  1      500      FRC2C    0   
52174003P2  241509041509000      140300      2087W   75000       1 500         2C 2C V2    0   
52174003E2  341509041509000      140500      2087W   75000       1 500         V2    V2    0   
52174441E4  441509041509000      141200      2087W   75000       1 500         V2    V2    0   
52174441BV  541509041509000      141500      2087W   75000       1 500         V2    V2    0   
52174441C2  641509041509000      141600      2087W   75000       1 500         V2    V2    0   
52174441EP  741509041509000      141600      2087W   75000       1 500         V2    V2    0   
52174441C1  841509041509000      141600      2087W   75000       1 500         V2    V2    0   
5217443300  941509041509000      141900      2087W   75000       1 500         V2    V2    0   
5217440900 1041509041509000      142300      2087W   75000       1 500         V2    V2    0   
5217164500 1141509041509000      142800      2087W   75000       1 500         V2    V2    0   
5217161100 1241509041509000      143100      2087W   75000       1 500         V2    V2    0   
5217162900 1341509041509000      143400      2087W   75000       1 500         V2    V2    0   
52171637EP 1441509041509000      143600      2087W   75000       1 500         V2    V2    0   
5217163700 15415090      00143700            2087W   75000       1 500         V2          0   
5024001661  3R4S4150900087140000R415090MA1000000000000000000000000000000000000000000000000010001110000101000011100001110000001000001100000110000011000001100000110000000000000000000000000000000001100000110000010000001100000110000011000001100000110000011000001100000110000011000001100000110000011000001100010110001011000101010010101001010100101010010101001010100000000010101001010100101010010101001010100101010000000000000000000000000000000000000174003TR171637002187FCC05                   415092   
75    26KNYR  1174003TR 15171637001517916                     
52174003TR  1      41509000            14000002   87W      75000  1      500      FRC2C    0   
52174003P2  241509041509000      140300      2087W   75000       1 500         2C 2C V2    0   
52174003E2  341509041509000      140500      2087W   75000       1 500         V2    V2    0   
52174441E4  441509041509000      141200      2087W   75000       1 500         V2    V2    0   
52174441BV  541509041509000      141500      2087W   75000       1 500         V2    V2    0   
52174441C2  641509041509000      141600      2087W   75000       1 500         V2    V2    0   
52174441EP  741509041509000      141600      2087W   75000       1 500         V2    V2    0   
52174441C1  841509041509000      141600      2087W   75000       1 500         V2    V2    0   
5217443300  941509041509000      141900      2087W   75000       1 500         V2    V2    0   
5217440900 1041509041509000      142300      2087W   75000       1 500         V2    V2    0   
5217164500 1141509041509000      142800      2087W   75000       1 500         V2    V2    0   
5217161100 1241509041509000      143100      2087W   75000       1 500         V2    V2    0   
5217162900 1341509041509000      143400      2087W   75000       1 500         V2    V2    0   
52171637EP 1441509041509000      143600      2087W   75000       1 500         V2    V2    0   
5217163700 15415090      00143700            2087W   75000       1 500         V2          0   
5024001661  4R4S4150900087135800R415090MA1000000000000000000000000000000000000000000000000000000000000000000000000000000000000000000000000000000000000000000000000000011000001100000100000010000000000000000000000000000000000000000000000000000000000000000000000000000000000000000000000000000000000000000000000000000000000000000000000000000000000000000000000000000000000000000000000000000000000000000000000000000000000000000000000000000000000000000174003TR171637002187FCC05                   415092   
75    26KNYR  1174003TR 15171637001517916                     
52174003TR  1      41509000            13580002   87W      75000  1      500      FRC2C    0   
52174003P2  241509041509000      140100      2087W   75000       1 500         2C 2C V2    0   
52174003E2  341509041509000      140300      2087W   75000       1 500         V2    V2    0   
52174441E4  441509041509000      141000      2087W   75000       1 500         V2    V2    0   
52174441BV  541509041509000      141300      2087W   75000       1 500         V2    V2    0   
52174441C2  641509041509000      141400      2087W   75000       1 500         V2    V2    0   
52174441EP  741509041509000      141400      2087W   75000       1 500         V2    V2    0   
52174441C1  841509041509000      141500      2087W   75000       1 500         V2    V2    0   
5217443300  941509041509000      141700      2087W   75000       1 500         V2    V2    0   
5217440900 1041509041509000      142200      2087W   75000       1 500         V2    V2    0   
5217164500 1141509041509000      142700      2087W   75000       1 500         V2    V2    0   
5217161100 1241509041509000      143000      2087W   75000       1 500         V2    V2    0   
5217162900 1341509041509000      143300      2087W   75000       1 500         V2    V2    0   
52171637EP 1441509041509000      143500      2087W   75000       1 500         V2    V2    0   
5217163700 15415090      00143700            2087W   75000       1 500         V2          0   
5024001661  5AGT4150900087135700R415090MA1000000000000000000000000000000000000000000000000000010000001000000100000010000001000000000000010000001000000100000010000000000000000000000000000000000000000000000000000000000000000000000000000000000000000000000000000000000000000000000000000000000000000000000000000000000000000000000000000000000000000000000000000000000000000000000000000000000000000000000000000000000000000000000000000000000000000000000174003TR171637002187FCC05                   415092   
75    26X2B4  1174003TR 15171637001517916                     
52174003TR  1      41509000            13570002   87W      75000  1      500      FRC2C    0   
52174003P2  241509041509000      140000      2087W   75000       1 500         2C 2C V2    0   
52174003E2  341509041509000      140200      2087W   75000       1 500         V2    V2    0   
52174441E4  441509041509000      140900      2087W   75000       1 500         V2    V2    0   
52174441BV  541509041509000      141200      2087W   75000       1 500         V2    V2    0   
52174441C2  641509041509000      141200      2087W   75000       1 500         V2    V2    0   
52174441EP  741509041509000      141300      2087W   75000       1 500         V2    V2    0   
52174441C1  841509041509000      141400      2087W   75000       1 500         V2    V2    0   
5217443300  941509041509000      141700      2087W   75000       1 500         V2    V2    0   
5217440900 1041509041509000      142200      2087W   75000       1 500         V2    V2    0   
5217164500 1141509041509000      142600      2087W   75000       1 500         V2    V2    0   
5217161100 1241509041509000      142900      2087W   75000       1 500         V2    V2    0   
5217162900 1341509041509000      143200      2087W   75000       1 500         V2    V2    0   
52171637EP 1441509041509000      143400      2087W   75000       1 500         V2    V2    0   
5217163700 15415090      00143500            2087W   75000       1 500         V2          0   
5024001661  6R4S4150900087135700R415090MA1000000000000000000000000000000000000000000000000000000000000000000000000000000000000000000000000000000000000000000000000001000000100000010000001000000100000010000001000000100000010000001000000100000010000001000000100000010000001000000100000010000001000000100000000000000000000000000000000000000000000000000000000000000000000000000000000000000000000000000000000000000000000000000000000000000000000000000174003TR171637002187FCC05                   415092   
75    26X2B4  1174003TR 15171637001517916                     
52174003TR  1      41509000            13570002   87W      75000  1      500      FRC2C    0   
52174003P2  241509041509000      140000      2087W   75000       1 500         2C 2C V2    0   
52174003E2  341509041509000      140200      2087W   75000       1 500         V2    V2    0   
52174441E4  441509041509000      140900      2087W   75000       1 500         V2    V2    0   
52174441BV  541509041509000      141200      2087W   75000       1 500         V2    V2    0   
52174441C2  641509041509000      141200      2087W   75000       1 500         V2    V2    0   
52174441EP  741509041509000      141300      2087W   75000       1 500         V2    V2    0   
52174441C1  841509041509000      141400      2087W   75000       1 500         V2    V2    0   
5217443300  941509041509000      141700      2087W   75000       1 500         V2    V2    0   
5217440900 1041509041509000      142200      2087W   75000       1 500         V2    V2    0   
5217164500 1141509041509000      142600      2087W   75000       1 500         V2    V2    0   
5217161100 1241509041509000      142900      2087W   75000       1 500         V2    V2    0   
5217162900 1341509041509000      143200      2087W   75000       1 500         V2    V2    0   
52171637EP 1441509041509000      143400      2087W   75000       1 500         V2    V2    0   
5217163700 15415090      00143500            2087W   75000       1 500         V2          0   
5024001661  7R4S4150900087130600R415090MA1000000000000000000000000000000000000000000000000000000000000000000000000000000000000000000000000000000000000000000000000000000000000000000000000000000000000000000000000000000000000000000000000000000000000000000000000000000000000000000000000000000000000000000000000000000000000000000000000000000000000000001000000100000000000000000000000000000000000000000000000000000000000000000000000000000000000000000174003TR171637002187FCC05                   415092   
75    26YC28  1174003TR 15171637001517916                     
52174003TR  1      41509000            13060002   87W      75000  1      500      FRC2C    0   
52174003P2  241509041509000      130900      2087W   75000       1 500         2C 2C V2    0   
52174003E2  341509041509000      131100      2087W   75000       1 500         V2    V2    0   
52174441E4  441509041509000      131800      2087W   75000       1 500         V2    V2    0   
52174441BV  541509041509000      132100      2087W   75000       1 500         V2    V2    0   
52174441C2  641509041509000      132100      2087W   75000       1 500         V2    V2    0   
52174441EP  741509041509000      132200      2087W   75000       1 500         V2    V2    0   
52174441C1  841509041509000      132200      2087W   75000       1 500         V2    V2    0   
5217443300  941509041509000      132500      2087W   75000       1 500         V2    V2    0   
5217440900 1041509041509000      132900      2087W   75000       1 500         V2    V2    0   
5217164500 1141509041509000      133400      2087W   75000       1 500         V2    V2    0   
5217161100 1241509041509000      133700      2087W   75000       1 500         V2    V2    0   
5217162900 1341509041509000      134000      2087W   75000       1 500         V2    V2    0   
52171637EP 1441509041509000      134200      2087W   75000       1 500         V2    V2    0   
5217163700 15415090      00134300            2087W   75000       1 500         V2          0   
5024001661  8AGT4150900087124600R415090MA1000000000000000000000000000000000000000000000000000000000000000000000000000000000000000000000000000000000000000000000000000100000010000001000000100000000000000000000000000000000000000000000000000000000000000000000000000000000000000000000000000000000000000000000000000000000000000000000000000000000000000000000000000000000000000000000000000000000000000000000000000000000000000000000000000000000000000000174003TR171637002187FCC05                   415092   
75    26YC28  1174003TR 15171637001517916                     
52174003TR  1      41509000            12460002   87W      75000  1      500      FRC2C    0   
52174003P2  241509041509000      124900      2087W   75000       1 500         2C 2C V2    0   
52174003E2  341509041509000      125100      2087W   75000       1 500         V2    V2    0   
52174441E4  441509041509000      125800      2087W   75000       1 500         V2    V2    0   
52174441BV  541509041509000      130100      2087W   75000       1 500         V2    V2    0   
52174441C2  641509041509000      130100      2087W   75000       1 500         V2    V2    0   
52174441EP  741509041509000      130200      2087W   75000       1 500         V2    V2    0   
52174441C1  841509041509000      130200      2087W   75000       1 500         V2    V2    0   
5217443300  941509041509000      130500      2087W   75000       1 500         V2    V2    0   
5217440900 1041509041509000      131000      2087W   75000       1 500         V2    V2    0   
5217164500 1141509041509000      131400      2087W   75000       1 500         V2    V2    0   
5217161100 1241509041509000      131800      2087W   75000       1 500         V2    V2    0   
5217162900 1341509041509000      132100      2087W   75000       1 500         V2    V2    0   
52171637EP 1441509041509000      132300      2087W   75000       1 500         V2    V2    0   
5217163700 15415090      00132500            2087W   75000       1 500         V2          0   
5024001661  9AGT4150900087124700R415090MA1000000000000000000000000000000000000000000000000000000000000000000000000000000000000000000000000000000000000000000000000000000000000000000000000000000000000000000000000000010000000000000000000000000000000000000000000000000000000000000000000000000000000000000000000000000000000000000000000000000000000000000000000000000000000000000000000000000000000000000000000000000000000000000000000000000000000000000174003TR171637002187FCC05                   415092   
75    26YC28  1174003TR 15171637001517916                     
52174003TR  1      41509000            12470002   87W      75000  1      500      FRC2C    0   
52174003P2  241509041509000      125000      2087W   75000       1 500         2C 2C V2    0   
52174003E2  341509041509000      125200      2087W   75000       1 500         V2    V2    0   
52174441E4  441509041509000      125900      2087W   75000       1 500         V2    V2    0   
52174441BV  541509041509000      130200      2087W   75000       1 500         V2    V2    0   
52174441C2  641509041509000      130200      2087W   75000       1 500         V2    V2    0   
52174441EP  741509041509000      130300      2087W   75000       1 500         V2    V2    0   
52174441C1  841509041509000      130300      2087W   75000       1 500         V2    V2    0   
5217443300  941509041509000      130500      2087W   75000       1 500         V2    V2    0   
5217440900 1041509041509000      131000      2087W   75000       1 500         V2    V2    0   
5217164500 1141509041509000      131400      2087W   75000       1 500         V2    V2    0   
5217161100 1241509041509000      131700      2087W   75000       1 500         V2    V2    0   
5217162900 1341509041509000      132000      2087W   75000       1 500         V2    V2    0   
52171637EP 1441509041509000      132200      2087W   75000       1 500         V2    V2    0   
5217163700 15415090      00132300            2087W   75000       1 500         V2          0   
5024001661 10R4S4150900087124700R415090MA1000000000000000000000000000000000000000000000000000000000000000000000000000000000000000000000000000000000000000000000000000000000000000000000000000000000000000000000000000000000001000000100000010000001000000100000010000001000000100000010000001000000100000010000001000000100000010000001000000100000010000000000000000000000000001000000000000010000001000000100000010000000000000000000000000000000000000000174003TR171637002187FCC05                   415092   
75    26YC28  1174003TR 15171637001517916                     
52174003TR  1      41509000            12470002   87W      75000  1      500      FRC2C    0   
52174003P2  241509041509000      125000      2087W   75000       1 500         2C 2C V2    0   
52174003E2  341509041509000      125200      2087W   75000       1 500         V2    V2    0   
52174441E4  441509041509000      125900      2087W   75000       1 500         V2    V2    0   
52174441BV  541509041509000      130200      2087W   75000       1 500         V2    V2    0   
52174441C2  641509041509000      130200      2087W   75000       1 500         V2    V2    0   
52174441EP  741509041509000      130300      2087W   75000       1 500         V2    V2    0   
52174441C1  841509041509000      130300      2087W   75000       1 500         V2    V2    0   
5217443300  941509041509000      130500      2087W   75000       1 500         V2    V2    0   
5217440900 1041509041509000      131000      2087W   75000       1 500         V2    V2    0   
5217164500 1141509041509000      131400      2087W   75000       1 500         V2    V2    0   
5217161100 1241509041509000      131700      2087W   75000       1 500         V2    V2    0   
5217162900 1341509041509000      132000      2087W   75000       1 500         V2    V2    0   
52171637EP 1441509041509000      132200      2087W   75000       1 500         V2    V2    0   
5217163700 15415090      00132300            2087W   75000       1 500         V2          0   
5024001661 11AGT4150900087124600R415090MA1000000000000000000000000000000000000000000000000000000000000000000000000000000000100000010000001000000100000010000001000000000000000000000000000000000010000001000000100000000000000000000000000000000000000000000000000000000000000000000000000000000000000000000000000000000000000000000000000000000000000000000000000000000000000000000000000000000000000000000000000000000000000000000000000000000000000000000174003TR171637002187FCC05                   415092   
75    26YC28  1174003TR 15171637001517916                     
52174003TR  1      41509000            12460002   87W      75000  1      500      FRC2C    0   
52174003P2  241509041509000      125000      2087W   75000       1 500         2C 2C V2    0   
52174003E2  341509041509000      125200      2087W   75000       1 500         V2    V2    0   
52174441E4  441509041509000      125900      2087W   75000       1 500         V2    V2    0   
52174441BV  541509041509000      130200      2087W   75000       1 500         V2    V2    0   
52174441C2  641509041509000      130200      2087W   75000       1 500         V2    V2    0   
52174441EP  741509041509000      130200      2087W   75000       1 500         V2    V2    0   
52174441C1  841509041509000      130300      2087W   75000       1 500         V2    V2    0   
5217443300  941509041509000      130500      2087W   75000       1 500         V2    V2    0   
5217440900 1041509041509000      131000      2087W   75000       1 500         V2    V2    0   
5217164500 1141509041509000      131400      2087W   75000       1 500         V2    V2    0   
5217161100 1241509041509000      131700      2087W   75000       1 500         V2    V2    0   
5217162900 1341509041509000      132000      2087W   75000       1 500         V2    V2    0   
52171637EP 1441509041509000      132200      2087W   75000       1 500         V2    V2    0   
5217163700 15415090      00132300            2087W   75000       1 500         V2          0   
5024001661 12AGT4150900087085500R415090MA1000000000000000000000000000000000000000000000000000000000000000000000000000000000000000000000000000000000000000000000000000000000000000000001000000100000000000000000000100000000000000000000000000000000000000000000000000000000000000000000000000000000000000000000000000000000000000000000000000000000000000000000000000000000000000000000000000000000000000000000000000000000000000000000000000000000000000000174003TR171637002187FCC05                   415092   
75    26ZNBV  1174003TR 15171637001517916                     
52174003TR  1      41509000            08550002   87W      75000  1      500      FRC2C    0   
52174003P2  241509041509000      085800      2087W   75000       1 500         2C 2C V2    0   
52174003E2  341509041509000      090000      2087W   75000       1 500         V2    V2    0   
52174441E4  441509041509000      090700      2087W   75000       1 500         V2    V2    0   
52174441BV  541509041509000      091000      2087W   75000       1 500         V2    V2    0   
52174441C2  641509041509000      091000      2087W   75000       1 500         V2    V2    0   
52174441EP  741509041509000      091100      2087W   75000       1 500         V2    V2    0   
52174441C1  841509041509000      091100      2087W   75000       1 500         V2    V2    0   
5217443300  941509041509000      091300      2087W   75000       1 500         V2    V2    0   
5217440900 1041509041509000      091800      2087W   75000       1 500         V2    V2    0   
5217164500 1141509041509000      092200      2087W   75000       1 500         V2    V2    0   
5217161100 1241509041509000      092500      2087W   75000       1 500         V2    V2    0   
5217162900 1341509041509000      092800      2087W   75000       1 500         V2    V2    0   
52171637EP 1441509041509000      093000      2087W   75000       1 500         V2    V2    0   
5217163700 15415090      00093100            2087W   75000       1 500         V2          0   
5024001662  1SER4150920087163000R415092MA100011101001100100100010011101001110100111010011000000000000000000000000000000000000000000000000000000000000000000000000000000000000000000000000000000000000000000000000000000000000000000000000000000000000000000000000000000000000000000000000000000000000000000000000000000000000000000000000000000000000000000000000000000000000000000000000000000000000000000000000000000000000000000000000000000000000000000017163700174003TR2187FCC05          415090            
75    26KNYT  117163700 23174003TR1517917                     
5217163700  1      41509200            16300002   87W      75000  1      1800        V2    0   
52171058E1  241509241509200      163500      2087W   75000       1 1800        V2    V2    0   
5241745100  341509241509200      163900      2087W   75000       1 1800        V2    V2    0   
52171009P5  441509241509200      164200      2087W   75000       1 1800        V2    FRC   0   
52171009TR  541509241509200164400      1714002287W87W75000 75000 111800  1800  FRC   FRC   0   
52171009P5  641509241509200      171600      2087W   75000       1 1800        FRCFRCV1    0   
5241745100  741509241509200      172100      2087W   75000       1 1800        V1    V1    0   
52171058E1  841509241509200      172500      2087W   75000       1 1800        V1    V1    0   
52171058E2  941509241509200      172500      2087W   75000       1 1800        V1    V1    0   
5217163700 1041509241509200      172700      2087W   75000       1 1800        V1    V1    0   
52171637EP 1141509241509200      172800      2087W   75000       1 1800        V1    V1    0   
5217162900 1241509241509200      173000      2087W   75000       1 1800        V1    V1    0   
5217161100 1341509241509200      173300      2087W   75000       1 1800        V1    V1    0   
5217164500 1441509241509200      173600      2087W   75000       1 1800        V1    V1    0   
5217440900 1541509241509200      174100      2087W   75000       1 1800        V1    V1    0   
5217443300 1641509241509200      174500      2087W   75000       1 1800        V1    V1    0   
52174441EP 1741509241509200      174800      2087W   75000       1 1800        V1    V1    0   
52174441C2 1841509241509200      174900      2087W   75000       1 1800        V1    V1    0   
52174441BV 1941509241509200      174900      2087W   75000       1 1800        V1    V1    0   
52174003EC 2041509241509200      175900      2087W   75000       1 1800        V1    V1    0   
52174003E3 2141509241509200      180000      2087W   75000       1 1800        V1    V1    0   
52174003P2 2241509241509200      180100      2087W   75000       1 1800        V1    1C    0   
52174003TR 23415092      00180600            2087W   75000       1 1800        1C FRA      0   
5024001662  6AGT4150920087163000R415093MA100000000000000000000000000000000000000000000000000000000000100000010000001000000100000000000001000000100000010000000000000000000000000000000000000000000000000000000000000000000000000000000000000000000000000000000000000000000000000000000000000000000000000000000000000000000000000000000000000000000000000000000000000000000000000000000000000000000000000000000000000000000000000000000000000000000000000000017163700174003TR2187FCC05          415090            
75    26X2B3  117163700 23174003TR1517917                     
5217163700  1      41509200            16300002   87W      75000  1      1800        V2    0   
52171058E1  241509241509200      163500      2087W   75000       1 1800        V2    V2    0   
5241745100  341509241509200      163900      2087W   75000       1 1800        V2    V2    0   
52171009P5  441509241509200      164200      2087W   75000       1 1800        V2    FRC   0   
52171009TR  541509241509300164400      1714002287W87W75000 75000 111800  1800  FRC   FRC   0   
52171009P5  641509341509300      171600      2087W   75000       1 1800        FRCFRCV1    0   
5241745100  741509341509300      172100      2087W   75000       1 1800        V1    V1    0   
52171058E1  841509341509300      172500      2087W   75000       1 1800        V1    V1    0   
52171058E2  941509341509300      172500      2087W   75000       1 1800        V1    V1    0   
5217163700 1041509341509300      172700      2087W   75000       1 1800        V1    V1    0   
52171637EP 1141509341509300      172800      2087W   75000       1 1800        V1    V1    0   
5217162900 1241509341509300      173000      2087W   75000       1 1800        V1    V1    0   
5217161100 1341509341509300      173300      2087W   75000       1 1800        V1    V1    0   
5217164500 1441509341509300      173600      2087W   75000       1 1800        V1    V1    0   
5217440900 1541509341509300      174100      2087W   75000       1 1800        V1    V1    0   
5217443300 1641509341509300      174500      2087W   75000       1 1800        V1    V1    0   
52174441EP 1741509341509300      174800      2087W   75000       1 1800        V1    V1    0   
52174441C2 1841509341509300      174900      2087W   75000       1 1800        V1    V1    0   
52174441BV 1941509341509300      174900      2087W   75000       1 1800        V1    V1    0   
52174003EC 2041509341509300      175900      2087W   75000       1 1800        V1    V1    0   
52174003E3 2141509341509300      180000      2087W   75000       1 1800        V1    V1    0   
52174003P2 2241509341509300      180100      2087W   75000       1 1800        V1    1C    0   
52174003TR 23415093      00180600            2087W   75000       1 1800        1C FRA      0   
5024001662  7R4S4150920087163000R415093MA100000000000000000000000000000000000000000000000000000000000000000000000000000000000000000000000000000000000000000001000000100000010000001000000100000010000001000000100000010000001000000100000000000000000000100000010000001000000100000010000001000000100000010000000000000000000000000000000000000000000000000000000000000000000000000000000000000000000000000000000000000000000000000000000000000000000000000017163700174003TR2187FCC05          415090            
75    26X2B3  117163700 23174003TR1517917                     
5217163700  1      41509200            16300002   87W      75000  1      1800        V2    0   
52171058E1  241509241509200      163500      2087W   75000       1 1800        V2    V2    0   
5241745100  341509241509200      163900      2087W   75000       1 1800        V2    V2    0   
52171009P5  441509241509200      164200      2087W   75000       1 1800        V2    FRC   0   
52171009TR  541509241509300164400      1714002287W87W75000 75000 111800  1800  FRC   FRC   0   
52171009P5  641509341509300      171600      2087W   75000       1 1800        FRCFRCV1    0   
5241745100  741509341509300      172100      2087W   75000       1 1800        V1    V1    0   
52171058E1  841509341509300      172500      2087W   75000       1 1800        V1    V1    0   
52171058E2  941509341509300      172500      2087W   75000       1 1800        V1    V1    0   
5217163700 1041509341509300      172700      2087W   75000       1 1800        V1    V1    0   
52171637EP 1141509341509300      172800      2087W   75000       1 1800        V1    V1    0   
5217162900 1241509341509300      173000      2087W   75000       1 1800        V1    V1    0   
5217161100 1341509341509300      173300      2087W   75000       1 1800        V1    V1    0   
5217164500 1441509341509300      173600      2087W   75000       1 1800        V1    V1    0   
5217440900 1541509341509300      174100      2087W   75000       1 1800        V1    V1    0   
5217443300 1641509341509300      174500      2087W   75000       1 1800        V1    V1    0   
52174441EP 1741509341509300      174800      2087W   75000       1 1800        V1    V1    0   
52174441C2 1841509341509300      174900      2087W   75000       1 1800        V1    V1    0   
52174441BV 1941509341509300      174900      2087W   75000       1 1800        V1    V1    0   
52174003EC 2041509341509300      175900      2087W   75000       1 1800        V1    V1    0   
52174003E3 2141509341509300      180000      2087W   75000       1 1800        V1    V1    0   
52174003P2 2241509341509300      180100      2087W   75000       1 1800        V1    1C    0   
52174003TR 23415093      00180600            2087W   75000       1 1800        1C FRA      0   
5024001662  8AGT4150920087163000R415093MA100000000000000000000000000000000000000000000000000000011000010100001110000111000000100000110000011000001100000110000000000000000000000000000000000000000000000000000000000000000000000000000000000000000000000000000000000000000000000000000000000000000000000000000000000000000000000000000000000000000000000000000000000000000000000000000000000000000000000000000000000000000000000000000000000000000000000000017163700174003TR2187FCC05          415090            
75    26KNYT  117163700 23174003TR1517917                     
5217163700  1      41509200            16300002   87W      75000  1      1800        V2    0   
52171058E1  241509241509200      163500      2087W   75000       1 1800        V2    V2    0   
5241745100  341509241509200      163900      2087W   75000       1 1800        V2    V2    0   
52171009P5  441509241509200      164200      2087W   75000       1 1800        V2    FRC   0   
52171009TR  541509241509300164400      1714002287W87W75000 75000 111800  1800  FRC   FRC   0   
52171009P5  641509341509300      171600      2087W   75000       1 1800        FRCFRCV1    0   
5241745100  741509341509300      172100      2087W   75000       1 1800        V1    V1    0   
52171058E1  841509341509300      172500      2087W   75000       1 1800        V1    V1    0   
52171058E2  941509341509300      172500      2087W   75000       1 1800        V1    V1    0   
5217163700 1041509341509300      172700      2087W   75000       1 1800        V1    V1    0   
52171637EP 1141509341509300      172800      2087W   75000       1 1800        V1    V1    0   
5217162900 1241509341509300      173000      2087W   75000       1 1800        V1    V1    0   
5217161100 1341509341509300      173300      2087W   75000       1 1800        V1    V1    0   
5217164500 1441509341509300      173600      2087W   75000       1 1800        V1    V1    0   
5217440900 1541509341509300      174100      2087W   75000       1 1800        V1    V1    0   
5217443300 1641509341509300      174500      2087W   75000       1 1800        V1    V1    0   
52174441EP 1741509341509300      174800      2087W   75000       1 1800        V1    V1    0   
52174441C2 1841509341509300      174900      2087W   75000       1 1800        V1    V1    0   
52174441BV 1941509341509300      174900      2087W   75000       1 1800        V1    V1    0   
52174003EC 2041509341509300      175900      2087W   75000       1 1800        V1    V1    0   
52174003E3 2141509341509300      180000      2087W   75000       1 1800        V1    V1    0   
52174003P2 2241509341509300      180100      2087W   75000       1 1800        V1    1C    0   
52174003TR 23415093      00180600            2087W   75000       1 1800        1C FRA      0   
5024001662  9R4S4150920087163000R415093MA100000000000000000000000000000000000000000000000000000000000000000000000000000000000000000000000000000000000000000000011000001100000110000010000001000000110000011000001000000110000011000000000000000000000000001100000110000011000001100000110000011000001100000110001011000101100010101001010100101010010101001010100101010011101001010100101010010101001010100101010010101000000000000000000000000000000000000017163700174003TR2187FCC05          415090            
75    26KNYT  117163700 23174003TR1517917                     
5217163700  1      41509200            16300002   87W      75000  1      1800        V2    0   
52171058E1  241509241509200      163500      2087W   75000       1 1800        V2    V2    0   
5241745100  341509241509200      163900      2087W   75000       1 1800        V2    V2    0   
52171009P5  441509241509200      164200      2087W   75000       1 1800        V2    FRC   0   
52171009TR  541509241509300164400      1714002287W87W75000 75000 111800  1800  FRC   FRC   0   
52171009P5  641509341509300      171600      2087W   75000       1 1800        FRCFRCV1    0   
5241745100  741509341509300      172100      2087W   75000       1 1800        V1    V1    0   
52171058E1  841509341509300      172500      2087W   75000       1 1800        V1    V1    0   
52171058E2  941509341509300      172500      2087W   75000       1 1800        V1    V1    0   
5217163700 1041509341509300      172700      2087W   75000       1 1800        V1    V1    0   
52171637EP 1141509341509300      172800      2087W   75000       1 1800        V1    V1    0   
5217162900 1241509341509300      173000      2087W   75000       1 1800        V1    V1    0   
5217161100 1341509341509300      173300      2087W   75000       1 1800        V1    V1    0   
5217164500 1441509341509300      173600      2087W   75000       1 1800        V1    V1    0   
5217440900 1541509341509300      174100      2087W   75000       1 1800        V1    V1    0   
5217443300 1641509341509300      174500      2087W   75000       1 1800        V1    V1    0   
52174441EP 1741509341509300      174800      2087W   75000       1 1800        V1    V1    0   
52174441C2 1841509341509300      174900      2087W   75000       1 1800        V1    V1    0   
52174441BV 1941509341509300      174900      2087W   75000       1 1800        V1    V1    0   
52174003EC 2041509341509300      175900      2087W   75000       1 1800        V1    V1    0   
52174003E3 2141509341509300      180000      2087W   75000       1 1800        V1    V1    0   
52174003P2 2241509341509300      180100      2087W   75000       1 1800        V1    1C    0   
52174003TR 23415093      00180600            2087W   75000       1 1800        1C FRA      0   
5024001662 10R4S4150920087162900R415093MA100000000000000000000000000000000000000000000000000000000000000000000000000000000000000000000000000000000000000000000000000000000000000000000000000000000000000000000000000000000000000000001100000110000011000000000000000000000000000000000000000000000000000000000000000000000000000000000000000000000000000000000000000000000000000000000000000000000000000000000000000000000000000000000000000000000000000000017163700174003TR2187FCC05          415090            
75    26KNYT  117163700 23174003TR1517917                     
5217163700  1      41509200            16290002   87W      75000  1      1800        V2    0   
52171058E1  241509241509200      163600      2087W   75000       1 1800        V2    V2    0   
5241745100  341509241509200      164000      2087W   75000       1 1800        V2    V2    0   
52171009P5  441509241509200      164300      2087W   75000       1 1800        V2    FRC   0   
52171009TR  541509241509300164500      1715002287W87W75000 75000 111800  1800  FRC   FRC   0   
52171009P5  641509341509300      171700      2087W   75000       1 1800        FRCFRCV1    0   
5241745100  741509341509300      172300      2087W   75000       1 1800        V1    V1    0   
52171058E1  841509341509300      172600      2087W   75000       1 1800        V1    V1    0   
52171058E2  941509341509300      172700      2087W   75000       1 1800        V1    V1    0   
5217163700 1041509341509300      172900      2087W   75000       1 1800        V1    V1    0   
52171637EP 1141509341509300      172900      2087W   75000       1 1800        V1    V1    0   
5217162900 1241509341509300      173100      2087W   75000       1 1800        V1    V1    0   
5217161100 1341509341509300      173400      2087W   75000       1 1800        V1    V1    0   
5217164500 1441509341509300      173700      2087W   75000       1 1800        V1    V1    0   
5217440900 1541509341509300      174300      2087W   75000       1 1800        V1    V1    0   
5217443300 1641509341509300      174700      2087W   75000       1 1800        V1    V1    0   
52174441EP 1741509341509300      175000      2087W   75000       1 1800        V1    V1    0   
52174441C2 1841509341509300      175000      2087W   75000       1 1800        V1    V1    0   
52174441BV 1941509341509300      175100      2087W   75000       1 1800        V1    V1    0   
52174003EC 2041509341509300      180100      2087W   75000       1 1800        V1    V1    0   
52174003E3 2141509341509300      180100      2087W   75000       1 1800        V1    V1    0   
52174003P2 2241509341509300      180300      2087W   75000       1 1800        V1    1C    0   
52174003TR 23415093      00180700            2087W   75000       1 1800        1C FRA      0   
5024001662 11R4S4150920087162900R415093MA100000000000000000000000000000000000000000000000000000000000000000000000000000000000000000000000000000000000000000000000000000000000000000000000000000000000000000000000000000000000000000000000010000001000000000000000000000000000000000000000000000000000000000000000000000000000000000000000000000000000000000000000000000000000000000000000000000000000000000000000000000000000000000000000000000000000000000017163700174003TR2187FCC05          415090            
75    26X2B3  117163700 23174003TR1517917                     
5217163700  1      41509200            16290002   87W      75000  1      1800        V2    0   
52171058E1  241509241509200      163600      2087W   75000       1 1800        V2    V2    0   
5241745100  341509241509200      164000      2087W   75000       1 1800        V2    V2    0   
52171009P5  441509241509200      164300      2087W   75000       1 1800        V2    FRC   0   
52171009TR  541509241509300164500      1715002287W87W75000 75000 111800  1800  FRC   FRC   0   
52171009P5  641509341509300      171700      2087W   75000       1 1800        FRCFRCV1    0   
5241745100  741509341509300      172300      2087W   75000       1 1800        V1    V1    0   
52171058E1  841509341509300      172600      2087W   75000       1 1800        V1    V1    0   
52171058E2  941509341509300      172700      2087W   75000       1 1800        V1    V1    0   
5217163700 1041509341509300      172900      2087W   75000       1 1800        V1    V1    0   
52171637EP 1141509341509300      172900      2087W   75000       1 1800        V1    V1    0   
5217162900 1241509341509300      173100      2087W   75000       1 1800        V1    V1    0   
5217161100 1341509341509300      173400      2087W   75000       1 1800        V1    V1    0   
5217164500 1441509341509300      173700      2087W   75000       1 1800        V1    V1    0   
5217440900 1541509341509300      174300      2087W   75000       1 1800        V1    V1    0   
5217443300 1641509341509300      174700      2087W   75000       1 1800        V1    V1    0   
52174441EP 1741509341509300      175000      2087W   75000       1 1800        V1    V1    0   
52174441C2 1841509341509300      175000      2087W   75000       1 1800        V1    V1    0   
52174441BV 1941509341509300      175100      2087W   75000       1 1800        V1    V1    0   
52174003EC 2041509341509300      180100      2087W   75000       1 1800        V1    V1    0   
52174003E3 2141509341509300      180100      2087W   75000       1 1800        V1    V1    0   
52174003P2 2241509341509300      180300      2087W   75000       1 1800        V1    1C    0   
52174003TR 23415093      00180700            2087W   75000       1 1800        1C FRA      0   
5024001662 12AGT4150920087145100R415093MA100000000000000000000000000000000000000000000000000000000000000000000000000000000010000001000000100000010000001000000000000000000001000000100000010000001000000100000010000000000000000000000000000000000000000000000000000000000000000000000000000000000000000000000000000000000000000000000000000000000000000000000000000000000000000000000000000000000000000000000000000000000000000000000000000000000000000000017163700174003TR2187FCC05          415090            
75    26YC22  117163700 23174003TR1517917                     
5217163700  1      41509200            14510002   87W      75000  1      1800        V2    0   
52171058E1  241509241509200      145800      2087W   75000       1 1800        V2    V2    0   
5241745100  341509241509200      150400      2087W   75000       1 1800        V2    V2    0   
52171009P5  441509241509200      150900      2087W   75000       1 1800        V2    FRC   0   
52171009TR  541509241509300151200      1543002287W87W75000 75000 111800  1800  FRC   FRC   0   
52171009P5  641509341509300      154500      2087W   75000       1 1800        FRCFRCV1    0   
5241745100  741509341509300      155000      2087W   75000       1 1800        V1    V1    0   
52171058E1  841509341509300      155400      2087W   75000       1 1800        V1    V1    0   
52171058E2  941509341509300      155400      2087W   75000       1 1800        V1    V1    0   
5217163700 1041509341509300      155700      2087W   75000       1 1800        V1    V1    0   
52171637EP 1141509341509300      155700      2087W   75000       1 1800        V1    V1    0   
5217162900 1241509341509300      155900      2087W   75000       1 1800        V1    V1    0   
5217161100 1341509341509300      160200      2087W   75000       1 1800        V1    V1    0   
5217164500 1441509341509300      160500      2087W   75000       1 1800        V1    V1    0   
5217440900 1541509341509300      161000      2087W   75000       1 1800        V1    V1    0   
5217443300 1641509341509300      161500      2087W   75000       1 1800        V1    V1    0   
52174441EP 1741509341509300      161800      2087W   75000       1 1800        V1    V1    0   
52174441C2 1841509341509300      161800      2087W   75000       1 1800        V1    V1    0   
52174441BV 1941509341509300      161900      2087W   75000       1 1800        V1    V1    0   
52174003EC 2041509341509300      162900      2087W   75000       1 1800        V1    V1    0   
52174003E3 2141509341509300      162900      2087W   75000       1 1800        V1    V1    0   
52174003P2 2241509341509300      163000      2087W   75000       1 1800        V1    1C    0   
52174003TR 23415093      00163500            2087W   75000       1 1800        1C FRA      0   
5024001662 13R4S4150920087162900R415093MA100000000000000000000000000000000000000000000000000000000000000000000000000000000000000000000000000000000000000000000000000000000000000000000000000000000000000000000000000000000000000000010000001000000100000000000000000000000000000000000000000000000000000000000000000000000000000000000000000000000000000000000000000000000000000000000000000000000000000000000000000000000000000000000000000000000000000000017163700174003TR2187FCC05          415090            
75    26YC22  117163700 23174003TR1517917                     
5217163700  1      41509200            16290002   87W      75000  1      1800        V2    0   
52171058E1  241509241509200      163600      2087W   75000       1 1800        V2    V2    0   
5241745100  341509241509200      164000      2087W   75000       1 1800        V2    V2    0   
52171009P5  441509241509200      164300      2087W   75000       1 1800        V2    FRC   0   
52171009TR  541509241509300164500      1715002287W87W75000 75000 111800  1800  FRC   FRC   0   
52171009P5  641509341509300      171700      2087W   75000       1 1800        FRCFRCV1    0   
5241745100  741509341509300      172300      2087W   75000       1 1800        V1    V1    0   
52171058E1  841509341509300      172600      2087W   75000       1 1800        V1    V1    0   
52171058E2  941509341509300      172700      2087W   75000       1 1800        V1    V1    0   
5217163700 1041509341509300      172900      2087W   75000       1 1800        V1    V1    0   
52171637EP 1141509341509300      172900      2087W   75000       1 1800        V1    V1    0   
5217162900 1241509341509300      173100      2087W   75000       1 1800        V1    V1    0   
5217161100 1341509341509300      173400      2087W   75000       1 1800        V1    V1    0   
5217164500 1441509341509300      173700      2087W   75000       1 1800        V1    V1    0   
5217440900 1541509341509300      174200      2087W   75000       1 1800        V1    V1    0   
5217443300 1641509341509300      174700      2087W   75000       1 1800        V1    V1    0   
52174441EP 1741509341509300      175000      2087W   75000       1 1800        V1    V1    0   
52174441C2 1841509341509300      175000      2087W   75000       1 1800        V1    V1    0   
52174441BV 1941509341509300      175100      2087W   75000       1 1800        V1    V1    0   
52174003EC 2041509341509300      180000      2087W   75000       1 1800        V1    V1    0   
52174003E3 2141509341509300      180100      2087W   75000       1 1800        V1    V1    0   
52174003P2 2241509341509300      180200      2087W   75000       1 1800        V1    1C    0   
52174003TR 23415093      00180700            2087W   75000       1 1800        1C FRA      0   
5024001662 14AGT4150920087145000R415093MA100000000000000000000000000000000000000000000000000000000000000000000000000000000000000000000000000000000000000000000000000000000000000000000000000000000000000000000000000001000000000000000000000000000000000000000000000000000000000000000000000000000000000000000000000000000000000000000000000000000000000000000000000000000000000000000000000000000000000000000000000000000000000000000000000000000000000000017163700174003TR2187FCC05          415090            
75    26YC22  117163700 23174003TR1517917                     
5217163700  1      41509200            14500002   87W      75000  1      1800        V2    0   
52171058E1  241509241509200      145600      2087W   75000       1 1800        V2    V2    0   
5241745100  341509241509200      150100      2087W   75000       1 1800        V2    V2    0   
52171009P5  441509241509200      150500      2087W   75000       1 1800        V2    FRC   0   
52171009TR  541509241509300150800      1545002287W87W75000 75000 111800  1800  FRC   FRC   0   
52171009P5  641509341509300      154700      2087W   75000       1 1800        FRCFRCV1    0   
5241745100  741509341509300      155200      2087W   75000       1 1800        V1    V1    0   
52171058E1  841509341509300      155600      2087W   75000       1 1800        V1    V1    0   
52171058E2  941509341509300      155600      2087W   75000       1 1800        V1    V1    0   
5217163700 1041509341509300      155900      2087W   75000       1 1800        V1    V1    0   
52171637EP 1141509341509300      155900      2087W   75000       1 1800        V1    V1    0   
5217162900 1241509341509300      160100      2087W   75000       1 1800        V1    V1    0   
5217161100 1341509341509300      160400      2087W   75000       1 1800        V1    V1    0   
5217164500 1441509341509300      160700      2087W   75000       1 1800        V1    V1    0   
5217440900 1541509341509300      161200      2087W   75000       1 1800        V1    V1    0   
5217443300 1641509341509300      161600      2087W   75000       1 1800        V1    V1    0   
52174441EP 1741509341509300      161900      2087W   75000       1 1800        V1    V1    0   
52174441C2 1841509341509300      162000      2087W   75000       1 1800        V1    V1    0   
52174441BV 1941509341509300      162100      2087W   75000       1 1800        V1    V1    0   
52174003EC 2041509341509300      163000      2087W   75000       1 1800        V1    V1    0   
52174003E3 2141509341509300      163100      2087W   75000       1 1800        V1    V1    0   
52174003P2 2241509341509300      163200      2087W   75000       1 1800        V1    1C    0   
52174003TR 23415093      00163700            2087W   75000       1 1800        1C FRA      0   
5024001662 15R4S4150920087145000R415093MA100000000000000000000000000000000000000000000000000000000000000000000000000000000000000000000000000000000000000000000000000000000000000000000000000000000000000000000000000000000000100000000000000000000000000010000001000000100000010000001000000100000010000001000000100000010000001000000100000010000001000000100000010000000000000000000000000001000000100000010000001000000000000000000000000000000000000000017163700174003TR2187FCC05          415090            
75    26YC22  117163700 23174003TR1517917                     
5217163700  1      41509200            14500002   87W      75000  1      1800        V2    0   
52171058E1  241509241509200      145600      2087W   75000       1 1800        V2    V2    0   
5241745100  341509241509200      150100      2087W   75000       1 1800        V2    V2    0   
52171009P5  441509241509200      150500      2087W   75000       1 1800        V2    FRC   0   
52171009TR  541509241509300150800      1545002287W87W75000 75000 111800  1800  FRC   FRC   0   
52171009P5  641509341509300      154700      2087W   75000       1 1800        FRCFRCV1    0   
5241745100  741509341509300      155200      2087W   75000       1 1800        V1    V1    0   
52171058E1  841509341509300      155600      2087W   75000       1 1800        V1    V1    0   
52171058E2  941509341509300      155600      2087W   75000       1 1800        V1    V1    0   
5217163700 1041509341509300      155900      2087W   75000       1 1800        V1    V1    0   
52171637EP 1141509341509300      155900      2087W   75000       1 1800        V1    V1    0   
5217162900 1241509341509300      160100      2087W   75000       1 1800        V1    V1    0   
5217161100 1341509341509300      160400      2087W   75000       1 1800        V1    V1    0   
5217164500 1441509341509300      160700      2087W   75000       1 1800        V1    V1    0   
5217440900 1541509341509300      161200      2087W   75000       1 1800        V1    V1    0   
5217443300 1641509341509300      161600      2087W   75000       1 1800        V1    V1    0   
52174441EP 1741509341509300      161900      2087W   75000       1 1800        V1    V1    0   
52174441C2 1841509341509300      162000      2087W   75000       1 1800        V1    V1    0   
52174441BV 1941509341509300      162100      2087W   75000       1 1800        V1    V1    0   
52174003EC 2041509341509300      163000      2087W   75000       1 1800        V1    V1    0   
52174003E3 2141509341509300      163100      2087W   75000       1 1800        V1    V1    0   
52174003P2 2241509341509300      163200      2087W   75000       1 1800        V1    1C    0   
52174003TR 23415093      00163700            2087W   75000       1 1800        1C FRA      0   
5024001662 16AGT4150920087155300R415093MA100000000000000000000000000000000000000000000000000000000000000000000000000000000000000000000000000000000000000000000100000010000000000000000000000000000000000000000000000000000000000000000000000000000000000000000000000000000000000000000000000000000000000000000000000000000000000000000000000000000000000000000000000000000000000000000000000000000000000000000000000000000000000000000000000000000000000000017163700174003TR2187FCC05          415090            
75    26YC22  117163700 23174003TR1517917                     
5217163700  1      41509200            15530002   87W      75000  1      1800        V2    0   
52171058E1  241509241509200      155800      2087W   75000       1 1800        V2    V2    0   
5241745100  341509241509200      160300      2087W   75000       1 1800        V2    V2    0   
52171009P5  441509241509200      160600      2087W   75000       1 1800        V2    FRC   0   
52171009TR  541509241509300160800      1645002287W87W75000 75000 111800  1800  FRC   FRC   0   
52171009P5  641509341509300      164700      2087W   75000       1 1800        FRCFRCV1    0   
5241745100  741509341509300      165200      2087W   75000       1 1800        V1    V1    0   
52171058E1  841509341509300      165600      2087W   75000       1 1800        V1    V1    0   
52171058E2  941509341509300      165600      2087W   75000       1 1800        V1    V1    0   
5217163700 1041509341509300      165800      2087W   75000       1 1800        V1    V1    0   
52171637EP 1141509341509300      165900      2087W   75000       1 1800        V1    V1    0   
5217162900 1241509341509300      170100      2087W   75000       1 1800        V1    V1    0   
5217161100 1341509341509300      170400      2087W   75000       1 1800        V1    V1    0   
5217164500 1441509341509300      170700      2087W   75000       1 1800        V1    V1    0   
5217440900 1541509341509300      171200      2087W   75000       1 1800        V1    V1    0   
5217443300 1641509341509300      171600      2087W   75000       1 1800        V1    V1    0   
52174441EP 1741509341509300      171900      2087W   75000       1 1800        V1    V1    0   
52174441C2 1841509341509300      172000      2087W   75000       1 1800        V1    V1    0   
52174441BV 1941509341509300      172000      2087W   75000       1 1800        V1    V1    0   
52174003EC 2041509341509300      173000      2087W   75000       1 1800        V1    V1    0   
52174003E3 2141509341509300      173000      2087W   75000       1 1800        V1    V1    0   
52174003P2 2241509341509300      173200      2087W   75000       1 1800        V1    1C    0   
52174003TR 23415093      00173600            2087W   75000       1 1800        1C FRA      0   
5024001662 17R4S4150920087150100R415093MA100000000000000000000000000000000000000000000000000000000000000000000000000000000000000000000000000000000000000000000000000000000000000000000000000000000000000000000000000000000000000000000000000000000000000000000000000000000000000000000000000000000000000000000000000000000000000000000000000000000000000000000000000000000000000100000000000000000000000000000000000000000000000000000000000000000000000000017163700174003TR2187FCC05          415090            
75    26YC22  117163700 23174003TR1517917                     
5217163700  1      41509200            15010002   87W      75000  1      1800        V2    0   
52171058E1  241509241509200      150600      2087W   75000       1 1800        V2    V2    0   
5241745100  341509241509200      151000      2087W   75000       1 1800        V2    V2    0   
52171009P5  441509241509200      151300      2087W   75000       1 1800        V2    FRC   0   
52171009TR  541509241509300151500      1545002287W87W75000 75000 111800  1800  FRC   FRC   0   
52171009P5  641509341509300      154700      2087W   75000       1 1800        FRCFRCV1    0   
5241745100  741509341509300      155300      2087W   75000       1 1800        V1    V1    0   
52171058E1  841509341509300      155600      2087W   75000       1 1800        V1    V1    0   
52171058E2  941509341509300      155700      2087W   75000       1 1800        V1    V1    0   
5217163700 1041509341509300      155900      2087W   75000       1 1800        V1    V1    0   
52171637EP 1141509341509300      155900      2087W   75000       1 1800        V1    V1    0   
5217162900 1241509341509300      160100      2087W   75000       1 1800        V1    V1    0   
5217161100 1341509341509300      160400      2087W   75000       1 1800        V1    V1    0   
5217164500 1441509341509300      160700      2087W   75000       1 1800        V1    V1    0   
5217440900 1541509341509300      161200      2087W   75000       1 1800        V1    V1    0   
5217443300 1641509341509300      161700      2087W   75000       1 1800        V1    V1    0   
52174441EP 1741509341509300      161900      2087W   75000       1 1800        V1    V1    0   
52174441C2 1841509341509300      162000      2087W   75000       1 1800        V1    V1    0   
52174441BV 1941509341509300      162100      2087W   75000       1 1800        V1    V1    0   
52174003EC 2041509341509300      163000      2087W   75000       1 1800        V1    V1    0   
52174003E3 2141509341509300      163100      2087W   75000       1 1800        V1    V1    0   
52174003P2 2241509341509300      163200      2087W   75000       1 1800        V1    1C    0   
52174003TR 23415093      00163700            2087W   75000       1 1800        1C FRA      0   
5024001662 18AGT4150920087113100R415093MA100000000000000000000000000000000000000000000000000000000000000000000000000000000000000000000000000000000000000000000000000000000000000000000100000010000000000000000000010000000000000000000000000000000000000000000000000000000000000000000000000000000000000000000000000000000000000000000000000000000000000000000000000000000000000000000000000000000000000000000000000000000000000000000000000000000000000000017163700174003TR2187FCC05          415090            
75    26ZNBU  117163700 23174003TR1517917                     
5217163700  1      41509200            11310002   87W      75000  1      1800        V2    0   
52171058E1  241509241509200      113600      2087W   75000       1 1800        V2    V2    0   
5241745100  341509241509200      114000      2087W   75000       1 1800        V2    V2    0   
52171009P5  441509241509200      114300      2087W   75000       1 1800        V2    FRC   0   
52171009TR  541509241509300114500      1215002287W87W75000 75000 111800  1800  FRC   FRC   0   
52171009P5  641509341509300      121700      2087W   75000       1 1800        FRCFRCV1    0   
5241745100  741509341509300      122200      2087W   75000       1 1800        V1    V1    0   
52171058E1  841509341509300      122600      2087W   75000       1 1800        V1    V1    0   
52171058E2  941509341509300      122600      2087W   75000       1 1800        V1    V1    0   
5217163700 1041509341509300      122800      2087W   75000       1 1800        V1    V1    0   
52171637EP 1141509341509300      122900      2087W   75000       1 1800        V1    V1    0   
5217162900 1241509341509300      123100      2087W   75000       1 1800        V1    V1    0   
5217161100 1341509341509300      123400      2087W   75000       1 1800        V1    V1    0   
5217164500 1441509341509300      123700      2087W   75000       1 1800        V1    V1    0   
5217440900 1541509341509300      124200      2087W   75000       1 1800        V1    V1    0   
5217443300 1641509341509300      124600      2087W   75000       1 1800        V1    V1    0   
52174441EP 1741509341509300      124900      2087W   75000       1 1800        V1    V1    0   
52174441C2 1841509341509300      125000      2087W   75000       1 1800        V1    V1    0   
52174441BV 1941509341509300      125000      2087W   75000       1 1800        V1    V1    0   
52174003EC 2041509341509300      130000      2087W   75000       1 1800        V1    V1    0   
52174003E3 2141509341509300      130100      2087W   75000       1 1800        V1    V1    0   
52174003P2 2241509341509300      130200      2087W   75000       1 1800        V1    1C    0   
52174003TR 23415093      00130700            2087W   75000       1 1800        1C FRA      0   
5024001663119SER 418800087200000R 41881ME1200000000000000000000000000000000000000000000000000000000000000000000000000000000000000000000000000000000000000000000000000000000011100000000000000000000000000000000000000000000000000000000000000000000000000000000000000000000000000000000000000000000000000000000000000000000000000000000000000000000000000000000000000000000000000000000000000000000000000000000000000000000000000000000000000000000000000000723320FP345314TR9140FCB05                            
75    26KKV7  1723320FP267345314TR1805519                     
52723320FP  1       4188000            20000001   40V      27000  1      1600        FP3   0   
52723320P1  2 41880 4188000      200200      1040V   27000       1 1600        FP36CIVB    0   
52723320BV  3 41880 4188000      200500      1040V   27000       1 1600        VB    VB    0   
52723320PA  4 41880 4188000      200630      1040V   27000       1 1600        VB    2BG   0   
