01MAS202412152025121350
5024001649  5SER4105000087124500R410501MA1000000000000000000000000000000000000000000000000000000000000000000000000000000000000000000000000000000000000000000000000000000000000000000000000000000000000000000000000000000000000000000000000000000000000000000000000000000000000000000000000000000000000000000000000000000000000000000000000000000000000000000000000000000000001000000000000000000000000000000000000000000000000000000000000000000000000000000345314TR286377002187FRR05                   410506   
75    26KW76  1345314TR 38286377001518188                     
52345314TR  1      41050000            12450002   87B      75000  1      1980        TRI   0   
523453141P  241050041050000      124600      2087B   75000       1 1980        TRITRIV2    0   
52345314AT  341050041050000      124800      2087B   75000       1 1980        V2    V2    0   
5234530600  441050041050000      125300      2087B   75000       1 1980        V2    V2    0   
52345009SI  541050041050100      125800      2087B   75000       1 1980        V2 V1 V1X   0   
52345009AM  641050141050100      125900      2087B   75000       1 1980        V1X   V1X   0   
52345009BV  741050141050100      130100      2087B   75000       1 1980        V1XV8 V1    0   
5234500918  841050141050100      130200      2087B   75000       1 1980        V1    V1    0   
5234520700  941050141050100      130500      2087B   75000       1 1980        V1    V1    0   
5234522300 1041050141050100      130900      2087B   75000       1 1980        V1    V1    0   
5234524900 1141050141050100      131100      2087B   75000       1 1980        V1    V1    0   
52241760BE 1241050141050100      131100      2087B   75000       1 1980        V1    V1    0   
52241760BH 1341050141050100      131200      2087B   75000       1 1980        V1    V1    0   
52241760AN 1441050141050100      131200      2087B   75000       1 1980        V1    V1    0   
52345256BV 1541050141050100      131500      2087B   75000       1 1980        V1    V1    0   
5228650000 1641050141050100      131900      2087B   75000       1 1980        V1    V1    0   
52286518BV 1741050141050100132400      1356002287B87B75000 75000 111980  1980  V1 V3 V1    0   
5228652600 1841050141050100      140300      2087B   75000       1 1980        V1    V1    0   
52286534BV 1941050141050100      140700      2087B   75000       1 1980        V1    V1    0   
52286039SM 2041050141050100      140800      2087B   75000       1 1980        V1 V1 RV    0   
52286039P1 2141050141050100      140800      2087B   75000       1 1980        RV RV AH    0   
5228603924 2241050141050100      141000      2087B   75000       1 1980        AH    VM    0   
52286039P2 2341050141050100      141100      2087B   75000       1 1980        VM VM M1    0   
52286005PZ 2441050141050100      141200      2087B   75000       1 1980        M1    M1    0   
52286005M1 2541050141050100      141400      2087B   75000       1 1980        M1    M1    0   
52286005LO 2641050141050100      141400      2087B   75000       1 1980        M1    V1    0   
52286005VR 2741050141050100      141600      2087B   75000       1 1980        V1    V1    0   
52286187BV 2841050141050100      141800      2087B   75000       1 1980        V1    V1    0   
5228619500 2941050141050100      142000      2087B   75000       1 1980        V1    V1    0   
52286286BV 3041050141050100      142100      2087B   75000       1 1980        V1    V1    0   
52286286SA 3141050141050100      142100      2087B   75000       1 1980        V1    V1    0   
52286286RS 3241050141050100      142100      2087B   75000       1 1980        V1    V1    0   
522862864M 3341050141050100      142200      2087B   75000       1 1980        V1    V1    0   
52286286RN 3441050141050100      142200      2087B   75000       1 1980        V1    V1    0   
5228627800 3541050141050100      142500      2087B   75000       1 1980        V1    V1    0   
5228614600 3641050141050100      143300      2087B   75000       1 1980        V1 VO VBA   0   
52286146SI 3741050141050100      143400      2087B   75000       1 1980        VBA   VBA   0   
5228637700 38410501      00150100            2087B   75000       1 1980        VBAVU       0   
5024001649  7SER4105000087124500R410501MA1000000000000000000000000000000000000000000000000000000000000000000000000000000000000000000000000000000000000000000000000000000000000000000000000000000000000000000000000000000000000000000000000000000000000000000010000001000000100000010000001000000100000010000000000000000000000000000000000000000000000000000000000000000000000000000000000000000000000000000000000000000000000000000000000000000000000000000345314TR286377002187FRR05                   410506   
75    26KW76  1345314TR 38286377001518188                     
52345314TR  1      41050000            12450002   87B      75000  1      1980        TRI   0   
523453141P  241050041050000      124600      2087B   75000       1 1980        TRITRIV2    0   
52345314AT  341050041050000      124800      2087B   75000       1 1980        V2    V2    0   
5234530600  441050041050000      125300      2087B   75000       1 1980        V2    V2    0   
52345009SI  541050041050100      125800      2087B   75000       1 1980        V2 V1 V1X   0   
52345009AM  641050141050100      125900      2087B   75000       1 1980        V1X   V1X   0   
52345009BV  741050141050100      130100      2087B   75000       1 1980        V1XV8 V1    0   
5234500918  841050141050100      130200      2087B   75000       1 1980        V1    V1    0   
5234520700  941050141050100      130500      2087B   75000       1 1980        V1    V1    0   
5234522300 1041050141050100      130900      2087B   75000       1 1980        V1    V1    0   
5234524900 1141050141050100      131100      2087B   75000       1 1980        V1    V1    0   
52241760BE 1241050141050100      131100      2087B   75000       1 1980        V1    V1    0   
52241760BH 1341050141050100      131200      2087B   75000       1 1980        V1    V1    0   
52241760AN 1441050141050100      131200      2087B   75000       1 1980        V1    V1    0   
52345256BV 1541050141050100      131500      2087B   75000       1 1980        V1    V1    0   
5228650000 1641050141050100      131900      2087B   75000       1 1980        V1    V1    0   
52286518BV 1741050141050100132400      1411002287B87B75000 75000 111980  1980  V1 V3 V1    0   
5228652600 1841050141050100      141800      2087B   75000       1 1980        V1    V1    0   
52286534BV 1941050141050100      142200      2087B   75000       1 1980        V1    V1    0   
52286039SM 2041050141050100      142300      2087B   75000       1 1980        V1 V1 RV    0   
52286039P1 2141050141050100      142300      2087B   75000       1 1980        RV RV AH    0   
5228603924 2241050141050100      142400      2087B   75000       1 1980        AH    VM    0   
52286039P2 2341050141050100      142500      2087B   75000       1 1980        VM VM M1    0   
52286005PZ 2441050141050100      142700      2087B   75000       1 1980        M1    M1    0   
52286005M1 2541050141050100      142800      2087B   75000       1 1980        M1    M1    0   
52286005LO 2641050141050100      142900      2087B   75000       1 1980        M1    V1    0   
52286005VR 2741050141050100      143000      2087B   75000       1 1980        V1    V1    0   
52286187BV 2841050141050100      143200      2087B   75000       1 1980        V1    V1    0   
5228619500 2941050141050100      143400      2087B   75000       1 1980        V1    V1    0   
52286286BV 3041050141050100      143500      2087B   75000       1 1980        V1    V1    0   
52286286SA 3141050141050100      143500      2087B   75000       1 1980        V1    V1    0   
52286286RS 3241050141050100      143500      2087B   75000       1 1980        V1    V1    0   
522862864M 3341050141050100      143600      2087B   75000       1 1980        V1    V1    0   
52286286RN 3441050141050100      143600      2087B   75000       1 1980        V1    V1    0   
5228627800 3541050141050100      143800      2087B   75000       1 1980        V1    V1    0   
5228614600 3641050141050100      144600      2087B   75000       1 1980        V1 VO VBA   0   
52286146SI 3741050141050100      144700      2087B   75000       1 1980        VBA   VBA   0   
5228637700 38410501      00151500            2087B   75000       1 1980        VBAVU       0   
5024001649  8SER4105000087124000R410501MA1000000001000000000000000000001000000100000010000001000000100000010000000000000100000000000001000000100000010000001000000100000010000001000000100000010000001000000100000010000001000000100000000000000000000000000000000000000000000000000000000000000000000000000001000000100000010000001000000100000010000001000000100000010000000000000100000010000001000000100000010000001000000000000000000000000000000000000345314TR286377002187FRR05                   410506   
75    26KW76  1345314TR 38286377001518188                     
52345314TR  1      41050000            12400002   87B      75000  1      1980        TRI   0   
523453141P  241050041050000      124100      2087B   75000       1 1980        TRITRIV2    0   
52345314AT  341050041050000      124300      2087B   75000       1 1980        V2    V2    0   
5234530600  441050041050000      124700      2087B   75000       1 1980        V2    V2    0   
52345009SI  541050041050100      125300      2087B   75000       1 1980        V2 V1 V1X   0   
52345009AM  641050141050100      125400      2087B   75000       1 1980        V1X   V1X   0   
52345009BV  741050141050100      125500      2087B   75000       1 1980        V1XV8 V1    0   
72V8    0000001000000000000000000001000000100000010000001000000100000010000000000000100000000000001000000100000010000001000000100000010000001000000100000010000001000000100000010000001000000100000000000000000000000000000000000000000000000000000000000000000000000000001000000100000010000001000000100000010000001000000100000010000000000000100000010000001000000100000010000001000000000000000000000000000000000000                                                                                                                                                                                                                                                                                                                                                                                                                1500000054520241219192323
74AFRET                           20 100000010000000000000000000010000001000000100000010000001000000100000000000001000000000000010000001000000100000010000001000000100000010000001000000100000010000001000000100000010000001000000000000000000000000000000000000000000000000000000000000000000000000000010000001000000100000010000001000000100000010000001000000100000000000001000000100000010000001000000100000010000000000000000000000000000000000001500000054520250314192847
5234500918  841050141050100      125700      2087B   75000       1 1980        V1    V1    0   
5234520700  941050141050100      130000      2087B   75000       1 1980        V1    V1    0   
5234522300 1041050141050100      130300      2087B   75000       1 1980        V1    V1    0   
5234524900 1141050141050100      130500      2087B   75000       1 1980        V1    V1    0   
52241760BE 1241050141050100      130600      2087B   75000       1 1980        V1    V1    0   
52241760BH 1341050141050100      130700      2087B   75000       1 1980        V1    V1    0   
52241760AN 1441050141050100      130700      2087B   75000       1 1980        V1    V1    0   
52345256BV 1541050141050100      130900      2087B   75000       1 1980        V1    V1    0   
5228650000 1641050141050100      131300      2087B   75000       1 1980        V1    V1    0   
52286518BV 1741050141050100131800      1411002287B87B75000 75000 111980  1980  V1 V3 V1    0   
72V3    0000000000000000000000000000000000000000000000000000000000000010000000000000100000000000001000000100000010000001000000100000010000001000000100000010000001000000100000010000001000000100000000000000000000000000000000000000000000000000000000000000000000000000001000000100000010000001000000100000010000001000000100000010000000000000100000010000001000000100000010000001000000000000000000000000000000000000                                                                                                                                                                                                                                                                                                                                                                                                                1500000054520250214192401
74AFRET                           20 100000000000000000000000000000000000000000000000000000000000000100000000000001000000000000010000001000000100000010000001000000100000010000001000000100000010000001000000100000010000001000000000000000000000000000000000000000000000000000000000000000000000000000010000001000000100000010000001000000100000010000001000000100000000000001000000100000010000001000000100000010000000000000000000000000000000000001500000054520250314192847
5228652600 1841050141050100      141800      2087B   75000       1 1980        V1    V1    0   
52286534BV 1941050141050100      142200      2087B   75000       1 1980        V1    V1    0   
52286039SM 2041050141050100      142300      2087B   75000       1 1980        V1 V1 RV    0   
52286039P1 2141050141050100      142300      2087B   75000       1 1980        RV RV AH    0   
5228603924 2241050141050100      142400      2087B   75000       1 1980        AH    VM    0   
52286039P2 2341050141050100      142500      2087B   75000       1 1980        VM VM M1    0   
52286005PZ 2441050141050100      142700      2087B   75000       1 1980        M1    M1    0   
52286005M1 2541050141050100      142800      2087B   75000       1 1980        M1    M1    0   
52286005LO 2641050141050100      142900      2087B   75000       1 1980        M1    V1    0   
52286005VR 2741050141050100      143000      2087B   75000       1 1980        V1    V1    0   
52286187BV 2841050141050100      143200      2087B   75000       1 1980        V1    V1    0   
5228619500 2941050141050100      143400      2087B   75000       1 1980        V1    V1    0   
52286286BV 3041050141050100      143500      2087B   75000       1 1980        V1    V1    0   
52286286SA 3141050141050100      143500      2087B   75000       1 1980        V1    V1    0   
52286286RS 3241050141050100      143500      2087B   75000       1 1980        V1    V1    0   
522862864M 3341050141050100      143600      2087B   75000       1 1980        V1    V1    0   
52286286RN 3441050141050100      143600      2087B   75000       1 1980        V1    V1    0   
5228627800 3541050141050100      143800      2087B   75000       1 1980        V1    V1    0   
5228614600 3641050141050100      144600      2087B   75000       1 1980        V1 VO VBA   0   
52286146SI 3741050141050100      144700      2087B   75000       1 1980        VBA   VBA   0   
5228637700 38410501      00151500            2087B   75000       1 1980        VBAVU       0   
5024001649 15R4S4105000087120000R410501MA1000000000000000000000000000000000000000000000000000000000000000000000000000000000000000000000000000000000000000000000000000000000000000000000000000000000000000000000000000000000000000000000010000001000000100000000000000000000000000000000000000000000000000000000000000000000000000000000000000000000000000000000000000000000000000000000000000000000000000000000000000000000000000000000000000000000000000000345314TR286377002187FRR05                   410506   
75    26XWGU  1345314TR 50286377001518188                     
52345314TR  1      41050000            12000001   87B      75000  1      1980        TRI   0   
523453141P  241050041050000      120030      1087B   75000       1 1980        TRITRIV2    0   
52345314AT  341050041050000      120300      1087B   75000       1 1980        V2    V2    0   
5234530600  441050041050000      120730      1087B   75000       1 1980        V2    V2    0   
52345009SI  541050041050000      121230      1087B   75000       1 1980        V2    V2R   0   
52345009SE  641050041050000      121400      1087B   75000       1 1980        V2RV2RV2    0   
5234511600  741050041050000      121800      1087B   75000       1 1980        V2    V2    0   
5234510800  841050041050000      122030      1087B   75000       1 1980        V2    V2    0   
5234211300  941050041050000      122300      1087B   75000       1 1980        V2    V2    0   
5234209700 1041050041050000      122600      1087B   75000       1 1980        V2    V2    0   
5234208900 1141050041050000      123000      1087B   75000       1 1980        V2    V2    0   
52342014RE 1241050041050000      123400      1087B   75000       1 1980        V2 RE1RN1   0   
52342014B1 1341050041050000      123530      1087B   75000       1 1980        RN1   RN1   0   
52342014RN 1441050041050100      123600      1087B   75000       1 1980        RN1RN1V1    0   
5234259200 1541050141050100      124330      1087B   75000       1 1980        V1    V1    0   
5234252700 1641050141050100      124530      1087B   75000       1 1980        V1    V1    0   
5234257600 1741050141050100      124700      1087B   75000       1 1980        V1    V1    0   
5234258400 1841050141050100      125000      1087B   75000       1 1980        V1    V1    0   
52345025BA 1941050141050100      125000      1087B   75000       1 1980        V1 V1 VVS   0   
52345025VS 2041050141050100      125130      1087B   75000       1 1980        VVS   VVS   0   
52345025BS 2141050141050100      125200      1087B   75000       1 1980        VVS   V1    0   
52345025BE 2241050141050100      125330      1087B   75000       1 1980        V1    V1    0   
5234521500 2341050141050100      125330      1087B   75000       1 1980        V1    V1    0   
5234523100 2441050141050100      125600      1087B   75000       1 1980        V1    V1    0   
52345264P1 2541050141050100      125800      1087B   75000       1 1980        V1    V1    0   
52345264BV 2641050141050100      125900      1087B   75000       1 1980        V1    V1    0   
5234527200 2741050141050100      130200      1087B   75000       1 1980        V1    V1    0   
5234528000 2841050141050100      130330      1087B   75000       1 1980        V1    V1    0   
52286435BV 2941050141050000      130830      1087B   75000       1 1980        V1 VA2V2    0   
5228642700 3041050041050000      131030      1087B   75000       1 1980        V2    V2    0   
5228641900 3141050041050000      131200      1087B   75000       1 1980        V2    V2    0   
5228640100 3241050041050000      131430      1087B   75000       1 1980        V2    V2    0   
52286096BT 3341050041050000      131530      1087B   75000       1 1980        V2    V1R   0   
52286096BR 3441050041050100      131630      1087B   75000       1 1980        V1R   V1    0   
52286096LE 3541050141050100      131630      1087B   75000       1 1980        V1    V1    0   
5228632800 3641050141050100      131700      1087B   75000       1 1980        V1    V1    0   
52286013P1 3741050141050100      131800      1087B   75000       1 1980        V1    V1    0   
5228631000 3841050141050100      131830      1087B   75000       1 1980        V1    V1    0   
5228713600 3941050141050100      132000      1087B   75000       1 1980        V1    V1    0   
52286013P2 4041050141050100      132030      1087B   75000       1 1980        V1    V1    0   
5228629400 4141050141050100      132130      1087B   75000       1 1980        V1    V1    0   
52286294CV 4241050141050100      132130      1087B   75000       1 1980        V1    V1    0   
5228735900 4341050141050100      132330      1087B   75000       1 1980        V1 V1 V1R   0   
52286286BL 4441050141050100      132330      1087B   75000       1 1980        V1RV1RV1    0   
522862864M 4541050141050100      132430      1087B   75000       1 1980        V1    V1    0   
52286286RN 4641050141050100      132500      1087B   75000       1 1980        V1    V1    0   
5228627800 4741050141050100      132800      1087B   75000       1 1980        V1    V1    0   
5228614600 4841050141050100      133530      1087B   75000       1 1980        V1 VO VBA   0   
52286146SI 4941050141050100      133630      1087B   75000       1 1980        VBA   VBA   0   
5228637700 50410501      00140300            1087B   75000       1 1980        VBAVU       0   
5024001650  5SER4105020087164000R410503MA1000000000000000000000000000000000000000000000000000000000000000000000000000000000000000000000000000000000000000000000000000000000000000000000000000000000000000000000001000000000010000000000000000000000000000000000100000000000000000000000000000001000000000000000000000000000000000000000000000000000000000000000000000000000000000000000100000000000000000000000000000000000000000000000000000000000000000000345314TR286377002187FRR05                   410522   
75    26KXBJ  1345314TR 51286377001518179                     
52345314TR  1      41050200            16400002   87B      75000  2      3960        TRI   0   
523453141P  241050241050200      164100      2087B   75000       2 3960        TRITRIV2    0   
52345314AT  341050241050200      164300      2087B   75000       2 3960        V2    V2    0   
5234530600  441050241050200      164800      2087B   75000       2 3960        V2    V2    0   
52345009SI  541050241050300      165500      2087B   75000       2 3960        V2 V1 V1X   0   
52345009AM  641050341050300      165600      2087B   75000       2 3960        V1X   V1X   0   
52345009BV  741050341050300      170000      2087B   75000       2 3960        V1XV2RV1    0   
5234500918  841050341050300      170100      2087B   75000       2 3960        V1    V1    0   
5234520700  941050341050300      170500      2087B   75000       2 3960        V1    V1    0   
5234522300 1041050341050300      171000      2087B   75000       2 3960        V1    V1    0   
5234524900 1141050341050300      171300      2087B   75000       2 3960        V1    V1    0   
52241760BE 1241050341050300      171300      2087B   75000       2 3960        V1    V2R   0   
52241760MR 1341050341050200      171400      2087B   75000       2 3960        V2RV2RV2    0   
52241760BO 1441050241050200      171500      2087B   75000       2 3960        V2    V2    0   
52241760BD 1541050241050200      171600      2087B   75000       2 3960        V2    V2    0   
5234516500 1641050241050200      171700      2087B   75000       2 3960        V2    V2    0   
5234515700 1741050241050200      172000      2087B   75000       2 3960        V2    V2    0   
5234514000 1841050241050200      172300      2087B   75000       2 3960        V2    V2    0   
52345140P2 1941050241050200      172300      2087B   75000       2 3960        V2    V2    0   
52345140P1 2041050241050200      172300      2087B   75000       2 3960        V2    V2    0   
5234513200 2141050241050200      172400      2087B   75000       2 3960        V2    V2    0   
52345124BV 2241050241050200      172600      2087B   75000       2 3960        V2    RAC   0   
52345025BE 2341050241050300      172700      2087B   75000       2 3960        RACRACV2    0   
5234521500 2441050341050300      172700      2087B   75000       2 3960        V2    V1    0   
5234523100 2541050341050300      172900      2087B   75000       2 3960        V1    V1    0   
52345264P1 2641050341050300      173100      2087B   75000       2 3960        V1    V1    0   
52345264BV 2741050341050300      173300      2087B   75000       2 3960        V1    V1    0   
5234527200 2841050341050300      173500      2087B   75000       2 3960        V1    V1    0   
5234528000 2941050341050300      173600      2087B   75000       2 3960        V1    V1    0   
52286435BV 3041050341050200      174100      2087B   75000       2 3960        V1 VA2V2    0   
5228642700 3141050241050200      174300      2087B   75000       2 3960        V2    V2    0   
5228641900 3241050241050200      174400      2087B   75000       2 3960        V2    V2    0   
5228640100 3341050241050200      174700      2087B   75000       2 3960        V2    V2    0   
52286096BT 3441050241050200      174800      2087B   75000       2 3960        V2    V1R   0   
52286096BR 3541050241050300      174900      2087B   75000       2 3960        V1R   V1    0   
52286096LE 3641050341050300      174900      2087B   75000       2 3960        V1    V1    0   
5228632800 3741050341050300      174900      2087B   75000       2 3960        V1    V1    0   
52286013P1 3841050341050300      175100      2087B   75000       2 3960        V1    V1    0   
5228631000 3941050341050300      175100      2087B   75000       2 3960        V1    V1    0   
5228713600 4041050341050300      175400      2087B   75000       2 3960        V1    V1    0   
52286013P2 4141050341050300      175500      2087B   75000       2 3960        V1    V1    0   
5228629400 4241050341050300      175600      2087B   75000       2 3960        V1    V1    0   
52286294CV 4341050341050300      175600      2087B   75000       2 3960        V1    V1    0   
5228735900 4441050341050300      175800      2087B   75000       2 3960        V1 V1 V1R   0   
52286286BL 4541050341050300      175800      2087B   75000       2 3960        V1RV1RV1    0   
522862864M 4641050341050300      180000      2087B   75000       2 3960        V1    V1    0   
52286286RN 4741050341050300      180000      2087B   75000       2 3960        V1    V1    0   
5228627800 4841050341050300      180400      2087B   75000       2 3960        V1    V1    0   
5228614600 4941050341050300      181200      2087B   75000       2 3960        V1 VO VBA   0   
52286146SI 5041050341050300      181300      2087B   75000       2 3960        VBA   VBA   0   
5228637700 51410503      00184000            2087B   75000       2 3960        VBAVU       0   
5024001650  7SER4105020087160900R410503MA1000111110000000000000100111110011111001111100111110011111001111100111110011111001111100111110011101001111100111110011111001111100011110011101001110100111110011111001110100000000000000000000000000000000000000000000000000000000000000000000000000000000000000111110011111001111100111110011111001111100111110011111001111100111110011111001011100111110011111001111100111110000000000000000000000000000000000000345314TR286377002187FRR05                   410522   
75    26KXBJ  1345314TR 51286377001518179                     
52345314TR  1      41050200            16090002   87B      75000  2      3960        TRI   0   
523453141P  241050241050200      161000      2087B   75000       2 3960        TRITRIV2    0   
52345314AT  341050241050200      161200      2087B   75000       2 3960        V2    V2    0   
5234530600  441050241050200      161700      2087B   75000       2 3960        V2    V2    0   
52345009SI  541050241050300      162300      2087B   75000       2 3960        V2 V1 V1X   0   
52345009AM  641050341050300      162400      2087B   75000       2 3960        V1X   V1X   0   
52345009BV  741050341050300      162500      2087B   75000       2 3960        V1XV8 V1    0   
72V8    0111110000000000000100111110011111001111100111110011111001111100111110011111001111100111110011101001111100111110011111001111100011110011101001110100111110011111001110100000000000000000000000000000000000000000000000000000000000000000000000000000000000000111110011111001111100111110011111001111100111110011111001111100111110011111001011100111110011111001111100111110000000000000000000000000000000000000                                                                                                                                                                                                                                                                                                                                                                                                                1500000054520250219201443
74AFRET                           20 101111100000000000001001111100111110011111001111100111110011111001111100111110011111001111100111010011111001111100111110011111000111100111010011101001111100111110011101000000000000000000000000000000000000000000000000000000000000000000000000000000000000001111100111110011111001111100111110011111001111100111110011111001111100111110010111001111100111110011111001111100000000000000000000000000000000000001500000054520250317191930
5234500918  841050341050300      162800      2087B   75000       2 3960        V1    V1    0   
5234520700  941050341050300      163200      2087B   75000       2 3960        V1    V1    0   
5234522300 1041050341050300      163700      2087B   75000       2 3960        V1    V1    0   
5234524900 1141050341050300      164000      2087B   75000       2 3960        V1    V1    0   
52241760BE 1241050341050300      164000      2087B   75000       2 3960        V1    V2R   0   
52241760MR 1341050341050200      164100      2087B   75000       2 3960        V2RV2RV2    0   
52241760BO 1441050241050200      164200      2087B   75000       2 3960        V2    V2    0   
52241760BD 1541050241050200      164300      2087B   75000       2 3960        V2    V2    0   
5234516500 1641050241050200      164400      2087B   75000       2 3960        V2    V2    0   
5234515700 1741050241050200      164900      2087B   75000       2 3960        V2    V2    0   
5234514000 1841050241050200      165300      2087B   75000       2 3960        V2    V2    0   
52345140P2 1941050241050200      165400      2087B   75000       2 3960        V2    V2    0   
52345140P1 2041050241050200      165500      2087B   75000       2 3960        V2    V2    0   
5234513200 2141050241050200      165600      2087B   75000       2 3960        V2    V2    0   
52345124BV 2241050241050200      165900      2087B   75000       2 3960        V2    RAC   0   
52345025BE 2341050241050300      170100      2087B   75000       2 3960        RACRACV2    0   
5234521500 2441050341050300      170100      2087B   75000       2 3960        V2    V1    0   
5234523100 2541050341050300      170400      2087B   75000       2 3960        V1    V1    0   
52345264P1 2641050341050300      170700      2087B   75000       2 3960        V1    V1    0   
52345264BV 2741050341050300      170900      2087B   75000       2 3960        V1    V1    0   
5234527200 2841050341050300      171300      2087B   75000       2 3960        V1    V1    0   
5234528000 2941050341050300      171500      2087B   75000       2 3960        V1    V1    0   
52286435BV 3041050341050200      172100      2087B   75000       2 3960        V1 VA2V2    0   
5228642700 3141050241050200      172300      2087B   75000       2 3960        V2    V2    0   
5228641900 3241050241050200      172500      2087B   75000       2 3960        V2    V2    0   
5228640100 3341050241050200      172900      2087B   75000       2 3960        V2    V2    0   
52286096BT 3441050241050200      173000      2087B   75000       2 3960        V2    V1R   0   
52286096BR 3541050241050300      173100      2087B   75000       2 3960        V1R   V1    0   
52286096LE 3641050341050300      173100      2087B   75000       2 3960        V1    V1    0   
5228632800 3741050341050300      173200      2087B   75000       2 3960        V1    V1    0   
52286013P1 3841050341050300      173300      2087B   75000       2 3960        V1    V1    0   
5228631000 3941050341050300      173400      2087B   75000       2 3960        V1    V1    0   
5228713600 4041050341050300173600      1745002287B87B75000 75000 223960  3960  V1    V1    0   
52286013P2 4141050341050300      174700      2087B   75000       2 3960        V1    V1    0   
5228629400 4241050341050300      174800      2087B   75000       2 3960        V1    V1    0   
52286294CV 4341050341050300      174800      2087B   75000       2 3960        V1    V1    0   
5228735900 4441050341050300      175200      2087B   75000       2 3960        V1 V1 V1R   0   
52286286BL 4541050341050300      175200      2087B   75000       2 3960        V1RV1RV1    0   
522862864M 4641050341050300      175300      2087B   75000       2 3960        V1    V1    0   
52286286RN 4741050341050300      175300      2087B   75000       2 3960        V1    V1    0   
5228627800 4841050341050300      175700      2087B   75000       2 3960        V1    V1    0   
5228614600 4941050341050300      180500      2087B   75000       2 3960        V1 VO VBA   0   
52286146SI 5041050341050300      180600      2087B   75000       2 3960        VBA   VBA   0   
5228637700 51410503      00183300            2087B   75000       2 3960        VBAVU       0   
5024001650  8SER4105020087161000R410503MA1000000000000000000000000000000000000000000000000000000000000000000000000000000000000000000000000000000000000000000000000000000000000000000000000000000000000000000000000000000000000000000000000000000000000001111100011110011111001111100111110011110001111100000000000000000000000000000000000000000000000000000000000000000000000000000000000000000000000000000000000000000000000000000000000000000000000000000345314TR286377002187FRR05                   410522   
75    26KXBJ  1345314TR 51286377001518179                     
52345314TR  1      41050200            16100002   87B      75000  2      3960        TRI   0   
523453141P  241050241050200      161100      2087B   75000       2 3960        TRITRIV2    0   
52345314AT  341050241050200      161300      2087B   75000       2 3960        V2    V2    0   
5234530600  441050241050200      161800      2087B   75000       2 3960        V2    V2    0   
52345009SI  541050241050300      162500      2087B   75000       2 3960        V2 V1 V1X   0   
52345009AM  641050341050300      162600      2087B   75000       2 3960        V1X   V1X   0   
52345009BV  741050341050300      162700      2087B   75000       2 3960        V1XV8 V1    0   
5234500918  841050341050300      162900      2087B   75000       2 3960        V1    V1    0   
5234520700  941050341050300      163300      2087B   75000       2 3960        V1    V1    0   
5234522300 1041050341050300      163700      2087B   75000       2 3960        V1    V1    0   
5234524900 1141050341050300      164000      2087B   75000       2 3960        V1    V1    0   
52241760BE 1241050341050300      164000      2087B   75000       2 3960        V1    V2R   0   
52241760MR 1341050341050200      164100      2087B   75000       2 3960        V2RV2RV2    0   
52241760BO 1441050241050200      164200      2087B   75000       2 3960        V2    V2    0   
52241760BD 1541050241050200      164300      2087B   75000       2 3960        V2    V2    0   
5234516500 1641050241050200      164400      2087B   75000       2 3960        V2    V2    0   
5234515700 1741050241050200      164800      2087B   75000       2 3960        V2    V2    0   
5234514000 1841050241050200      165300      2087B   75000       2 3960        V2    V2    0   
52345140P2 1941050241050200      165300      2087B   75000       2 3960        V2    V2    0   
52345140P1 2041050241050200      165500      2087B   75000       2 3960        V2    V2    0   
5234513200 2141050241050200      165600      2087B   75000       2 3960        V2    V2    0   
52345124BV 2241050241050200      165900      2087B   75000       2 3960        V2    RAC   0   
52345025BE 2341050241050300      170100      2087B   75000       2 3960        RACRACV2    0   
5234521500 2441050341050300      170100      2087B   75000       2 3960        V2    V1    0   
5234523100 2541050341050300      170400      2087B   75000       2 3960        V1    V1    0   
52345264P1 2641050341050300      170700      2087B   75000       2 3960        V1    V1    0   
52345264BV 2741050341050300      170900      2087B   75000       2 3960        V1    V1    0   
5234527200 2841050341050300      171300      2087B   75000       2 3960        V1    V1    0   
5234528000 2941050341050300      171500      2087B   75000       2 3960        V1    V1    0   
52286435BV 3041050341050200      172100      2087B   75000       2 3960        V1 VA2V2    0   
5228642700 3141050241050200      172300      2087B   75000       2 3960        V2    V2    0   
5228641900 3241050241050200      172500      2087B   75000       2 3960        V2    V2    0   
5228640100 3341050241050200      172900      2087B   75000       2 3960        V2    V2    0   
52286096BT 3441050241050200      173000      2087B   75000       2 3960        V2    V1R   0   
52286096BR 3541050241050300      173100      2087B   75000       2 3960        V1R   V1    0   
52286096LE 3641050341050300      173100      2087B   75000       2 3960        V1    V1    0   
5228632800 3741050341050300      173200      2087B   75000       2 3960        V1    V1    0   
52286013P1 3841050341050300      173300      2087B   75000       2 3960        V1    V1    0   
5228631000 3941050341050300      173400      2087B   75000       2 3960        V1    V1    0   
5228713600 4041050341050300173600      1745002287B87B75000 75000 223960  3960  V1    V1    0   
52286013P2 4141050341050300      174700      2087B   75000       2 3960        V1    V1    0   
5228629400 4241050341050300      174800      2087B   75000       2 3960        V1    V1    0   
52286294CV 4341050341050300      174800      2087B   75000       2 3960        V1    V1    0   
5228735900 4441050341050300      175200      2087B   75000       2 3960        V1 V1 V1R   0   
52286286BL 4541050341050300      175200      2087B   75000       2 3960        V1RV1RV1    0   
522862864M 4641050341050300      175300      2087B   75000       2 3960        V1    V1    0   
52286286RN 4741050341050300      175300      2087B   75000       2 3960        V1    V1    0   
5228627800 4841050341050300      175700      2087B   75000       2 3960        V1    V1    0   
5228614600 4941050341050300      180500      2087B   75000       2 3960        V1 VO VBA   0   
52286146SI 5041050341050300      180600      2087B   75000       2 3960        VBA   VBA   0   
5228637700 51410503      00183300            2087B   75000       2 3960        VBAVU       0   
5024001650  9R4S4105020087160900R410503MA1000000000000000000000000000000000000000000000000000000000000000000000000000000000000000000000000000000000000000000000000000000000000000000000000000000000000000000000000000111110001111001111100111110011111000000000000000000000000000000000000000000000000000000000000000000000000000000000000000000000000000000000000000000000000000000000000000000000000000000000000000000000000000000000000000000000000000000345314TR286377002187FRR05                   410522   
75    26KXBJ  1345314TR 51286377001518179                     
52345314TR  1      41050200            16090002   87B      75000  2      3960        TRI   0   
523453141P  241050241050200      161000      2087B   75000       2 3960        TRITRIV2    0   
52345314AT  341050241050200      161300      2087B   75000       2 3960        V2    V2    0   
5234530600  441050241050200      161800      2087B   75000       2 3960        V2    V2    0   
52345009SI  541050241050300      162400      2087B   75000       2 3960        V2 V1 V1X   0   
52345009AM  641050341050300      162500      2087B   75000       2 3960        V1X   V1X   0   
52345009BV  741050341050300      162600      2087B   75000       2 3960        V1XV8 V1    0   
5234500918  841050341050300      162900      2087B   75000       2 3960        V1    V1    0   
5234520700  941050341050300      163300      2087B   75000       2 3960        V1    V1    0   
5234522300 1041050341050300      163700      2087B   75000       2 3960        V1    V1    0   
5234524900 1141050341050300      164000      2087B   75000       2 3960        V1    V1    0   
52241760BE 1241050341050300      164000      2087B   75000       2 3960        V1    V2R   0   
52241760MR 1341050341050200      164100      2087B   75000       2 3960        V2RV2RV2    0   
52241760BO 1441050241050200      164200      2087B   75000       2 3960        V2    V2    0   
52241760BD 1541050241050200      164300      2087B   75000       2 3960        V2    V2    0   
5234516500 1641050241050200      164400      2087B   75000       2 3960        V2    V2    0   
5234515700 1741050241050200      164900      2087B   75000       2 3960        V2    V2    0   
5234514000 1841050241050200      165300      2087B   75000       2 3960        V2    V2    0   
52345140P2 1941050241050200      165400      2087B   75000       2 3960        V2    V2    0   
52345140P1 2041050241050200      165500      2087B   75000       2 3960        V2    V2    0   
5234513200 2141050241050200      165600      2087B   75000       2 3960        V2    V2    0   
52345124BV 2241050241050200      165900      2087B   75000       2 3960        V2    RAC   0   
52345025BE 2341050241050300      170100      2087B   75000       2 3960        RACRACV2    0   
5234521500 2441050341050300      170100      2087B   75000       2 3960        V2    V1    0   
5234523100 2541050341050300      170400      2087B   75000       2 3960        V1    V1    0   
52345264P1 2641050341050300      170700      2087B   75000       2 3960        V1    V1    0   
52345264BV 2741050341050300      170900      2087B   75000       2 3960        V1    V1    0   
5234527200 2841050341050300      171300      2087B   75000       2 3960        V1    V1    0   
5234528000 2941050341050300      171500      2087B   75000       2 3960        V1    V1    0   
52286435BV 3041050341050200      172100      2087B   75000       2 3960        V1 VA2V2    0   
5228642700 3141050241050200      172300      2087B   75000       2 3960        V2    V2    0   
5228641900 3241050241050200      172500      2087B   75000       2 3960        V2    V2    0   
5228640100 3341050241050200      172900      2087B   75000       2 3960        V2    V2    0   
52286096BT 3441050241050200      173000      2087B   75000       2 3960        V2    V1R   0   
52286096BR 3541050241050300      173100      2087B   75000       2 3960        V1R   V1    0   
52286096LE 3641050341050300      173100      2087B   75000       2 3960        V1    V1    0   
5228632800 3741050341050300      173200      2087B   75000       2 3960        V1    V1    0   
52286013P1 3841050341050300      173300      2087B   75000       2 3960        V1    V1    0   
5228631000 3941050341050300      173400      2087B   75000       2 3960        V1    V1    0   
5228713600 4041050341050300173600      1745002287B87B75000 75000 223960  3960  V1    V1    0   
52286013P2 4141050341050300      174700      2087B   75000       2 3960        V1    V1    0   
5228629400 4241050341050300      174800      2087B   75000       2 3960        V1    V1    0   
52286294CV 4341050341050300      174800      2087B   75000       2 3960        V1    V1    0   
5228735900 4441050341050300      175200      2087B   75000       2 3960        V1 V1 V1R   0   
52286286BL 4541050341050300      175200      2087B   75000       2 3960        V1RV1RV1    0   
522862864M 4641050341050300      175300      2087B   75000       2 3960        V1    V1    0   
52286286RN 4741050341050300      175300      2087B   75000       2 3960        V1    V1    0   
5228627800 4841050341050300      175700      2087B   75000       2 3960        V1    V1    0   
5228614600 4941050341050300      180500      2087B   75000       2 3960        V1 VO VBA   0   
52286146SI 5041050341050300      180600      2087B   75000       2 3960        VBA   VBA   0   
5228637700 51410503      00183300            2087B   75000       2 3960        VBAVU       0   
5024001650 10R4S4105020087164000R410503MA1000000000000000000000000000000000000000000000000000000000000000000000000000000000000000000000000000000000000000000000000000000000100000000010000001000000000000000000000000000000000000000000000000000000000000000000000000000000000000000000000000000000000000000000000000000000000000000000000000000000000000000000000000000000000000000000000000000000000000000000000000000000000000000000000000000000000000000345314TR286377002187FRR05                   410522   
75    26KXBJ  1345314TR 51286377001518179                     
52345314TR  1      41050200            16400002   87B      75000  2      3960        TRI   0   
523453141P  241050241050200      164100      2087B   75000       2 3960        TRITRIV2    0   
52345314AT  341050241050200      164300      2087B   75000       2 3960        V2    V2    0   
5234530600  441050241050200      164800      2087B   75000       2 3960        V2    V2    0   
52345009SI  541050241050300      165500      2087B   75000       2 3960        V2 V1 V1X   0   
52345009AM  641050341050300      165600      2087B   75000       2 3960        V1X   V1X   0   
52345009BV  741050341050300      170000      2087B   75000       2 3960        V1XV2RV1    0   
5234500918  841050341050300      170100      2087B   75000       2 3960        V1    V1    0   
5234520700  941050341050300      170600      2087B   75000       2 3960        V1    V1    0   
5234522300 1041050341050300      171000      2087B   75000       2 3960        V1    V1    0   
5234524900 1141050341050300      171400      2087B   75000       2 3960        V1    V1    0   
52241760BE 1241050341050300      171400      2087B   75000       2 3960        V1    V2R   0   
52241760MR 1341050341050200      171500      2087B   75000       2 3960        V2RV2RV2    0   
52241760BO 1441050241050200      171600      2087B   75000       2 3960        V2    V2    0   
52241760BD 1541050241050200      171700      2087B   75000       2 3960        V2    V2    0   
5234516500 1641050241050200      171800      2087B   75000       2 3960        V2    V2    0   
5234515700 1741050241050200      172100      2087B   75000       2 3960        V2    V2    0   
5234514000 1841050241050200      172400      2087B   75000       2 3960        V2    V2    0   
52345140P2 1941050241050200      172400      2087B   75000       2 3960        V2    V2    0   
52345140P1 2041050241050200      172500      2087B   75000       2 3960        V2    V2    0   
5234513200 2141050241050200      172600      2087B   75000       2 3960        V2    V2    0   
52345124BV 2241050241050200      172700      2087B   75000       2 3960        V2    RAC   0   
52345025BE 2341050241050300      172900      2087B   75000       2 3960        RACRACV2    0   
5234521500 2441050341050300      172900      2087B   75000       2 3960        V2    V1    0   
5234523100 2541050341050300      173100      2087B   75000       2 3960        V1    V1    0   
52345264P1 2641050341050300      173300      2087B   75000       2 3960        V1    V1    0   
52345264BV 2741050341050300      173400      2087B   75000       2 3960        V1    V1    0   
5234527200 2841050341050300      173600      2087B   75000       2 3960        V1    V1    0   
5234528000 2941050341050300      173800      2087B   75000       2 3960        V1    V1    0   
52286435BV 3041050341050200      174200      2087B   75000       2 3960        V1 VA2V2    0   
5228642700 3141050241050200      174400      2087B   75000       2 3960        V2    V2    0   
5228641900 3241050241050200      174500      2087B   75000       2 3960        V2    V2    0   
5228640100 3341050241050200      174700      2087B   75000       2 3960        V2    V2    0   
52286096BT 3441050241050200      174800      2087B   75000       2 3960        V2    V1R   0   
52286096BR 3541050241050300      174900      2087B   75000       2 3960        V1R   V1    0   
52286096LE 3641050341050300      174900      2087B   75000       2 3960        V1    V1    0   
5228632800 3741050341050300      175000      2087B   75000       2 3960        V1    V1    0   
52286013P1 3841050341050300      175100      2087B   75000       2 3960        V1    V1    0   
5228631000 3941050341050300      175100      2087B   75000       2 3960        V1    V1    0   
5228713600 4041050341050300      175400      2087B   75000       2 3960        V1    V1    0   
52286013P2 4141050341050300      175500      2087B   75000       2 3960        V1    V1    0   
5228629400 4241050341050300      175600      2087B   75000       2 3960        V1    V1    0   
52286294CV 4341050341050300      175600      2087B   75000       2 3960        V1    V1    0   
5228735900 4441050341050300      175800      2087B   75000       2 3960        V1 V1 V1R   0   
52286286BL 4541050341050300      175800      2087B   75000       2 3960        V1RV1RV1    0   
522862864M 4641050341050300      180000      2087B   75000       2 3960        V1    V1    0   
52286286RN 4741050341050300      180000      2087B   75000       2 3960        V1    V1    0   
5228627800 4841050341050300      180400      2087B   75000       2 3960        V1    V1    0   
5228614600 4941050341050300      181200      2087B   75000       2 3960        V1 VO VBA   0   
52286146SI 5041050341050300      181300      2087B   75000       2 3960        VBA   VBA   0   
5228637700 51410503      00184000            2087B   75000       2 3960        VBAVU       0   
5024001650 11AGT4105020087161200R410503MA1000000000000000000000000000000000000000000000000000000000000000000000000000000000000000000000000010000000000000000000000000000000000000000000000000000000000000000000000000000000000000000000000000000000000000000000000000000000000000000000000000000000000000000000000000000000000000000000000000000000000000000000000000000000000000000000000000000000000000000000000000000000000000000000000000000000000000000345314TR286377002187FRR05                   410522   
75    26KXBJ  1345314TR 51286377001518179                     
52345314TR  1      41050200            16120002   87B      75000  2      3960        TRI   0   
523453141P  241050241050200      161300      2087B   75000       2 3960        TRITRIV2    0   
52345314AT  341050241050200      161500      2087B   75000       2 3960        V2    V2    0   
5234530600  441050241050200      162000      2087B   75000       2 3960        V2    V2    0   
52345009SI  541050241050300      162600      2087B   75000       2 3960        V2 V1 V1X   0   
52345009AM  641050341050300      162700      2087B   75000       2 3960        V1X   V1X   0   
52345009BV  741050341050300      162800      2087B   75000       2 3960        V1XV8 V1    0   
5234500918  841050341050300      163000      2087B   75000       2 3960        V1    V1    0   
5234520700  941050341050300      163300      2087B   75000       2 3960        V1    V1    0   
5234522300 1041050341050300      163700      2087B   75000       2 3960        V1    V1    0   
5234524900 1141050341050300      164000      2087B   75000       2 3960        V1    V1    0   
52241760BE 1241050341050300      164000      2087B   75000       2 3960        V1    V2R   0   
52241760MR 1341050341050200      164100      2087B   75000       2 3960        V2RV2RV2    0   
52241760BO 1441050241050200      164200      2087B   75000       2 3960        V2    V2    0   
52241760BD 1541050241050200      164300      2087B   75000       2 3960        V2    V2    0   
5234516500 1641050241050200      164400      2087B   75000       2 3960        V2    V2    0   
5234515700 1741050241050200      164900      2087B   75000       2 3960        V2    V2    0   
5234514000 1841050241050200      165300      2087B   75000       2 3960        V2    V2    0   
52345140P2 1941050241050200      165400      2087B   75000       2 3960        V2    V2    0   
52345140P1 2041050241050200      165500      2087B   75000       2 3960        V2    V2    0   
5234513200 2141050241050200      165600      2087B   75000       2 3960        V2    V2    0   
52345124BV 2241050241050200      165900      2087B   75000       2 3960        V2    RAC   0   
52345025BE 2341050241050300      170100      2087B   75000       2 3960        RACRACV2    0   
5234521500 2441050341050300      170100      2087B   75000       2 3960        V2    V1    0   
5234523100 2541050341050300      170400      2087B   75000       2 3960        V1    V1    0   
52345264P1 2641050341050300      170700      2087B   75000       2 3960        V1    V1    0   
52345264BV 2741050341050300      170900      2087B   75000       2 3960        V1    V1    0   
5234527200 2841050341050300      171300      2087B   75000       2 3960        V1    V1    0   
5234528000 2941050341050300      171500      2087B   75000       2 3960        V1    V1    0   
52286435BV 3041050341050200      172100      2087B   75000       2 3960        V1 VA2V2    0   
5228642700 3141050241050200      172300      2087B   75000       2 3960        V2    V2    0   
5228641900 3241050241050200      172500      2087B   75000       2 3960        V2    V2    0   
5228640100 3341050241050200      172900      2087B   75000       2 3960        V2    V2    0   
52286096BT 3441050241050200      173000      2087B   75000       2 3960        V2    V1R   0   
52286096BR 3541050241050300      173100      2087B   75000       2 3960        V1R   V1    0   
52286096LE 3641050341050300      173100      2087B   75000       2 3960        V1    V1    0   
5228632800 3741050341050300      173200      2087B   75000       2 3960        V1    V1    0   
52286013P1 3841050341050300      173300      2087B   75000       2 3960        V1    V1    0   
5228631000 3941050341050300      173400      2087B   75000       2 3960        V1    V1    0   
5228713600 4041050341050300173600      1745002287B87B75000 75000 223960  3960  V1    V1    0   
52286013P2 4141050341050300      174700      2087B   75000       2 3960        V1    V1    0   
5228629400 4241050341050300      174800      2087B   75000       2 3960        V1    V1    0   
52286294CV 4341050341050300      174800      2087B   75000       2 3960        V1    V1    0   
5228735900 4441050341050300      175200      2087B   75000       2 3960        V1 V1 V1R   0   
52286286BL 4541050341050300      175200      2087B   75000       2 3960        V1RV1RV1    0   
522862864M 4641050341050300      175300      2087B   75000       2 3960        V1    V1    0   
52286286RN 4741050341050300      175300      2087B   75000       2 3960        V1    V1    0   
5228627800 4841050341050300      175700      2087B   75000       2 3960        V1    V1    0   
5228614600 4941050341050300      180500      2087B   75000       2 3960        V1 VO VBA   0   
52286146SI 5041050341050300      180600      2087B   75000       2 3960        VBA   VBA   0   
5228637700 51410503      00183300            2087B   75000       2 3960        VBAVU       0   
5024001651  5SER4105060087170000R410507MA100000000000000000000000000000000000000000001000000000000000000000000000000000000000000000000000000000000000000000000000000000000000000000000000000000000000000000000000000000000000000000000000000000000000000000000000000000000000000000000000000000000000000000000000000000000000000000000000000000000000000000000000000000000000000000000000000000000000000000000000000000000000000000000000000000000000000000028637700345314RC2187FRR05          410500            
75    26KXBL  128637700 52345314RC1518181                     
5228637700  1      41050600            17000002   87B      75000  1      1000        VU    0   
52286146SI  241050641050600      172700      2087B   75000       1 1000        VU VBAVO    0   
5228614600  341050641050600      172900      2087B   75000       1 1000        VO VO V2    0   
5228627800  441050641050600      173700      2087B   75000       1 1000        V2    V2    0   
52286286RN  541050641050600      173900      2087B   75000       1 1000        V2 V2 V2R   0   
522862864M  641050641050600      173900      2087B   75000       1 1000        V2RV2RV2    0   
52286286BL  741050641050600      174000      2087B   75000       1 1000        V2    V2    0   
5228735900  841050641050600      174100      2087B   75000       1 1000        V2    V2    0   
5228629400  941050641050600      174200      2087B   75000       1 1000        V2    V2    0   
52286013P2 1041050641050600      174300      2087B   75000       1 1000        V2    V2    0   
5228713600 1141050641050600      174400      2087B   75000       1 1000        V2    V2    0   
5228631000 1241050641050600      174700      2087B   75000       1 1000        V2    V2    0   
52286013P1 1341050641050600      174700      2087B   75000       1 1000        V2    V2    0   
5228632800 1441050641050600      174900      2087B   75000       1 1000        V2    V2    0   
52286096VI 1541050641050600      174900      2087B   75000       1 1000        V2    V2    0   
52286096LE 1641050641050600      174900      2087B   75000       1 1000        V2    V2    0   
52286096BR 1741050641050600      174900      2087B   75000       1 1000        V2    V2R   0   
52286096BT 1841050641050700      175000      2087B   75000       1 1000        V2R   V1    0   
5228640100 1941050741050700      175100      2087B   75000       1 1000        V1    V1    0   
5228641900 2041050741050700      175400      2087B   75000       1 1000        V1    V1    0   
5228642700 2141050741050700      175500      2087B   75000       1 1000        V1    V1    0   
52286435BV 2241050741050600      175700      2087B   75000       1 1000        V1 VA1V2    0   
5234528000 2341050641050600      180200      2087B   75000       1 1000        V2    V2    0   
5234527200 2441050641050600      180400      2087B   75000       1 1000        V2    V2    0   
52345264BV 2541050641050600      180600      2087B   75000       1 1000        V2    V2    0   
52345264P1 2641050641050600      180800      2087B   75000       1 1000        V2    V2    0   
5234523100 2741050641050600      181000      2087B   75000       1 1000        V2    V2    0   
5234521500 2841050641050600      181200      2087B   75000       1 1000        V2    V2    0   
52345025BE 2941050641050600      181200      2087B   75000       1 1000        V2    V2    0   
52345025BS 3041050641050600      181300      2087B   75000       1 1000        V2 V2 VVS   0   
52345025VS 3141050641050600      181400      2087B   75000       1 1000        VVS   VVS   0   
52345025BA 3241050641050600      181400      2087B   75000       1 1000        VVS   V2    0   
5234258400 3341050641050600      181500      2087B   75000       1 1000        V2    V2    0   
5234257600 3441050641050600      182000      2087B   75000       1 1000        V2    V2    0   
5234252700 3541050641050600      182200      2087B   75000       1 1000        V2    V2    0   
5234259200 3641050641050600      182400      2087B   75000       1 1000        V2    V2    0   
52342014RN 3741050641050600      182900      2087B   75000       1 1000        V2    RN2   0   
52342014B2 3841050641050600      183100      2087B   75000       1 1000        RN2   RN2   0   
52342014RE 3941050641050700      183100      2087B   75000       1 1000        RN2RE2V1    0   
52342014BN 4041050741050700      183500      2087B   75000       1 1000        V1    V1    0   
5234208900 4141050741050700      183600      2087B   75000       1 1000        V1    V1    0   
5234209700 4241050741050700      183900      2087B   75000       1 1000        V1    V1    0   
5234211300 4341050741050700      184100      2087B   75000       1 1000        V1    V1    0   
5234510800 4441050741050700      184300      2087B   75000       1 1000        V1    V1    0   
5234511600 4541050741050700      184400      2087B   75000       1 1000        V1    V1    0   
52345009SE 4641050741050700      184700      2087B   75000       1 1000        V1    V1R   0   
52345009SI 4741050741050700      184800      2087B   75000       1 1000        V1RV1RV1    0   
5234530600 4841050741050700      185300      2087B   75000       1 1000        V1    V1    0   
52345314AT 4941050741050700      185500      2087B   75000       1 1000        V1    V1    0   
52345314P1 5041050741050700      185600      2087B   75000       1 1000        V1    VX    0   
52345314PB 5141050741050700      185800      2087B   75000       1 1000        VX FTIFRC   0   
52345314RC 52410507      00190000            2087B   75000       1 1000        FRC         0   
5024001651  6SER4105060087172800R410507MA100010110100000000000000010110101011010101100010110101011010001101000110101011010101101010110101011010101101010110100000000000001000000100000010000001010110101011010101001010110100011010101101010110101011010101101000110101011010101101010110101011010101101010110101011010101101010110101011010101101010110101011010101101010110001011010101101010110101011010101101010110100000000000000000000000000000000000028637700345314RC2187FRR05          410500            
75    26KXBL  128637700 52345314RC1518181                     
5228637700  1      41050600            17280002   87B      75000  1      1000        VU    0   
52286146SI  241050641050600      175500      2087B   75000       1 1000        VU VBAVO    0   
5228614600  341050641050600      175700      2087B   75000       1 1000        VO VO V2    0   
5228627800  441050641050600      180500      2087B   75000       1 1000        V2    V2    0   
52286286RN  541050641050600      180700      2087B   75000       1 1000        V2 V2 V2R   0   
522862864M  641050641050600      180700      2087B   75000       1 1000        V2RV2RV2    0   
52286286BL  741050641050600      180800      2087B   75000       1 1000        V2    V2    0   
5228735900  841050641050600      180800      2087B   75000       1 1000        V2    V2    0   
5228629400  941050641050600      181300      2087B   75000       1 1000        V2    V2    0   
52286013P2 1041050641050600      181800      2087B   75000       1 1000        V2    V2    0   
5228713600 1141050641050600      182200      2087B   75000       1 1000        V2    V2    0   
5228631000 1241050641050600      182500      2087B   75000       1 1000        V2    V2    0   
52286013P1 1341050641050600      182500      2087B   75000       1 1000        V2    V2    0   
5228632800 1441050641050600      182700      2087B   75000       1 1000        V2    V2    0   
52286096VI 1541050641050600      182700      2087B   75000       1 1000        V2    V2    0   
52286096LE 1641050641050600      182700      2087B   75000       1 1000        V2    V2    0   
52286096BR 1741050641050600      182700      2087B   75000       1 1000        V2    V2R   0   
52286096BT 1841050641050700      182800      2087B   75000       1 1000        V2R   V1    0   
5228640100 1941050741050700      182900      2087B   75000       1 1000        V1    V1    0   
5228641900 2041050741050700      183100      2087B   75000       1 1000        V1    V1    0   
5228642700 2141050741050700      183300      2087B   75000       1 1000        V1    V1    0   
52286435BV 2241050741050600      183400      2087B   75000       1 1000        V1 VA1V2    0   
5234528000 2341050641050600      184000      2087B   75000       1 1000        V2    V2    0   
5234527200 2441050641050600      184100      2087B   75000       1 1000        V2    V2    0   
52345264BV 2541050641050600      184400      2087B   75000       1 1000        V2    V2    0   
52345264P1 2641050641050600      184600      2087B   75000       1 1000        V2    V2    0   
5234523100 2741050641050600      184800      2087B   75000       1 1000        V2    V2    0   
5234521500 2841050641050600      185000      2087B   75000       1 1000        V2    V2    0   
52345025BE 2941050641050700      185000      2087B   75000       1 1000        V2    RAC   0   
52345124BV 3041050741050700      185100      2087B   75000       1 1000        RACRACV1    0   
5234513200 3141050741050700      185400      2087B   75000       1 1000        V1    V1    0   
52345140P1 3241050741050700      185500      2087B   75000       1 1000        V1    V1    0   
52345140P2 3341050741050700      185600      2087B   75000       1 1000        V1    V1    0   
5234514000 3441050741050700      185700      2087B   75000       1 1000        V1    V1    0   
5234515700 3541050741050700      190200      2087B   75000       1 1000        V1    V1    0   
5234516500 3641050741050700      190700      2087B   75000       1 1000        V1    V1    0   
52241760BD 3741050741050700      190900      2087B   75000       1 1000        V1    V1    0   
52241760BO 3841050741050700      191000      2087B   75000       1 1000        V1    V1    0   
52241760MR 3941050741050700      191000      2087B   75000       1 1000        V1    V1R   0   
52241760BE 4041050741050600      191100      2087B   75000       1 1000        V1RV1RV2    0   
5234524900 4141050641050600      191100      2087B   75000       1 1000        V2    V2    0   
5234522300 4241050641050600      191400      2087B   75000       1 1000        V2    V2    0   
5234520700 4341050641050600      191600      2087B   75000       1 1000        V2    V2    0   
5234500918 4441050641050600      191800      2087B   75000       1 1000        V2    V2    0   
52345009BV 4541050641050600192100      1938002287B87B75000 75000 111000  1000  V2 VB V10   0   
72VB    0101101000000000000000101101010110101011000101101010110100011010001101010110101011010101101010110101011010101101000000000000010000001000000100000010101101010110101010010101101000110101011010101101010110101011010001101010110101011010101101010110101011010101101010110101011010101101010110101011010101101010110101011010101100010110101011010101101010110101011010101101000000000000000000000000000000000000                                                                                                                                                                                                                                                                                                                                                                                                                1500000054520241227200103
74AFRET                           20 101011010000000000000001011010101101010110001011010101101000110100011010101101010110101011010101101010110101011010000000000000100000010000001000000101011010101101010100101011010001101010110101011010101101010110100011010101101010110101011010101101010110101011010101101010110101011010101101010110101011010101101010110101011000101101010110101011010101101010110101011010000000000000000000000000000000000001500000054520250314192847
52345009AM 4641050641050600      194000      2087B   75000       1 1000        V10V2XV2    0   
52345009SI 4741050641050700      194200      2087B   75000       1 1000        V2 V2 V1    0   
5234530600 4841050741050700      194700      2087B   75000       1 1000        V1    V1    0   
52345314AT 4941050741050700      194900      2087B   75000       1 1000        V1    V1    0   
52345314P1 5041050741050700      195000      2087B   75000       1 1000        V1    VX    0   
52345314PB 5141050741050700      195200      2087B   75000       1 1000        VX FTIFRC   0   
52345314RC 52410507      00195400            2087B   75000       1 1000        FRC         0   
5024001651 10SER4105060087173400R410507MA100000000000000000000000000000000000000000000000000000000000000000000000000000000000000000000000000000000000000000000000000000000010000000000000000000000000000000000000000000000000000000000000000000000000000000000010000000000000000000000000000000000000000000000000000000000000000000000000000000000000000000000000000000000000100000000000000000000000000000000000000000000000000000000000000000000000000000028637700345314RC2187FRR05          410500            
75    26KXBL  128637700 41345314RC1518181                     
5228637700  1      41050600            17340002   87B      75000  1      1000        VU    0   
52286146SI  241050641050600      180200      2087B   75000       1 1000        VU VBAVO    0   
5228614600  341050641050600      180400      2087B   75000       1 1000        VO VO V2    0   
5228627800  441050641050600      181300      2087B   75000       1 1000        V2    V2    0   
52286286RN  541050641050600      181500      2087B   75000       1 1000        V2    V2    0   
522862864M  641050641050600      181500      2087B   75000       1 1000        V2    V2    0   
52286286RS  741050641050600      181600      2087B   75000       1 1000        V2    V2    0   
52286286SA  841050641050600      181600      2087B   75000       1 1000        V2    V2    0   
52286286BV  941050641050600      181600      2087B   75000       1 1000        V2    V2    0   
5228619500 1041050641050600      181700      2087B   75000       1 1000        V2    V2    0   
52286187BV 1141050641050600      181900      2087B   75000       1 1000        V2    V2    0   
52286187RO 1241050641050600      182100      2087B   75000       1 1000        V2    V2    0   
52286005VR 1341050641050600      182100      2087B   75000       1 1000        V2    V2    0   
52286005LO 1441050641050600      182200      2087B   75000       1 1000        V2 V2 V2W   0   
52286005PZ 1541050641050600      182400      2087B   75000       1 1000        V2W   P1    0   
52286005P1 1641050641050600      182500      2087B   75000       1 1000        P1 P1 VP    0   
52286039P2 1741050641050600      182600      2087B   75000       1 1000        VP    VP    0   
5228603927 1841050641050600      182600      2087B   75000       1 1000        VP    VP    0   
5228603924 1941050641050600      182700      2087B   75000       1 1000        VP VP VQ2   0   
52286039P1 2041050641050600      182700      2087B   75000       1 1000        VQ2   VP1   0   
52286039SM 2141050641050600      182700      2087B   75000       1 1000        VP1   V2    0   
52286534BV 2241050641050600      182900      2087B   75000       1 1000        V2    V2    0   
5228652600 2341050641050600      183300      2087B   75000       1 1000        V2    V2    0   
52286518BV 2441050641050600      183600      2087B   75000       1 1000        V2    V2    0   
5228650000 2541050641050600      183800      2087B   75000       1 1000        V2    V2    0   
52345256BV 2641050641050600      184100      2087B   75000       1 1000        V2    V2    0   
52241760AN 2741050641050600      184300      2087B   75000       1 1000        V2    V2    0   
52241760BH 2841050641050600      184300      2087B   75000       1 1000        V2    V2    0   
52241760BE 2941050641050600      184400      2087B   75000       1 1000        V2    V2    0   
5234524900 3041050641050600      184400      2087B   75000       1 1000        V2    V2    0   
5234522300 3141050641050600      184600      2087B   75000       1 1000        V2    V2    0   
5234520700 3241050641050600      184900      2087B   75000       1 1000        V2    V2    0   
5234500918 3341050641050600      185100      2087B   75000       1 1000        V2    V2    0   
52345009BV 3441050641050600      185200      2087B   75000       1 1000        V2    V10   0   
52345009AM 3541050641050600      185300      2087B   75000       1 1000        V10V2XV2    0   
52345009SI 3641050641050700      185400      2087B   75000       1 1000        V2 V2 V1    0   
5234530600 3741050741050700      190000      2087B   75000       1 1000        V1    V1    0   
52345314AT 3841050741050700      190200      2087B   75000       1 1000        V1    V1    0   
52345314P1 3941050741050700      190300      2087B   75000       1 1000        V1    VX    0   
52345314PB 4041050741050700      190400      2087B   75000       1 1000        VX FTIFRC   0   
52345314RC 41410507      00190700            2087B   75000       1 1000        FRC         0   
5024001651 11R4S4105060087173400R410507MA100000000000000000000000000000000000000000000000000000000000000000000000000000000000000000000000000000000000000000000000000000000000000000001000000100000000000000000000100000000001000000000000000000000000000000000000000000000000000000000000000000000000000000000000000000000000000000000000000000000000000000000000000000000000000000000000000000000000000000000000000000000000000000000000000000000000000000028637700345314RC2187FRR05          410500            
75    26KXBL  128637700 41345314RC1518181                     
5228637700  1      41050600            17340002   87B      75000  1      1000        VU    0   
52286146SI  241050641050600      180200      2087B   75000       1 1000        VU VBAVO    0   
5228614600  341050641050600      180400      2087B   75000       1 1000        VO VO V2    0   
5228627800  441050641050600      181300      2087B   75000       1 1000        V2    V2    0   
52286286RN  541050641050600      181500      2087B   75000       1 1000        V2    V2    0   
522862864M  641050641050600      181500      2087B   75000       1 1000        V2    V2    0   
52286286RS  741050641050600      181600      2087B   75000       1 1000        V2    V2    0   
52286286SA  841050641050600      181600      2087B   75000       1 1000        V2    V2    0   
52286286BV  941050641050600      181600      2087B   75000       1 1000        V2    V2    0   
5228619500 1041050641050600      181700      2087B   75000       1 1000        V2    V2    0   
52286187BV 1141050641050600      181900      2087B   75000       1 1000        V2    V2    0   
52286187RO 1241050641050600      182100      2087B   75000       1 1000        V2    V2    0   
52286005VR 1341050641050600      182100      2087B   75000       1 1000        V2    V2    0   
52286005LO 1441050641050600      182200      2087B   75000       1 1000        V2 V2 V2W   0   
52286005PZ 1541050641050600      182400      2087B   75000       1 1000        V2W   P1    0   
52286005P1 1641050641050600      182500      2087B   75000       1 1000        P1 P1 VP    0   
52286039P2 1741050641050600      182600      2087B   75000       1 1000        VP    VP    0   
5228603927 1841050641050600      182600      2087B   75000       1 1000        VP    VP    0   
5228603924 1941050641050600      182700      2087B   75000       1 1000        VP VP VQ2   0   
52286039P1 2041050641050600      182700      2087B   75000       1 1000        VQ2   VP1   0   
52286039SM 2141050641050600      182700      2087B   75000       1 1000        VP1   V2    0   
52286534BV 2241050641050600      182900      2087B   75000       1 1000        V2    V2    0   
5228652600 2341050641050600      183300      2087B   75000       1 1000        V2    V2    0   
52286518BV 2441050641050600      183600      2087B   75000       1 1000        V2    V2    0   
5228650000 2541050641050600      183800      2087B   75000       1 1000        V2    V2    0   
52345256BV 2641050641050600      184100      2087B   75000       1 1000        V2    V2    0   
52241760AN 2741050641050600      184300      2087B   75000       1 1000        V2    V2    0   
52241760BH 2841050641050600      184300      2087B   75000       1 1000        V2    V2    0   
52241760BE 2941050641050600      184400      2087B   75000       1 1000        V2    V2    0   
5234524900 3041050641050600      184400      2087B   75000       1 1000        V2    V2    0   
5234522300 3141050641050600      184600      2087B   75000       1 1000        V2    V2    0   
5234520700 3241050641050600      184900      2087B   75000       1 1000        V2    V2    0   
5234500918 3341050641050600      185100      2087B   75000       1 1000        V2    V2    0   
52345009BV 3441050641050600185500      1915002287B87B75000 75000 111000  1000  V2 VB V10   0   
52345009AM 3541050641050600      191700      2087B   75000       1 1000        V10V2XV2    0   
52345009SI 3641050641050700      191900      2087B   75000       1 1000        V2 V2 V1    0   
5234530600 3741050741050700      192400      2087B   75000       1 1000        V1    V1    0   
52345314AT 3841050741050700      192600      2087B   75000       1 1000        V1    V1    0   
52345314P1 3941050741050700      192700      2087B   75000       1 1000        V1    VX    0   
52345314PB 4041050741050700      192900      2087B   75000       1 1000        VX FTIFRC   0   
52345314RC 41410507      00193100            2087B   75000       1 1000        FRC         0   
5024001651 12R4S4105060087172800R410507MA100000000000000000000000000000000000000000000000000000000000000000000000000000000000000000000000000000000000000000001011000101100000110001010000101000000000000000000000000000000000000000000000000000000000000000000000000000000000000000000000000000000000000000000000000000000000000000000000000000000000000000000000000000000000000000000000000000000000000000000000000000000000000000000000000000000000000000028637700345314RC2187FRR05          410500            
75    26KXBL  128637700 52345314RC1518181                     
5228637700  1      41050600            17280002   87B      75000  1      1000        VU    0   
52286146SI  241050641050600      175500      2087B   75000       1 1000        VU VBAVO    0   
5228614600  341050641050600      175700      2087B   75000       1 1000        VO VO V2    0   
5228627800  441050641050600      180500      2087B   75000       1 1000        V2    V2    0   
52286286RN  541050641050600      180700      2087B   75000       1 1000        V2 V2 V2R   0   
522862864M  641050641050600      180700      2087B   75000       1 1000        V2RV2RV2    0   
52286286BL  741050641050600      180800      2087B   75000       1 1000        V2    V2    0   
5228735900  841050641050600      180800      2087B   75000       1 1000        V2    V2    0   
5228629400  941050641050600      181300      2087B   75000       1 1000        V2    V2    0   
52286013P2 1041050641050600      181800      2087B   75000       1 1000        V2    V2    0   
5228713600 1141050641050600      182200      2087B   75000       1 1000        V2    V2    0   
5228631000 1241050641050600      182500      2087B   75000       1 1000        V2    V2    0   
52286013P1 1341050641050600      182500      2087B   75000       1 1000        V2    V2    0   
5228632800 1441050641050600      182700      2087B   75000       1 1000        V2    V2    0   
52286096VI 1541050641050600      182700      2087B   75000       1 1000        V2    V2    0   
52286096LE 1641050641050600      182700      2087B   75000       1 1000        V2    V2    0   
52286096BR 1741050641050600      182700      2087B   75000       1 1000        V2    V2R   0   
52286096BT 1841050641050700      182800      2087B   75000       1 1000        V2R   V1    0   
5228640100 1941050741050700      182900      2087B   75000       1 1000        V1    V1    0   
5228641900 2041050741050700      183100      2087B   75000       1 1000        V1    V1    0   
5228642700 2141050741050700      183300      2087B   75000       1 1000        V1    V1    0   
52286435BV 2241050741050600      183400      2087B   75000       1 1000        V1 VA1V2    0   
5234528000 2341050641050600      184000      2087B   75000       1 1000        V2    V2    0   
5234527200 2441050641050600      184100      2087B   75000       1 1000        V2    V2    0   
52345264BV 2541050641050600      184400      2087B   75000       1 1000        V2    V2    0   
52345264P1 2641050641050600      184600      2087B   75000       1 1000        V2    V2    0   
5234523100 2741050641050600      184800      2087B   75000       1 1000        V2    V2    0   
5234521500 2841050641050600      185000      2087B   75000       1 1000        V2    V2    0   
52345025BE 2941050641050700      185000      2087B   75000       1 1000        V2    RAC   0   
52345124BV 3041050741050700      185100      2087B   75000       1 1000        RACRACV1    0   
5234513200 3141050741050700      185400      2087B   75000       1 1000        V1    V1    0   
52345140P1 3241050741050700      185500      2087B   75000       1 1000        V1    V1    0   
52345140P2 3341050741050700      185700      2087B   75000       1 1000        V1    V1    0   
5234514000 3441050741050700      185700      2087B   75000       1 1000        V1    V1    0   
5234515700 3541050741050700      190300      2087B   75000       1 1000        V1    V1    0   
5234516500 3641050741050700      190900      2087B   75000       1 1000        V1    V1    0   
52241760BD 3741050741050700      191000      2087B   75000       1 1000        V1    V1    0   
52241760BO 3841050741050700      191100      2087B   75000       1 1000        V1    V1    0   
52241760MR 3941050741050700      191200      2087B   75000       1 1000        V1    V1R   0   
52241760BE 4041050741050600      191200      2087B   75000       1 1000        V1RV1RV2    0   
5234524900 4141050641050600      191300      2087B   75000       1 1000        V2    V2    0   
5234522300 4241050641050600      191500      2087B   75000       1 1000        V2    V2    0   
5234520700 4341050641050600      191800      2087B   75000       1 1000        V2    V2    0   
5234500918 4441050641050600      191900      2087B   75000       1 1000        V2    V2    0   
52345009BV 4541050641050600192200      1938002287B87B75000 75000 111000  1000  V2 VB V10   0   
52345009AM 4641050641050600      194000      2087B   75000       1 1000        V10V2XV2    0   
52345009SI 4741050641050700      194200      2087B   75000       1 1000        V2 V2 V1    0   
5234530600 4841050741050700      194700      2087B   75000       1 1000        V1    V1    0   
52345314AT 4941050741050700      194900      2087B   75000       1 1000        V1    V1    0   
52345314P1 5041050741050700      195000      2087B   75000       1 1000        V1    VX    0   
52345314PB 5141050741050700      195200      2087B   75000       1 1000        VX FTIFRC   0   
52345314RC 52410507      00195400            2087B   75000       1 1000        FRC         0   
5024001651 13R4S4105060087172800R410507MA100000000000000000000000000000000000000000000000000000000000000000000000000000000000000000000000000000000000000000000000010000000000000000000000000000000000000000000000000000000000000000000000000000000000000000000000000000000000000000000000000000000000000000000000000000000000000000000000000000000000000000000000000000000000000000000000000000000000000000000000000000000000000000000000000000000000000000028637700345314RC2187FRR05          410500            
75    26KXBL  128637700 52345314RC1518181                     
5228637700  1      41050600            17280002   87B      75000  1      1000        VU    0   
52286146SI  241050641050600      175500      2087B   75000       1 1000        VU VBAVO    0   
5228614600  341050641050600      175700      2087B   75000       1 1000        VO VO V2    0   
5228627800  441050641050600      180500      2087B   75000       1 1000        V2    V2    0   
52286286RN  541050641050600      180700      2087B   75000       1 1000        V2 V2 V2R   0   
522862864M  641050641050600      180700      2087B   75000       1 1000        V2RV2RV2    0   
52286286BL  741050641050600      180800      2087B   75000       1 1000        V2    V2    0   
5228735900  841050641050600      180800      2087B   75000       1 1000        V2    V2    0   
5228629400  941050641050600      181300      2087B   75000       1 1000        V2    V2    0   
52286013P2 1041050641050600      181800      2087B   75000       1 1000        V2    V2    0   
5228713600 1141050641050600      182200      2087B   75000       1 1000        V2    V2    0   
5228631000 1241050641050600      182500      2087B   75000       1 1000        V2    V2    0   
52286013P1 1341050641050600      182500      2087B   75000       1 1000        V2    V2    0   
5228632800 1441050641050600      182700      2087B   75000       1 1000        V2    V2    0   
52286096VI 1541050641050600      182700      2087B   75000       1 1000        V2    V2    0   
52286096LE 1641050641050600      182700      2087B   75000       1 1000        V2    V2    0   
52286096BR 1741050641050600      182700      2087B   75000       1 1000        V2    V2R   0   
52286096BT 1841050641050700      182800      2087B   75000       1 1000        V2R   V1    0   
5228640100 1941050741050700      182900      2087B   75000       1 1000        V1    V1    0   
5228641900 2041050741050700      183100      2087B   75000       1 1000        V1    V1    0   
5228642700 2141050741050700      183300      2087B   75000       1 1000        V1    V1    0   
52286435BV 2241050741050600      183400      2087B   75000       1 1000        V1 VA1V2    0   
5234528000 2341050641050600      184000      2087B   75000       1 1000        V2    V2    0   
5234527200 2441050641050600      184100      2087B   75000       1 1000        V2    V2    0   
52345264BV 2541050641050600      184400      2087B   75000       1 1000        V2    V2    0   
52345264P1 2641050641050600      184600      2087B   75000       1 1000        V2    V2    0   
5234523100 2741050641050600      184800      2087B   75000       1 1000        V2    V2    0   
5234521500 2841050641050600      185000      2087B   75000       1 1000        V2    V2    0   
52345025BE 2941050641050700      185000      2087B   75000       1 1000        V2    RAC   0   
52345124BV 3041050741050700      185100      2087B   75000       1 1000        RACRACV1    0   
5234513200 3141050741050700      185400      2087B   75000       1 1000        V1    V1    0   
52345140P1 3241050741050700      185500      2087B   75000       1 1000        V1    V1    0   
52345140P2 3341050741050700      185600      2087B   75000       1 1000        V1    V1    0   
5234514000 3441050741050700      185700      2087B   75000       1 1000        V1    V1    0   
5234515700 3541050741050700      190200      2087B   75000       1 1000        V1    V1    0   
5234516500 3641050741050700      190600      2087B   75000       1 1000        V1    V1    0   
52241760BD 3741050741050700      190800      2087B   75000       1 1000        V1    V1    0   
52241760BO 3841050741050700      190900      2087B   75000       1 1000        V1    V1    0   
52241760MR 3941050741050700      190900      2087B   75000       1 1000        V1    V1R   0   
52241760BE 4041050741050600      191000      2087B   75000       1 1000        V1RV1RV2    0   
5234524900 4141050641050600      191000      2087B   75000       1 1000        V2    V2    0   
5234522300 4241050641050600      191300      2087B   75000       1 1000        V2    V2    0   
5234520700 4341050641050600      191500      2087B   75000       1 1000        V2    V2    0   
5234500918 4441050641050600      191700      2087B   75000       1 1000        V2    V2    0   
52345009BV 4541050641050600192000      1938002287B87B75000 75000 111000  1000  V2 VB V10   0   
52345009AM 4641050641050600      194000      2087B   75000       1 1000        V10V2XV2    0   
52345009SI 4741050641050700      194200      2087B   75000       1 1000        V2 V2 V1    0   
5234530600 4841050741050700      194700      2087B   75000       1 1000        V1    V1    0   
52345314AT 4941050741050700      194900      2087B   75000       1 1000        V1    V1    0   
52345314P1 5041050741050700      195000      2087B   75000       1 1000        V1    VX    0   
52345314PB 5141050741050700      195200      2087B   75000       1 1000        VX FTIFRC   0   
52345314RC 52410507      00195400            2087B   75000       1 1000        FRC         0   
5024001652  8SER4105080087080200R410509MA1000000001000000000000000000001000000100000010000001000000100000010000001000000100000010000001000000100000010000001000000100000010000001000000100000010000001000000100000010000001000000100000010000001000000100000010000001000000100000010000001000000100000000000001000000100000010000001000000100000010000001000000000000000000000000000000000010000001000000100000010000001000000000000000000000000000000000000345314TR286377002187FRR05          72200    410512   
75    26KXBN  1345314TR 51286377001518182                     
52345314TR  1      41050800            08020002   87B      75000  2      3960        TRI   0   
523453141P  241050841050800      080300      2087B   75000       2 3960        TRITRIV2    0   
52345314AT  341050841050800      080500      2087B   75000       2 3960        V2    V2    0   
5234530600  441050841050800      081000      2087B   75000       2 3960        V2    V2    0   
52345009SI  541050841050900      081500      2087B   75000       2 3960        V2 V1 V1X   0   
52345009AM  641050941050900      081700      2087B   75000       2 3960        V1X   V1X   0   
52345009BV  741050941050900082100      0840002287B87B75000 75000 223960  3960  V1XV2RV1    0   
72VA    0000001000000000000000000001000000100000010000001000000100000010000001000000100000010000001000000100000010000001000000100000010000001000000100000010000001000000100000010000001000000100000010000001000000100000010000001000000100000010000001000000100000000000001000000100000010000001000000100000010000001000000000000000000000000000000000010000001000000100000010000001000000000000000000000000000000000000                                                                                                                                                                                                                                                                                                                                                                                                                1500000054520241219192323
74AFRET                           20 100000010000000000000000000010000001000000100000010000001000000100000010000001000000100000010000001000000100000010000001000000100000010000001000000100000010000001000000100000010000001000000100000010000001000000100000010000001000000100000010000001000000000000010000001000000100000010000001000000100000010000000000000000000000000000000000100000010000001000000100000010000000000000000000000000000000000001500000054520250314192847
5234500918  841050941050900      084100      2087B   75000       2 3960        V1    V1    0   
5234520700  941050941050900      084500      2087B   75000       2 3960        V1    V1    0   
5234522300 1041050941050900      084800      2087B   75000       2 3960        V1    V1    0   
5234524900 1141050941050900      085100      2087B   75000       2 3960        V1    V1    0   
52241760BE 1241050941050900      085100      2087B   75000       2 3960        V1    V2R   0   
52241760MR 1341050941050800      085200      2087B   75000       2 3960        V2RV2RV2    0   
52241760BO 1441050841050800      085300      2087B   75000       2 3960        V2    V2    0   
52241760BD 1541050841050800      085400      2087B   75000       2 3960        V2    V2    0   
5234516500 1641050841050800      085500      2087B   75000       2 3960        V2    V2    0   
5234515700 1741050841050800      085800      2087B   75000       2 3960        V2    V2    0   
5234514000 1841050841050800      090100      2087B   75000       2 3960        V2    V2    0   
52345140P2 1941050841050800      090200      2087B   75000       2 3960        V2    V2    0   
52345140P1 2041050841050800      090200      2087B   75000       2 3960        V2    V2    0   
5234513200 2141050841050800      090300      2087B   75000       2 3960        V2    V2    0   
52345124BV 2241050841050800      090500      2087B   75000       2 3960        V2    RAC   0   
52345025BE 2341050841050900      090600      2087B   75000       2 3960        RACRACV2    0   
5234521500 2441050941050900      090600      2087B   75000       2 3960        V2    V1    0   
5234523100 2541050941050900      090900      2087B   75000       2 3960        V1    V1    0   
52345264P1 2641050941050900      091000      2087B   75000       2 3960        V1    V1    0   
52345264BV 2741050941050900      091200      2087B   75000       2 3960        V1    V1    0   
5234527200 2841050941050900      091400      2087B   75000       2 3960        V1    V1    0   
5234528000 2941050941050900      091600      2087B   75000       2 3960        V1    V1    0   
52286435BV 3041050941050800      092000      2087B   75000       2 3960        V1 VA2V2    0   
5228642700 3141050841050800      092200      2087B   75000       2 3960        V2    V2    0   
5228641900 3241050841050800      092400      2087B   75000       2 3960        V2    V2    0   
5228640100 3341050841050800      092700      2087B   75000       2 3960        V2    V2    0   
52286096BT 3441050841050800      092800      2087B   75000       2 3960        V2    V1R   0   
52286096BR 3541050841050900      092900      2087B   75000       2 3960        V1R   V1    0   
52286096LE 3641050941050900      092900      2087B   75000       2 3960        V1    V1    0   
5228632800 3741050941050900      092900      2087B   75000       2 3960        V1    V1    0   
52286013P1 3841050941050900      093100      2087B   75000       2 3960        V1    V1    0   
5228631000 3941050941050900      093100      2087B   75000       2 3960        V1    V1    0   
5228713600 4041050941050900      093300      2087B   75000       2 3960        V1    V1    0   
52286013P2 4141050941050900      093300      2087B   75000       2 3960        V1    V1    0   
5228629400 4241050941050900      093500      2087B   75000       2 3960        V1    V1    0   
52286294CV 4341050941050900      093500      2087B   75000       2 3960        V1    V1    0   
5228735900 4441050941050900      093600      2087B   75000       2 3960        V1 V1 V1R   0   
52286286BL 4541050941050900      093700      2087B   75000       2 3960        V1RV1RV1    0   
522862864M 4641050941050900      093800      2087B   75000       2 3960        V1    V1    0   
52286286RN 4741050941050900      093800      2087B   75000       2 3960        V1    V1    0   
5228627800 4841050941050900      094100      2087B   75000       2 3960        V1    V1    0   
5228614600 4941050941050900      094900      2087B   75000       2 3960        V1 VO VBA   0   
52286146SI 5041050941050900      095000      2087B   75000       2 3960        VBA   VBA   0   
5228637700 51410509      00101800            2087B   75000       2 3960        VBAVU       0   
5024001652  9SER4105080087080600R410509MA1000000000000000000000000000000000000000000000000000000000000000000000000000000000000000000000000000000000000000000000000000000000000000000010000001000000000000000000001000000000000000000000000000000000000000000000000000000000000000000000000000001000000000000000000000000000000000000000000000000000000000000000000000000000000000000000000000000000000000000000000000000000000000000000000000000000000000000345314TR286377002187FRR05          72200    410512   
75    26KXBN  1345314TR 51286377001518182                     
52345314TR  1      41050800            08060002   87B      75000  2      3960        TRI   0   
523453141P  241050841050800      080700      2087B   75000       2 3960        TRITRIV2    0   
52345314AT  341050841050800      080900      2087B   75000       2 3960        V2    V2    0   
5234530600  441050841050800      081400      2087B   75000       2 3960        V2    V2    0   
52345009SI  541050841050900      081900      2087B   75000       2 3960        V2 V1 V1X   0   
52345009AM  641050941050900      082100      2087B   75000       2 3960        V1X   V1X   0   
52345009BV  741050941050900082500      0840002287B87B75000 75000 223960  3960  V1XV2RV1    0   
5234500918  841050941050900      084100      2087B   75000       2 3960        V1    V1    0   
5234520700  941050941050900      084500      2087B   75000       2 3960        V1    V1    0   
5234522300 1041050941050900      084800      2087B   75000       2 3960        V1    V1    0   
5234524900 1141050941050900      085100      2087B   75000       2 3960        V1    V1    0   
52241760BE 1241050941050900      085100      2087B   75000       2 3960        V1    V2R   0   
52241760MR 1341050941050800      085200      2087B   75000       2 3960        V2RV2RV2    0   
52241760BO 1441050841050800      085300      2087B   75000       2 3960        V2    V2    0   
52241760BD 1541050841050800      085400      2087B   75000       2 3960        V2    V2    0   
5234516500 1641050841050800      085500      2087B   75000       2 3960        V2    V2    0   
5234515700 1741050841050800      085800      2087B   75000       2 3960        V2    V2    0   
5234514000 1841050841050800      090100      2087B   75000       2 3960        V2    V2    0   
52345140P2 1941050841050800      090200      2087B   75000       2 3960        V2    V2    0   
52345140P1 2041050841050800      090200      2087B   75000       2 3960        V2    V2    0   
5234513200 2141050841050800      090300      2087B   75000       2 3960        V2    V2    0   
52345124BV 2241050841050800      090500      2087B   75000       2 3960        V2    RAC   0   
52345025BE 2341050841050900      090600      2087B   75000       2 3960        RACRACV2    0   
5234521500 2441050941050900      090600      2087B   75000       2 3960        V2    V1    0   
5234523100 2541050941050900      090900      2087B   75000       2 3960        V1    V1    0   
52345264P1 2641050941050900      091000      2087B   75000       2 3960        V1    V1    0   
52345264BV 2741050941050900      091200      2087B   75000       2 3960        V1    V1    0   
5234527200 2841050941050900      091400      2087B   75000       2 3960        V1    V1    0   
5234528000 2941050941050900      091600      2087B   75000       2 3960        V1    V1    0   
52286435BV 3041050941050800      092000      2087B   75000       2 3960        V1 VA2V2    0   
5228642700 3141050841050800      092200      2087B   75000       2 3960        V2    V2    0   
5228641900 3241050841050800      092300      2087B   75000       2 3960        V2    V2    0   
5228640100 3341050841050800      092600      2087B   75000       2 3960        V2    V2    0   
52286096BT 3441050841050800      092700      2087B   75000       2 3960        V2    V1R   0   
52286096BR 3541050841050900      092800      2087B   75000       2 3960        V1R   V1    0   
52286096LE 3641050941050900      092800      2087B   75000       2 3960        V1    V1    0   
5228632800 3741050941050900      092800      2087B   75000       2 3960        V1    V1    0   
52286013P1 3841050941050900      093000      2087B   75000       2 3960        V1    V1    0   
5228631000 3941050941050900      093000      2087B   75000       2 3960        V1    V1    0   
5228713600 4041050941050900      093200      2087B   75000       2 3960        V1    V1    0   
52286013P2 4141050941050900      093200      2087B   75000       2 3960        V1    V1    0   
5228629400 4241050941050900      093400      2087B   75000       2 3960        V1    V1    0   
52286294CV 4341050941050900      093400      2087B   75000       2 3960        V1    V1    0   
5228735900 4441050941050900      093600      2087B   75000       2 3960        V1 V1 V1R   0   
52286286BL 4541050941050900      093600      2087B   75000       2 3960        V1RV1RV1    0   
522862864M 4641050941050900      093700      2087B   75000       2 3960        V1    V1    0   
52286286RN 4741050941050900      093700      2087B   75000       2 3960        V1    V1    0   
5228627800 4841050941050900      094100      2087B   75000       2 3960        V1    V1    0   
5228614600 4941050941050900      094900      2087B   75000       2 3960        V1 VO VBA   0   
52286146SI 5041050941050900      095000      2087B   75000       2 3960        VBA   VBA   0   
5228637700 51410509      00101800            2087B   75000       2 3960        VBAVU       0   
5024001652 21SER4105080087080600R410509MA1000011110000000000000000011110001111000000000000000001111000111100011110001111000111100011110001111000111100011110000000000000000011110001101000110100011110001111000110100011110001111000111100011110001111000111100011110001111000111100011110001110000111100011110001111000111100011110000000000000000011110001000000100100010010000000000010000000000000000000111100011110000000000000000000000000000000000000345314TR286377002187FRR05          72200    410512   
75    26KXBN  1345314TR 51286377001518182                     
