01MAS202412152025121350
5024001613  1SER 197010087070900R 19701E16N 0111110011011001101100111110001111001111100111110011111001111100111110001101001111100111110001111001111100111110011111001111100011110011101001110100111110011111001110100111110001111001111100111110011111001111100011110001111001111100111110011110001111100111110011111001111100111110011111001111100111110011111001111100111110011111001011100111110011111001111100111110000000000000000000000000000000000000286005BV286542XB1387RBL01                            
75    26MGRP  1286005BV 12286542XB1854047                     
52286005BV  1       1970100            07090001   RBL      SNCB   1               V9 V1    0   
7215    0111110011011001101100111110001111001111100111110011111001111100111110001101001111100111110001111001111100111110011111001111100011110011101001110100111110011111001110100111110001111001111100111110011111001111100011110001111001111100111110011110001111100111110011111001111100111110011111001111100111110011111001111100111110011111001011100111110011111001111100111110000000000000000000000000000000000000                                                                                                                                                                                                                                                                                                                                                                                                                1500000054520250226085834
73D 197020111110011011001101100111110001111001111100111110011111001111100111110001101001111100111110001111001111100111110011111001111100011110011101001110100111110011111001110100111110001111001111100111110011111001111100011110001111001111100111110011110001111100111110011111001111100111110011111001111100111110011111001111100111110011111001011100111110011111001111100111110000000000000000000000000000000000000  10801500000054520250226085834
74DAM96                           79 101111100110110011011001111100011110011111001111100111110011111001111100011010011111001111100011110011111001111100111110011111000111100111010011101001111100111110011101001111100011110011111001111100111110011111000111100011110011111001111100111100011111001111100111110011111001111100111110011111001111100111110011111001111100111110010111001111100111110011111001111100000000000000000000000000000000000001500000054520250317191929
52286005J9  2 19701 1970100      071200      10RBL   SNCB        1             V1    V1    0   
52286005LO  3 19701 1970100      071200      10RBL   SNCB        1             V1 V1WV1    0   
52286005BW  4 19701 1970100      071330      10RBL   SNCB        1             V1    V1    0   
52286187PI  5 19701 1970100      071400      10RBL   SNCB        1             V1    V1    0   
5228671600  6 19701 1970100071600      07170011RBLRBLSNCB  SNCB  11            V1    V1    0   
5228105500  7 19701 1970100071900      07200011RBLRBLSNCB  SNCB  11            V1    V1    0   
52286732BV  8 19701 1970100072200      07230011RBLRBLSNCB  SNCB  11            V1    V1    0   
52286732AN  9 19701 1970100      072430      10RBL   SNCB        1             V1    V1    0   
52286542BV 10 19701 1970100072630      07273011RBLRBLSNCB  SNCB  11            V1 VC V1    0   
52286542P1 11 19701 1970100      072830      10RBL   SNCB        1             V1    V1    0   
52286542XB 12 19701      00      073000      10RBL   SNCB        1             V1          0   
5024001614  1SER 197030087070900R 19703E16N 0000001000000100000010000001000000100000010000001000000100000010000001000000100000010000001000000100000010000001000000100000010000001000000100000010000001000000100000010000001000000100000010000001000000100000010000001000000100000010000001000000100000010000001000000100000010000001000000100000010000001000000100000010000000000000100000010000001000000100000010000001000000000000000000000000000000000000286005BV286542XB1387RBL01                            
75    26MGUL  1286005BV 12286542XB1854123                     
52286005BV  1       1970300            07090001   RBL      SNCB   1               V9 V1    0   
7215    0000001000000100000010000001000000100000010000001000000100000010000001000000100000010000001000000100000010000001000000100000010000001000000100000010000001000000100000010000001000000100000010000001000000100000010000001000000100000010000001000000100000010000001000000100000010000001000000100000010000001000000100000010000000000000100000010000001000000100000010000001000000000000000000000000000000000000                                                                                                                                                                                                                                                                                                                                                                                                                1500000054520241219192323
73D 197020000001000000100000010000001000000100000010000001000000100000010000001000000100000010000001000000100000010000001000000100000010000001000000100000010000001000000100000010000001000000100000010000001000000100000010000001000000100000010000001000000100000010000001000000100000010000001000000100000010000001000000100000010000000000000100000010000001000000100000010000001000000000000000000000000000000000000  10801500000054520241219192323
74DAM96                          158 200000010000001000000100000010000001000000100000010000001000000100000010000001000000100000010000001000000100000010000001000000100000010000001000000100000010000001000000100000010000001000000100000010000001000000100000010000001000000100000010000001000000100000010000001000000100000010000001000000100000010000001000000100000000000001000000100000010000001000000100000010000000000000000000000000000000000001500000054520250313191657
52286005J9  2 19703 1970300      071230      10RBL   SNCB        1             V1    V1    0   
52286005LO  3 19703 1970300      071230      10RBL   SNCB        1             V1 V1WV1    0   
52286005BW  4 19703 1970300      071400      10RBL   SNCB        1             V1    V1    0   
52286187PI  5 19703 1970300      071430      10RBL   SNCB        1             V1    V1    0   
5228671600  6 19703 1970300071700      07180011RBLRBLSNCB  SNCB  11            V1    V1    0   
5228105500  7 19703 1970300      071930      10RBL   SNCB        1             V1    V1    0   
52286732BV  8 19703 1970300072100      07220011RBLRBLSNCB  SNCB  11            V1    V1    0   
52286732AN  9 19703 1970300      072330      10RBL   SNCB        1             V1    V1    0   
52286542BV 10 19703 1970300072500      07260011RBLRBLSNCB  SNCB  11            V1 VC V1    0   
52286542P1 11 19703 1970300      072700      10RBL   SNCB        1             V1    V1    0   
52286542XB 12 19703      00      072830      10RBL   SNCB        1             V1          0   
5024001615  1SER 197050087080900R 19705E16N 0000001000000100000010000001000000100000010000001000000100000010000000000000000000010000001000000100000010000001000000100000010000001000000100000010000001000000100000010000001000000100000010000001000000100000010000001000000100000010000001000000100000010000001000000100000010000001000000100000010000001000000100000010000000000000100000010000001000000100000010000001000000000000000000000000000000000000286005BV286542XB1387RBL01                            
75    26MGRY  1286005BV 12286542XB1854057                     
52286005BV  1       1970500            08090001   RBL      SNCB   1               V9 V1    0   
7215    0000001000000100000010000001000000100000010000001000000100000010000000000000000000010000001000000100000010000001000000100000010000001000000100000010000001000000100000010000001000000100000010000001000000100000010000001000000100000010000001000000100000010000001000000100000010000001000000100000010000001000000100000010000000000000100000010000001000000100000010000001000000000000000000000000000000000000                                                                                                                                                                                                                                                                                                                                                                                                                1500000054520250227133357
73D 197060000001000000100000010000001000000100000010000001000000100000010000000000000000000010000001000000100000010000001000000100000010000001000000100000010000001000000100000010000001000000100000010000001000000100000010000001000000100000010000001000000100000010000001000000100000010000001000000100000010000001000000100000010000000000000100000010000001000000100000010000001000000000000000000000000000000000000  10801500000054520250227133358
74DAM96                          158 200000010000001000000100000010000001000000100000010000001000000100000000000000000000100000010000001000000100000010000001000000100000010000001000000100000010000001000000100000010000001000000100000010000001000000100000010000001000000100000010000001000000100000010000001000000100000010000001000000100000010000001000000100000000000001000000100000010000001000000100000010000000000000000000000000000000000001500000054520250313191657
52286005J9  2 19705 1970500      081200      10RBL   SNCB        1             V1    V1    0   
52286005LO  3 19705 1970500      081230      10RBL   SNCB        1             V1 V1WV1    0   
52286005BW  4 19705 1970500      081330      10RBL   SNCB        1             V1    V1    0   
52286187PI  5 19705 1970500      081400      10RBL   SNCB        1             V1    V1    0   
5228671600  6 19705 1970500      081600      10RBL   SNCB        1             V1    V1    0   
5228105500  7 19705 1970500      081630      10RBL   SNCB        1             V1    V1    0   
52286732BV  8 19705 1970500081800      08190011RBLRBLSNCB  SNCB  11            V1    V1    0   
52286732AN  9 19705 1970500      082030      10RBL   SNCB        1             V1    V1    0   
52286542BV 10 19705 1970500082300      08240011RBLRBLSNCB  SNCB  11            V1 VC V1    0   
52286542P1 11 19705 1970500      082500      10RBL   SNCB        1             V1    V1    0   
52286542XB 12 19705      00      082630      10RBL   SNCB        1             V1          0   
5024001616  1SER 197150087120900R 19715E16N 0111110011011001101100000000000000001111100111110011111001111100111110000000000000000000000000000001111100111110011111001111100011110011101001110100111110011111001110100111110001111001111100111110011111001111100011110001111001111100111110011110001111100111110011111000000000000000011111001111100111110000000000000000000000011111001011100111110011111001111100111110000000000000000000000000000000000000286005BV286542XB1387RBL01                            
75    26MGTN  1286005BV 12286542XB1854077                     
52286005BV  1       1971500            12090001   RBL      SNCB   1               V9 V1    0   
7215    0111110011011001101100000000000000001111100111110011111001111100111110000000000000000000000000000001111100111110011111001111100011110011101001110100111110011111001110100111110001111001111100111110011111001111100011110001111001111100111110011110001111100111110011111000000000000000011111001111100111110000000000000000000000011111001011100111110011111001111100111110000000000000000000000000000000000000                                                                                                                                                                                                                                                                                                                                                                                                                1500000054520250226085834
73D 197140111110011011001101100000000000000001111100111110011111001111100111110000000000000000000000000000001111100111110011111001111100011110011101001110100111110011111001110100111110001111001111100111110011111001111100011110001111001111100111110011110001111100111110011111000000000000000011111001111100111110000000000000000000000011111001011100111110011111001111100111110000000000000000000000000000000000000  10801500000054520250226085834
74DAM96                          158 201111100110110011011000000000000000011111001111100111110011111001111100000000000000000000000000000011111001111100111110011111000111100111010011101001111100111110011101001111100011110011111001111100111110011111000111100011110011111001111100111100011111001111100111110000000000000000111110011111001111100000000000000000000000111110010111001111100111110011111001111100000000000000000000000000000000000001500000054520250226085834
52286005J9  2 19715 1971500      121200      10RBL   SNCB        1             V1    V1    0   
52286005LO  3 19715 1971500      121230      10RBL   SNCB        1             V1 V1WV1    0   
52286005BW  4 19715 1971500      121330      10RBL   SNCB        1             V1    V1    0   
52286187PI  5 19715 1971500      121400      10RBL   SNCB        1             V1    V1    0   
5228671600  6 19715 1971500      121600      10RBL   SNCB        1             V1    V1    0   
5228105500  7 19715 1971500      121630      10RBL   SNCB        1             V1    V1    0   
52286732BV  8 19715 1971500121800      12190011RBLRBLSNCB  SNCB  11            V1    V1    0   
52286732AN  9 19715 1971500      122030      10RBL   SNCB        1             V1    V1    0   
52286542BV 10 19715 1971500122300      12240011RBLRBLSNCB  SNCB  11            V1 VC V1    0   
52286542P1 11 19715 1971500      122500      10RBL   SNCB        1             V1    V1    0   
52286542XB 12 19715      00      122630      10RBL   SNCB        1             V1          0   
5024001617  1SER 197170087120900R 19717E16N 1000001100100110010011000001100000110000011000001100000110000011000001000000110000011000001100000110000011000001100000110000011100001100010110001011000001100000110001011000001110000110000010000001000000100000011100001110000110000011000001100001110000011000001100000110000011000001100000110000011000001100000110000011000001100000110100011000001100000110000011000001000000000000000000000000000000000000286005BV286542XB1387RBL01                            
75    26MGT2  1286005BV 12286542XB1854059                     
52286005BV  1       1971700            12090001   RBL      SNCB   1               V9 V1    0   
7212    0000000000000000000000000000000000000000000000000000000000000000000000000000000000001000000000000000000000000000000000000000000000000000000000000000000000000000000000000000000000000000000000000000000000000000000000000000000000000000000000000000000000000000000000000000000000000000000000000000000000000000000000000000000000000000000000000000000000000000000000000000000000000000000000000000000000000000                                                                                                                                                                                                                                                                                                                                                                                                                1500000054520250313191657
7215    1000001100100110010011000001100000110000011000001100000110000011000001000000110000010000001100000110000011000001100000110000011000001100000110000011000001100000110000011000001100000110000010000001000000100000011000001100000110000011000001100000110000011000001100000110000011000001100000110000011000001100000110000011000001100000110000011000001100000110000011000001000000000000000000000000000000000000                                                                                                                                                                                                                                                                                                                                                                                                                1500000054520250313191657
73D 197141000001100100110010011000001100000110000011000001100000110000011000001000000110000011000001100000110000011000001100000110000011000001100000110000011000001100000110000011000001100000110000010000001000000100000011000001100000110000011000001100000110000011000001100000110000011000001100000110000011000001100000110000011000001100000110000011000001100000110000011000001000000000000000000000000000000000000  10801500000054520241223191629
74DAM96                          158 210000011001001100100110000011000001100000110000011000001100000110000010000001100000110000011000001100000110000011000001100000110000011000001100000110000011000001100000110000011000001100000100000010000001000000110000011000001100000110000011000001100000110000011000001100000110000011000001100000110000011000001100000110000011000001100000110000011000001100000110000010000000000000000000000000000000000001500000054520250313191657
52286005J9  2 19717 1971700      121200      10RBL   SNCB        1             V1    V1    0   
52286005LO  3 19717 1971700      121200      10RBL   SNCB        1             V1 V1WV1    0   
52286005BW  4 19717 1971700      121330      10RBL   SNCB        1             V1    V1    0   
52286187PI  5 19717 1971700      121400      10RBL   SNCB        1             V1    V1    0   
5228671600  6 19717 1971700121700      12180011RBLRBLSNCB  SNCB  11            V1    V1    0   
5228105500  7 19717 1971700      121930      10RBL   SNCB        1             V1    V1    0   
52286732BV  8 19717 1971700122100      12220011RBLRBLSNCB  SNCB  11            V1    V1    0   
52286732AN  9 19717 1971700      122330      10RBL   SNCB        1             V1    V1    0   
52286542BV 10 19717 1971700122500      12260011RBLRBLSNCB  SNCB  11            V1 VC V1    0   
52286542P1 11 19717 1971700      122700      10RBL   SNCB        1             V1    V1    0   
52286542XB 12 19717      00      122830      10RBL   SNCB        1             V1          0   
5024001617  2R4S 197170087120900R 19717E16N 0000000000000000000000000000000000000000000000000000000000000000000000000000000000000000000000000000000000000000000000000000000000000000000000000000000000000000000000000000000000000000000001000000100000010000000000000000000000000000000000000000000000000000000000000000000000000000000000000000000000000000000000000000000000000000000000000000000000000000000000000000000000000000000000000000000000000000286005BV286542XB1387RBL01                            
75    26Y7GD  1286005BV 12286542XB1854059                     
52286005BV  1       1971700            12090001   RBL      SNCB   1               V9 V1    0   
52286005J9  2 19717 1971700      121200      10RBL   SNCB        1             V1    V1    0   
52286005LO  3 19717 1971700      121200      10RBL   SNCB        1             V1 V1WV1    0   
52286005BW  4 19717 1971700      121330      10RBL   SNCB        1             V1    V1    0   
52286187PI  5 19717 1971700      121400      10RBL   SNCB        1             V1    V1    0   
5228671600  6 19717 1971700121700      12180011RBLRBLSNCB  SNCB  11            V1    V1    0   
5228105500  7 19717 1971700      121930      10RBL   SNCB        1             V1    V1    0   
52286732BV  8 19717 1971700122100      12220011RBLRBLSNCB  SNCB  11            V1    V1    0   
52286732AN  9 19717 1971700      122330      10RBL   SNCB        1             V1    V1    0   
52286542BV 10 19717 1971700122500      12260011RBLRBLSNCB  SNCB  11            V1 VC V1    0   
52286542P1 11 19717 1971700      122700      10RBL   SNCB        1             V1    V1    0   
52286542XB 12 19717      00      122830      10RBL   SNCB        1             V1          0   
5024001618  1SER 197190087140900R 19719E16N 0111110011011001101100111110001111001111100111110011111001111100111110000000001111100111110001111001111100111110011111001111100011110011101001110100111110011111001110100111110001111001111100111110011111001111100011110001111001111100111110011110001111100111110011111001111100111110011111001111100111110011111001111100111110011111001011100111110011111001111100111110000000000000000000000000000000000000286005BV286542XB1387RBL01                            
75    26MGTJ  1286005BV 12286542XB1854073                     
52286005BV  1       1971900            14090001   RBL      SNCB   1               V9 V1    0   
7215    0111110011011001101100111110001111001111100111110011111001111100111110000000001111100111110001111001111100111110011111001111100011110011101001110100111110011111001110100111110001111001111100111110011111001111100011110001111001111100111110011110001111100111110011111001111100111110011111001111100111110011111001111100111110011111001011100111110011111001111100111110000000000000000000000000000000000000                                                                                                                                                                                                                                                                                                                                                                                                                1500000054520250226085834
73D 197160111110011011001101100111110001111001111100111110011111001111100111110000000001111100111110001111001111100111110011111001111100011110011101001110100111110011111001110100111110001111001111100111110011111001111100011110001111001111100111110011110001111100111110011111001111100111110011111001111100111110011111001111100111110011111001011100111110011111001111100111110000000000000000000000000000000000000  10801500000054520250226085834
74DAM96                          158 201111100110110011011001111100011110011111001111100111110011111001111100000000011111001111100011110011111001111100111110011111000111100111010011101001111100111110011101001111100011110011111001111100111110011111000111100011110011111001111100111100011111001111100111110011111001111100111110011111001111100111110011111001111100111110010111001111100111110011111001111100000000000000000000000000000000000001500000054520250317191929
52286005J9  2 19719 1971900      141200      10RBL   SNCB        1             V1    V1    0   
52286005LO  3 19719 1971900      141230      10RBL   SNCB        1             V1 V1WV1    0   
52286005BW  4 19719 1971900      141330      10RBL   SNCB        1             V1    V1    0   
52286187PI  5 19719 1971900      141400      10RBL   SNCB        1             V1    V1    0   
5228671600  6 19719 1971900      141600      10RBL   SNCB        1             V1    V1    0   
5228105500  7 19719 1971900      141630      10RBL   SNCB        1             V1    V1    0   
52286732BV  8 19719 1971900141800      14190011RBLRBLSNCB  SNCB  11            V1    V1    0   
52286732AN  9 19719 1971900      142030      10RBL   SNCB        1             V1    V1    0   
52286542BV 10 19719 1971900142300      14240011RBLRBLSNCB  SNCB  11            V1 VC V1    0   
52286542P1 11 19719 1971900      142530      10RBL   SNCB        1             V1    V1    0   
52286542XB 12 19719      00      142700      10RBL   SNCB        1             V1          0   
5024001619  1SER 197210087140300R 19721E16N 1000001100100110010011000001100000110000011000001100000110000011000001000000110000011000001100000110000011000001100000110000011100001100010110001011000001100000110001011000001110000110000011000001100000110000011100001110000110000011000001100001110000011000001100000110000011000001100000110000011000001100000110000011000001100000110100011000001100000110000011000001000000000000000000000000000000000000286005BV286542XB1387RBL01                            
75    26MGU4  1286005BV 12286542XB1854110                     
52286005BV  1       1972100            14030001   RBL      SNCB   1               V9 V1    0   
7215    1000001100100110010011000001100000110000011000001100000110000011000001000000110000011000001100000110000011000001100000110000011000001100000110000011000001100000110000011000001100000110000011000001100000110000011000001100000110000011000001100000110000011000001100000110000011000001100000110000011000001100000110000011000001100000110000011000001100000110000011000001000000000000000000000000000000000000                                                                                                                                                                                                                                                                                                                                                                                                                1500000054520241223191629
73D 197321000001100100110010011000001100000110000011000001100000110000011000001000000110000011000001100000110000011000001100000110000011000001100000110000011000001100000110000011000001100000110000011000001100000110000011000001100000110000011000001100000110000011000001100000110000011000001100000110000011000001100000110000011000001100000110000011000001100000110000011000001000000000000000000000000000000000000   7201500000054520241223191629
74DAM96                          158 210000011001001100100110000011000001100000110000011000001100000110000010000001100000110000011000001100000110000011000001100000110000011000001100000110000011000001100000110000011000001100000110000011000001100000110000011000001100000110000011000001100000110000011000001100000110000011000001100000110000011000001100000110000011000001100000110000011000001100000110000010000000000000000000000000000000000001500000054520241223191629
52286005J9  2 19721 1972100      140600      10RBL   SNCB        1             V1    V1    0   
52286005LO  3 19721 1972100      140600      10RBL   SNCB        1             V1 V1WV1    0   
52286005BW  4 19721 1972100      140730      10RBL   SNCB        1             V1    V1    0   
52286187PI  5 19721 1972100      140800      10RBL   SNCB        1             V1    V1    0   
5228671600  6 19721 1972100141000      14110011RBLRBLSNCB  SNCB  11            V1    V1    0   
5228105500  7 19721 1972100141300      14140011RBLRBLSNCB  SNCB  11            V1    V1    0   
52286732BV  8 19721 1972100141600      14170011RBLRBLSNCB  SNCB  11            V1    V1    0   
52286732AN  9 19721 1972100      141830      10RBL   SNCB        1             V1    V1    0   
52286542BV 10 19721 1972100142100      14220011RBLRBLSNCB  SNCB  11            V1 VC V1    0   
52286542P1 11 19721 1972100      142300      10RBL   SNCB        1             V1    V1    0   
52286542XB 12 19721      00      142430      10RBL   SNCB        1             V1          0   
5024001620  1SER 197230087150900R 19723E16N 1000001100100110010011000001100000110000011000001100000110000011000001000000100000011000001100000110000011000001100000110000011100001100010110001011000001100000110001011000001110000110000011000001100000110000011100001100000110000011000001100001110000011000001100000110000011000001100000110000011000001100000110000011000001100000110100011000001100000110000011000001000000000000000000000000000000000000286005BV286542XB1387RBL01                            
75    26MGT4  1286005BV 12286542XB1854060                     
52286005BV  1       1972300            15090001   RBL      SNCB   1               V9 V1    0   
7215    1000001100100110010011000001100000110000011000001100000110000011000001000000100000011000001100000110000011000001100000110000011000001100000110000011000001100000110000011000001100000110000011000001100000110000011000001100000110000011000001100000110000011000001100000110000011000001100000110000011000001100000110000011000001100000110000011000001100000110000011000001000000000000000000000000000000000000                                                                                                                                                                                                                                                                                                                                                                                                                1500000054520250228114248
73D 197181000001100100110010011000001100000110000011000001100000110000011000001000000100000011000001100000110000011000001100000110000011000001100000110000011000001100000110000011000001100000110000011000001100000110000011000001100000110000011000001100000110000011000001100000110000011000001100000110000011000001100000110000011000001100000110000011000001100000110000011000001000000000000000000000000000000000000  10801500000054520250228114248
74DAM96                          158 210000011001001100100110000011000001100000110000011000001100000110000010000001000000110000011000001100000110000011000001100000110000011000001100000110000011000001100000110000011000001100000110000011000001100000110000011000001100000110000011000001100000110000011000001100000110000011000001100000110000011000001100000110000011000001100000110000011000001100000110000010000000000000000000000000000000000001500000054520250228114248
52286005J9  2 19723 1972300      151200      10RBL   SNCB        1             V1    V1    0   
52286005LO  3 19723 1972300      151230      10RBL   SNCB        1             V1 V1WV1    0   
52286005BW  4 19723 1972300      151330      10RBL   SNCB        1             V1    V1    0   
52286187PI  5 19723 1972300      151400      10RBL   SNCB        1             V1    V1    0   
5228671600  6 19723 1972300      151600      10RBL   SNCB        1             V1    V1    0   
5228105500  7 19723 1972300      151630      10RBL   SNCB        1             V1    V1    0   
52286732BV  8 19723 1972300151800      15190011RBLRBLSNCB  SNCB  11            V1    V1    0   
52286732AN  9 19723 1972300      152030      10RBL   SNCB        1             V1    V1    0   
52286542BV 10 19723 1972300152300      15240011RBLRBLSNCB  SNCB  11            V1 VC V1    0   
52286542P1 11 19723 1972300      152500      10RBL   SNCB        1             V1    V1    0   
52286542XB 12 19723      00      152630      10RBL   SNCB        1             V1          0   
5024001620  2SER 197230087153300R 19723E16N 0000000000000000000000000000000000000000000000000000000000000000000000000000000000000000000000000000000000000000000000000000000000000000000000000000000000000000000000000000000000000000000000000000000000000000000000000010000000000000000000000000000000000000000000000000000000000000000000000000000000000000000000000000000000000000000000000000000000000000000000000000000000000000000000000000000000000000286005BV286542XB1387RBL01                            
75    26MGT3  1286005BV 12286542XB1854060                     
52286005BV  1       1972300            15330001   RBL      SNCB   1               V9 V1    0   
52286005J9  2 19723 1972300      153530      10RBL   SNCB        1             V1    V1    0   
52286005LO  3 19723 1972300      153600      10RBL   SNCB        1             V1 V1WV1    0   
52286005BW  4 19723 1972300      153700      10RBL   SNCB        1             V1    V1    0   
52286187PI  5 19723 1972300      153730      10RBL   SNCB        1             V1    V1    0   
5228671600  6 19723 1972300      153930      10RBL   SNCB        1             V1    V1    0   
5228105500  7 19723 1972300      154030      10RBL   SNCB        1             V1    V1    0   
52286732BV  8 19723 1972300154200      15430011RBLRBLSNCB  SNCB  11            V1    V1    0   
52286732AN  9 19723 1972300      154400      10RBL   SNCB        1             V1    V1    0   
52286542BV 10 19723 1972300154630      15473011RBLRBLSNCB  SNCB  11            V1 VC V1    0   
52286542P1 11 19723 1972300      154830      10RBL   SNCB        1             V1    V1    0   
52286542XB 12 19723      00      155000      10RBL   SNCB        1             V1          0   
5024001621  1SER 197270087160300R 19727E16N 0000001000000100000010000001000000100000010000001000000100000010000001000000100000010000001000000100000010000001000000100000010000001000000100000010000001000000100000010000001000000100000010000001000000100000010000001000000100000010000001000000100000010000001000000100000010000001000000100000010000001000000100000010000000000000100000010000001000000100000010000001000000000000000000000000000000000000286005BV286542XB1387RBL01                            
75    26MGRG  1286005BV 12286542XB1854041                     
52286005BV  1       1972700            16030001   RBL      SNCB   1               V9 V1    0   
7215    0000001000000100000010000001000000100000010000001000000100000010000001000000100000010000001000000100000010000001000000100000010000001000000100000010000001000000100000010000001000000100000010000001000000100000010000001000000100000010000001000000100000010000001000000100000010000001000000100000010000001000000100000010000000000000100000010000001000000100000010000001000000000000000000000000000000000000                                                                                                                                                                                                                                                                                                                                                                                                                1500000054520241219192323
73D 197200000001000000100000010000001000000100000010000001000000100000010000001000000100000010000001000000100000010000001000000100000010000001000000100000010000001000000100000010000001000000100000010000001000000100000010000001000000100000010000001000000100000010000001000000100000010000001000000100000010000001000000100000010000000000000100000010000001000000100000010000001000000000000000000000000000000000000   7201500000054520241219192323
74DAM96                          158 200000010000001000000100000010000001000000100000010000001000000100000010000001000000100000010000001000000100000010000001000000100000010000001000000100000010000001000000100000010000001000000100000010000001000000100000010000001000000100000010000001000000100000010000001000000100000010000001000000100000010000001000000100000000000001000000100000010000001000000100000010000000000000000000000000000000000001500000054520250313191657
52286005J9  2 19727 1972700      160600      10RBL   SNCB        1             V1    V1    0   
52286005LO  3 19727 1972700      160600      10RBL   SNCB        1             V1 V1WV1    0   
52286005BW  4 19727 1972700      160730      10RBL   SNCB        1             V1    V1    0   
52286187PI  5 19727 1972700      160800      10RBL   SNCB        1             V1    V1    0   
5228671600  6 19727 1972700161000      16110011RBLRBLSNCB  SNCB  11            V1    V1    0   
5228105500  7 19727 1972700161300      16140011RBLRBLSNCB  SNCB  11            V1    V1    0   
52286732BV  8 19727 1972700161600      16170011RBLRBLSNCB  SNCB  11            V1    V1    0   
52286732AN  9 19727 1972700      161830      10RBL   SNCB        1             V1    V1    0   
52286542BV 10 19727 1972700162100      16220011RBLRBLSNCB  SNCB  11            V1 VC V1    0   
52286542P1 11 19727 1972700      162300      10RBL   SNCB        1             V1    V1    0   
52286542XB 12 19727      00      162430      10RBL   SNCB        1             V1          0   
5024001622  1SER 197290087180900R 19729E16N 0111110011011001101100111110001111001111100111110011111001111100111110001111001111100111110011111001111100111110011111001111100011110011101001110100111110011111001110100111110001111001111100111110011111001111100011110001111001111100111110011110001111100111110011111001111100111110011111001111100111110011111001111100111110011111001011100111110011111001111100111110000000000000000000000000000000000000286005BV286542XB1387RBL01                            
75    26MGRU  1286005BV 12286542XB1854054                     
52286005BV  1       1972900            18090001   RBL      SNCB   1               V9 V1    0   
7214    0000010000001000000100000010000001000000100000010000001000000100000010000001000000100000010000001000000100000010000001000000100000010000001000000100000010000001000000100000010000001000000100000010000001000000100000010000001000000100000010000000000000100000010000001000000100000010000001000000100000010000001000000100000010000001000000100000010000001000000100000010000000000000000000000000000000000000                                                                                                                                                                                                                                                                                                                                                                                                                1500000054520241218193035
7215    0111100011010001101000111100001110001111000111100011110001111000111100001110001111000111100011110001111000111100011110001111000011100011100001110000111100011110001110000111100001110001111000111100011110001111000011100001110001111000111100011110001111000111100011110001111000111100011110001111000111100011110001111000111100011110001011000111100011110001111000111100000000000000000000000000000000000000                                                                                                                                                                                                                                                                                                                                                                                                                1500000054520241217191710
73D 197420111110011011001101100111110001111001111100111110011111001111100111110001111001111100111110011111001111100111110011111001111100011110011101001110100111110011111001110100111110001111001111100111110011111001111100011110001111001111100111110011110001111100111110011111001111100111110011111001111100111110011111001111100111110011111001011100111110011111001111100111110000000000000000000000000000000000000  10801500000054520241218193035
74DAM96                          158 201111100110110011011001111100011110011111001111100111110011111001111100011110011111001111100111110011111001111100111110011111000111100111010011101001111100111110011101001111100011110011111001111100111110011111000111100011110011111001111100111100011111001111100111110011111001111100111110011111001111100111110011111001111100111110010111001111100111110011111001111100000000000000000000000000000000000001500000054520250317191929
52286005J9  2 19729 1972900      181200      10RBL   SNCB        1             V1    V1    0   
52286005LO  3 19729 1972900      181200      10RBL   SNCB        1             V1 V1WV1    0   
52286005BW  4 19729 1972900      181330      10RBL   SNCB        1             V1    V1    0   
52286187PI  5 19729 1972900      181400      10RBL   SNCB        1             V1    V1    0   
5228671600  6 19729 1972900181600      18170011RBLRBLSNCB  SNCB  11            V1    V1    0   
5228105500  7 19729 1972900181900      18200011RBLRBLSNCB  SNCB  11            V1    V1    0   
52286732BV  8 19729 1972900182130      18223011RBLRBLSNCB  SNCB  11            V1    V1    0   
52286732AN  9 19729 1972900      182400      10RBL   SNCB        1             V1    V1    0   
52286542BV 10 19729 1972900182600      18270011RBLRBLSNCB  SNCB  11            V1 VC V1    0   
52286542P1 11 19729 1972900      182800      10RBL   SNCB        1             V1    V1    0   
52286542XB 12 19729      00      182930      10RBL   SNCB        1             V1          0   
5024001623  1SER 197310087180900R 19731E16N 0000001000000100000010000001000000100000010000001000000100000010000001000000100000010000001000000100000010000001000000100000010000001000000100000010000001000000100000010000001000000100000010000001000000100000010000001000000100000010000001000000100000010000001000000100000010000001000000100000010000001000000100000010000000000000100000010000001000000100000010000001000000000000000000000000000000000000286005BV286542XB1387RBL01                            
75    26MGUV  1286005BV 12286542XB1854132                     
52286005BV  1       1973100            18090001   RBL      SNCB   1               V9 V1    0   
7215    0000001000000100000010000001000000100000010000001000000100000010000001000000100000010000001000000100000010000001000000100000010000001000000100000010000001000000100000010000001000000100000010000001000000100000010000001000000100000010000001000000100000010000001000000100000010000001000000100000010000001000000100000010000000000000100000010000001000000100000010000001000000000000000000000000000000000000                                                                                                                                                                                                                                                                                                                                                                                                                1500000054520241219192323
73D 197220000001000000100000010000001000000100000010000001000000100000010000001000000100000010000001000000100000010000001000000100000010000001000000100000010000001000000100000010000001000000100000010000001000000100000010000001000000100000010000001000000100000010000001000000100000010000001000000100000010000001000000100000010000000000000100000010000001000000100000010000001000000000000000000000000000000000000  10801500000054520241219192323
74DAM96                          158 200000010000001000000100000010000001000000100000010000001000000100000010000001000000100000010000001000000100000010000001000000100000010000001000000100000010000001000000100000010000001000000100000010000001000000100000010000001000000100000010000001000000100000010000001000000100000010000001000000100000010000001000000100000000000001000000100000010000001000000100000010000000000000000000000000000000000001500000054520250313191657
52286005J9  2 19731 1973100      181230      10RBL   SNCB        1             V1    V1    0   
52286005LO  3 19731 1973100      181230      10RBL   SNCB        1             V1 V1WV1    0   
52286005BW  4 19731 1973100      181400      10RBL   SNCB        1             V1    V1    0   
52286187PI  5 19731 1973100      181430      10RBL   SNCB        1             V1    V1    0   
5228671600  6 19731 1973100181700      18180011RBLRBLSNCB  SNCB  11            V1    V1    0   
5228105500  7 19731 1973100      181930      10RBL   SNCB        1             V1    V1    0   
52286732BV  8 19731 1973100182100      18220011RBLRBLSNCB  SNCB  11            V1    V1    0   
52286732AN  9 19731 1973100      182330      10RBL   SNCB        1             V1    V1    0   
52286542BV 10 19731 1973100182500      18260011RBLRBLSNCB  SNCB  11            V1 VC V1    0   
52286542P1 11 19731 1973100      182700      10RBL   SNCB        1             V1    V1    0   
52286542XB 12 19731      00      182830      10RBL   SNCB        1             V1          0   
5024001624  1SER 197330087180300R 19733E16N 1000000100100010010001000000000000010000001000000100000010000001000000000000010000001000000100000010000001000000100000010000001100000100010010001001000000100000010001001000000110000010000001000000100000010000001100000110000010000001000000100001010000001000000100000010000001000000100000010000001000000100000010000001000001100000010100001000000100000010000001000000000000000000000000000000000000000000286005BV286542XB1387RBL01                            
75    26MGTP  1286005BV 12286542XB1854078                     
52286005BV  1       1973300            18030001   RBL      SNCB   1               V9 V1    0   
7215    1000000100100010010001000000000000010000001000000100000010000001000000000000010000001000000100000010000001000000100000010000001000000100000010000001000000100000010000001000000100000010000001000000100000010000001000000100000010000001000000100000010000001000000100000010000001000000100000010000001000000100000010000001000000100000010000001000000100000010000001000000000000000000000000000000000000000000                                                                                                                                                                                                                                                                                                                                                                                                                1500000054520241223191629
73D 197221000000100100010010001000000000000010000001000000100000010000001000000000000010000001000000100000010000001000000100000010000001000000100000010000001000000100000010000001000000100000010000001000000100000010000001000000100000010000001000000100000010000001000000100000010000001000000100000010000001000000100000010000001000000100000010000001000000100000010000001000000000000000000000000000000000000000000   7201500000054520241223191629
74DAM96                          158 210000001001000100100010000000000000100000010000001000000100000010000000000000100000010000001000000100000010000001000000100000010000001000000100000010000001000000100000010000001000000100000010000001000000100000010000001000000100000010000001000000100000010000001000000100000010000001000000100000010000001000000100000010000001000000100000010000001000000100000010000000000000000000000000000000000000000001500000054520241223191629
52286005J9  2 19733 1973300      180600      10RBL   SNCB        1             V1    V1    0   
52286005LO  3 19733 1973300      180600      10RBL   SNCB        1             V1 V1WV1    0   
52286005BW  4 19733 1973300      180730      10RBL   SNCB        1             V1    V1    0   
52286187PI  5 19733 1973300      180800      10RBL   SNCB        1             V1    V1    0   
5228671600  6 19733 1973300181000      18110011RBLRBLSNCB  SNCB  11            V1    V1    0   
5228105500  7 19733 1973300181300      18140011RBLRBLSNCB  SNCB  11            V1    V1    0   
52286732BV  8 19733 1973300181600      18170011RBLRBLSNCB  SNCB  11            V1    V1    0   
52286732AN  9 19733 1973300      181830      10RBL   SNCB        1             V1    V1    0   
52286542BV 10 19733 1973300182100      18220011RBLRBLSNCB  SNCB  11            V1 VC V1    0   
52286542P1 11 19733 1973300      182300      10RBL   SNCB        1             V1    V1    0   
52286542XB 12 19733      00      182430      10RBL   SNCB        1             V1          0   
5024001625  1SER 197470087170900R 19747E16N 1000001100100110010011000001100000110000011000001100000110000011000001000000100000011000001100000110000011000001100000110000011100001100010110001011000001100000110001011000001110000110000011000001100000110000011100001110000110000011000001100001110000011000001100000110000011000001100000110000011000001100000110000011000001100000110100011000001100000110000011000001000000000000000000000000000000000000286005BV286542XB1387RBL01                            
75    26MGRN  1286005BV 12286542XB1854046                     
52286005BV  1       1974700            17090001   RBL      SNCB   1               V9 V1    0   
7215    1000001100100110010011000001100000110000011000001100000110000011000001000000100000011000001100000110000011000001100000110000011000001100000110000011000001100000110000011000001100000110000011000001100000110000011000001100000110000011000001100000110000011000001100000110000011000001100000110000011000001100000110000011000001100000110000011000001100000110000011000001000000000000000000000000000000000000                                                                                                                                                                                                                                                                                                                                                                                                                1500000054520250228114248
73D 197381000001100100110010011000001100000110000011000001100000110000011000001000000100000011000001100000110000011000001100000110000011000001100000110000011000001100000110000011000001100000110000011000001100000110000011000001100000110000011000001100000110000011000001100000110000011000001100000110000011000001100000110000011000001100000110000011000001100000110000011000000000000000000000000000000000000000000   9001500000054520250228114248
74DAM96                           79 100000010000001000000100000010000001000000000000000000000000000000000000000000000000000000000000000000000000000000000000000000000000000000000000000000000000000000000000000000000000000000000000000000000000000000000000000000000000000000000000000000000000000000000000000000000000000000000000000000000000000000000000000000000000000000000000000000000000000000000000000000000000000000000000000000000000000001500000054520250123191627
74DAM96                          158 210000001001000100100010000001000000100000110000011000001100000110000010000001000000110000011000001100000110000011000001100000110000011000001100000110000011000001100000110000011000001100000110000011000001100000110000011000001100000110000011000001100000110000011000001100000110000011000001100000110000011000001100000110000011000001100000110000011000001100000110000000000000000000000000000000000000000001500000054520250228114248
52286005J9  2 19747 1974700      171200      10RBL   SNCB        1             V1    V1    0   
52286005LO  3 19747 1974700      171230      10RBL   SNCB        1             V1 V1WV1    0   
52286005BW  4 19747 1974700      171330      10RBL   SNCB        1             V1    V1    0   
52286187PI  5 19747 1974700      171400      10RBL   SNCB        1             V1    V1    0   
5228671600  6 19747 1974700      171600      10RBL   SNCB        1             V1    V1    0   
5228105500  7 19747 1974700      171630      10RBL   SNCB        1             V1    V1    0   
52286732BV  8 19747 1974700171800      17190011RBLRBLSNCB  SNCB  11            V1    V1    0   
52286732AN  9 19747 1974700      172030      10RBL   SNCB        1             V1    V1    0   
52286542BV 10 19747 1974700172300      17240011RBLRBLSNCB  SNCB  11            V1 VC V1    0   
52286542P1 11 19747 1974700      172500      10RBL   SNCB        1             V1    V1    0   
52286542XB 12 19747      00      172630      10RBL   SNCB        1             V1          0   
5024001626  1SER 197490087210900R 19749E16N 1000000100100010010001000000100000010000001000000100000010000001000000000000010000001000000100000010000001000000100000010000001100000100010010001001000000100000010001001000000110000010000001000000100000010000001100000110000010000001000000100001010000001000000100000010000001000000100000010000001000000100000010000001000001100000010100001000000100000010000001000000000000000000000000000000000000000000286005BV286542XB1387RBL01                            
75    26MGT8  1286005BV 12286542XB1854064                     
52286005BV  1       1974900            21090001   RBL      SNCB   1               V9 V1    0   
7215    1000000100100010010001000000100000010000001000000100000010000001000000000000010000001000000100000010000001000000100000010000001000000100000010000001000000100000010000001000000100000010000001000000100000010000001000000100000010000001000000100000010000001000000100000010000001000000100000010000001000000100000010000001000000100000010000001000000100000010000001000000000000000000000000000000000000000000                                                                                                                                                                                                                                                                                                                                                                                                                1500000054520241223191629
73D 197281000000100100010010001000000100000010000001000000100000010000001000000000000010000001000000100000010000001000000100000010000001000000100000010000001000000100000010000001000000100000010000001000000100000010000001000000100000010000001000000100000010000001000000100000010000001000000100000010000001000000100000010000001000000100000010000001000000100000010000001000000000000000000000000000000000000000000  10801500000054520241223191629
74DAM96                          158 210000001001000100100010000001000000100000010000001000000100000010000000000000100000010000001000000100000010000001000000100000010000001000000100000010000001000000100000010000001000000100000010000001000000100000010000001000000100000010000001000000100000010000001000000100000010000001000000100000010000001000000100000010000001000000100000010000001000000100000010000000000000000000000000000000000000000001500000054520241223191629
52286005J9  2 19749 1974900      211230      10RBL   SNCB        1             V1    V1    0   
52286005LO  3 19749 1974900      211230      10RBL   SNCB        1             V1 V1WV1    0   
52286005BW  4 19749 1974900      211400      10RBL   SNCB        1             V1    V1    0   
52286187PI  5 19749 1974900      211430      10RBL   SNCB        1             V1    V1    0   
5228671600  6 19749 1974900211700      21180011RBLRBLSNCB  SNCB  11            V1    V1    0   
5228105500  7 19749 1974900      211930      10RBL   SNCB        1             V1    V1    0   
52286732BV  8 19749 1974900212100      21220011RBLRBLSNCB  SNCB  11            V1    V1    0   
52286732AN  9 19749 1974900      212330      10RBL   SNCB        1             V1    V1    0   
52286542BV 10 19749 1974900212500      21260011RBLRBLSNCB  SNCB  11            V1 VC V1    0   
52286542P1 11 19749 1974900      212700      10RBL   SNCB        1             V1    V1    0   
52286542XB 12 19749      00      212830      10RBL   SNCB        1             V1          0   
5024001627  1SER 197510087170900R 19751E16N 0111110011011001101100111110001111001111100111110011111001111100111110001110001111100111110011111001111100111110011111001111100011110011101001110100111110011111001110100111110001111001111100111110011111001111100011110001111001111100111110011110001111100111110011111001111100111110011111001111100111110011111001111100111110011111001011100111110011111001111100111110000000000000000000000000000000000000286005BV286542XB1387RBL01                            
75    26MGRW  1286005BV 12286542XB1854055                     
52286005BV  1       1975100            17090001   RBL      SNCB   1               V9 V1    0   
7214    0000010000001000000100000010000001000000100000010000001000000100000010000000000000100000010000001000000100000010000001000000100000010000001000000100000010000001000000100000010000001000000100000010000001000000100000010000001000000100000010000000000000100000010000001000000100000010000001000000100000010000001000000100000010000001000000100000010000001000000100000010000000000000000000000000000000000000                                                                                                                                                                                                                                                                                                                                                                                                                1500000054520241218193035
7215    0111100011010001101000111100001110001111000111100011110001111000111100001110001111000111100011110001111000111100011110001111000011100011100001110000111100011110001110000111100001110001111000111100011110001111000011100001110001111000111100011110001111000111100011110001111000111100011110001111000111100011110001111000111100011110001011000111100011110001111000111100000000000000000000000000000000000000                                                                                                                                                                                                                                                                                                                                                                                                                1500000054520241217191710
73D 197360111110011011001101100111110001111001111100111110011111001111100111110001110001111100111110011111001111100111110011111001111100011110011101001110100111110011111001110100111110001111001111100111110011111001111100011110001111001111100111110011110001111100111110011111001111100111110011111001111100111110011111001111100111110011111001011100111110011111001111100111110000000000000000000000000000000000000  10801500000054520241218193035
74DAM96                           79 101111100110110011011001111100011110011111001111100111110011111001111100011100011111001111100111110011111001111100111110011111000111100111010011101001111100111110011101001111100011110011111001111100111110011111000111100011110011111001111100111100011111001111100111110011111001111100111110011111001111100111110011111001111100111110010111001111100111110011111001111100000000000000000000000000000000000001500000054520241218193035
52286005J9  2 19751 1975100      171200      10RBL   SNCB        1             V1    V1    0   
52286005LO  3 19751 1975100      171200      10RBL   SNCB        1             V1 V1WV1    0   
52286005BW  4 19751 1975100      171330      10RBL   SNCB        1             V1    V1    0   
52286187PI  5 19751 1975100      171400      10RBL   SNCB        1             V1    V1    0   
5228671600  6 19751 1975100171600      17170011RBLRBLSNCB  SNCB  11            V1    V1    0   
5228105500  7 19751 1975100171900      17200011RBLRBLSNCB  SNCB  11            V1    V1    0   
52286732BV  8 19751 1975100172200      17230011RBLRBLSNCB  SNCB  11            V1    V1    0   
52286732AN  9 19751 1975100      172430      10RBL   SNCB        1             V1    V1    0   
52286542BV 10 19751 1975100172630      17273011RBLRBLSNCB  SNCB  11            V1 VC V1    0   
52286542P1 11 19751 1975100      172830      10RBL   SNCB        1             V1    V1    0   
52286542XB 12 19751      00      173000      10RBL   SNCB        1             V1          0   
5024001628  2AGT 198030087074500R 19803E16N 0111110001011001101100111110001111001111100111100000000000000000000000000000000000000000000000000000000000000000000000000000000000000000000000000000000000000000000000000000000000000000000000000000000000000000000000000000000000000000000000000000000000000000000000000000000000000000000000000000000000000000000000000000000000000000000000000000000000000000000000000000000000000000000000000000000000000000295006BV295014XB1387RBL01                            
75    26MUFJ  1295006BV  5295014XB1862119                     
52295006BV  1       1980300            07450001   RBL      SNCB   1               V3 V1    0   
72V3    0111110001011001101100111110001111001111100111100000000000000000000000000000000000000000000000000000000000000000000000000000000000000000000000000000000000000000000000000000000000000000000000000000000000000000000000000000000000000000000000000000000000000000000000000000000000000000000000000000000000000000000000000000000000000000000000000000000000000000000000000000000000000000000000000000000000000000                                                                                                                                                                                                                                                                                                                                                                                                                1500000054520241217191710
73D 198020111110001011001101100111110001111001111100111100000000000000000000000000000000000000000000000000000000000000000000000000000000000000000000000000000000000000000000000000000000000000000000000000000000000000000000000000000000000000000000000000000000000000000000000000000000000000000000000000000000000000000000000000000000000000000000000000000000000000000000000000000000000000000000000000000000000000000  16801500000054520241217191710
5229751500  2 19803 1980300      074830      10RBL   SNCB        1             V1    V1    0   
5229502200  3 19803 1980300      075000      10RBL   SNCB        1             V1    V1    0   
52295014BV  4 19803 1980300      075200      10RBL   SNCB        1             V1    V1    0   
72V1    0111110001011001101100111110001111001111100111100000000000000000000000000000000000000000000000000000000000000000000000000000000000000000000000000000000000000000000000000000000000000000000000000000000000000000000000000000000000000000000000000000000000000000000000000000000000000000000000000000000000000000000000000000000000000000000000000000000000000000000000000000000000000000000000000000000000000000                                                                                                                                                                                                                                                                                                                                                                                                                1500000054520241212191719
74AAM96                           79 101111100010110011011001111100011110011111001111000000000000000000000000000000000000000000000000000000000000000000000000000000000000000000000000000000000000000000000000000000000000000000000000000000000000000000000000000000000000000000000000000000000000000000000000000000000000000000000000000000000000000000000000000000000000000000000000000000000000000000000000000000000000000000000000000000000000000001500000054520250129191954
52295014XB  5 19803      00      075300      10RBL   SNCB        1             V1          0   
5024001628  3R4S 198030087074500R 19803E16N 0000000000000000000000000000000000000000000000010011111001111100111110001001001111100111110001111001111100111110011111001111100011110000000000000000111110011111001110100111110001111001111100111110011111001111100111110001111001111100111110011110001111100111110011111001111100111110011111001111100111110011111001111100111110011111001011100111110011111001111100111110000000000000000000000000000000000000295006BV295014XB1387RBL01                            
75    26MUFJ  1295006BV  5295014XB1862119                     
52295006BV  1       1980300            07450001   RBL      SNCB   1               V3 V1    0   
72V3    0000000000000000000000000000000000000000000000010011111001111100111110001001001111100111110001111001111100111110011111001111100011110000000000000000111110011111001110100111110001111001111100111110011111001111100111110001111001111100111110011110001111100111110011111001111100111110011111001111100111110011111001111100111110011111001011100111110011111001111100111110000000000000000000000000000000000000                                                                                                                                                                                                                                                                                                                                                                                                                1500000054520250226085834
73D 198020000000000000000000000000000000000000000000000010011111001111100111110001001001111100111110001111001111100111110011111001111100011110000000000000000111110011111001110100111110001111001111100111110011111001111100011110001111001111100111110011110001111100111110011111001111100111110011111001111100111110011111001111100111110011111001011100111110011111001111100111110000000000000000000000000000000000000  16801500000054520250226085834
5229751500  2 19803 1980300      074830      10RBL   SNCB        1             V1    V1    0   
5229502200  3 19803 1980300      075000      10RBL   SNCB        1             V1    V1    0   
52295014BV  4 19803 1980300      075200      10RBL   SNCB        1             V1    V1    0   
72V1    0000000000000000000000000000000000000000000000010011111001111100111110001001001111100111110001111001111100111110011111001111100011110000000000000000111110011111001110100111110001111001111100111110011111001111100111110001111001111100111110011110001111100111110011111001111100111110011111001111100111110011111001111100111110011111001011100111110011111001111100111110000000000000000000000000000000000000                                                                                                                                                                                                                                                                                                                                                                                                                1500000054520250226085834
74AAM96                           79 100000000000000000000000000000000000000000000000100111110011111001111100010010011111001111100011110011111001111100111110011111000111100000000000000001100100111110001101001111100011110011111001111100111110011111001111100011110011111001111100111100011101001111100111110011111001111100111110011111001111100111110011111001111100111100010111000111100111110011111001111100000000000000000000000000000000000001500000054520250317191929
52295014XB  5 19803      00      075300      10RBL   SNCB        1             V1          0   
5024001629  2AGT 198050087094500R 19805E16N 0111110011011001101100111110001111001111100111100000000000000000000000000000000000000000000000000000000000000000000000000000000000000000000000000000000000000000000000000000000000000000000000000000000000000000000000000000000000000000000000000000000000000000000000000000000000000000000000000000000000000000000000000000000000000000000000000000000000000000000000000000000000000000000000000000000000000000295006BV295014XB1387RBL01                            
75    26MUF8  1295006BV  5295014XB1862109                     
52295006BV  1       1980500            09450001   RBL      SNCB   1               V3 V1    0   
72V3    0111110011011001101100111110001111001111100111100000000000000000000000000000000000000000000000000000000000000000000000000000000000000000000000000000000000000000000000000000000000000000000000000000000000000000000000000000000000000000000000000000000000000000000000000000000000000000000000000000000000000000000000000000000000000000000000000000000000000000000000000000000000000000000000000000000000000000                                                                                                                                                                                                                                                                                                                                                                                                                1500000054520241217191710
73D 198040111110011011001101100111110001111001111100111100000000000000000000000000000000000000000000000000000000000000000000000000000000000000000000000000000000000000000000000000000000000000000000000000000000000000000000000000000000000000000000000000000000000000000000000000000000000000000000000000000000000000000000000000000000000000000000000000000000000000000000000000000000000000000000000000000000000000000  16801500000054520241217191710
5229751500  2 19805 1980500      094830      10RBL   SNCB        1             V1    V1    0   
5229502200  3 19805 1980500      095000      10RBL   SNCB        1             V1    V1    0   
52295014BV  4 19805 1980500      095200      10RBL   SNCB        1             V1    V1    0   
72V1    0111110011011001101100111110001111001111100111100000000000000000000000000000000000000000000000000000000000000000000000000000000000000000000000000000000000000000000000000000000000000000000000000000000000000000000000000000000000000000000000000000000000000000000000000000000000000000000000000000000000000000000000000000000000000000000000000000000000000000000000000000000000000000000000000000000000000000                                                                                                                                                                                                                                                                                                                                                                                                                1500000054520241212191719
74AAM96                           79 101111100110110011011001111100011110011111001111000000000000000000000000000000000000000000000000000000000000000000000000000000000000000000000000000000000000000000000000000000000000000000000000000000000000000000000000000000000000000000000000000000000000000000000000000000000000000000000000000000000000000000000000000000000000000000000000000000000000000000000000000000000000000000000000000000000000000001500000054520250129191954
52295014XB  5 19805      00      095300      10RBL   SNCB        1             V1          0   
5024001629  3R4S 198050087094500R 19805E16N 0000000000000000000000000000000000000000000000010011111001111100111110011001001111100111110001111001111100111110011111001111100011110000000000000000111110011111001110100111110001111001111100111110011111001111100111110001111001111100111110011110001111100111110011111001111100111110011111001111100111110011111001111100111110011111001011100111110011111001111100111110000000000000000000000000000000000000295006BV295014XB1387RBL01                            
75    26MUF8  1295006BV  5295014XB1862109                     
52295006BV  1       1980500            09450001   RBL      SNCB   1               V3 V1    0   
72V3    0000000000000000000000000000000000000000000000010011111001111100111110011001001111100111110001111001111100111110011111001111100011110000000000000000111110011111001110100111110001111001111100111110011111001111100111110001111001111100111110011110001111100111110011111001111100111110011111001111100111110011111001111100111110011111001011100111110011111001111100111110000000000000000000000000000000000000                                                                                                                                                                                                                                                                                                                                                                                                                1500000054520250226085834
73D 198040000000000000000000000000000000000000000000000010011111001111100111110011001001111100111110001111001111100111110011111001111100011110000000000000000111110011111001110100111110001111001111100111110011111001111100011110001111001111100111110011110001111100111110011111001111100111110011111001111100111110011111001111100111110011111001011100111110011111001111100111110000000000000000000000000000000000000  16801500000054520250226085834
5229751500  2 19805 1980500      094830      10RBL   SNCB        1             V1    V1    0   
5229502200  3 19805 1980500      095000      10RBL   SNCB        1             V1    V1    0   
52295014BV  4 19805 1980500      095200      10RBL   SNCB        1             V1    V1    0   
72V1    0000000000000000000000000000000000000000000000010011111001111100111110011001001111100111110001111001111100111110011111001111100011110000000000000000111110011111001110100111110001111001111100111110011111001111100111110001111001111100111110011110001111100111110011111001111100111110011111001111100111110011111001111100111110011111001011100111110011111001111100111110000000000000000000000000000000000000                                                                                                                                                                                                                                                                                                                                                                                                                1500000054520250226085834
74AAM96                           79 100000000000000000000000000000000000000000000000100111110011111001111100110010011111001111100011110011111001111100111110011111000111100000000000000001100100111110001101001111100011110011111001111100111110011111001111100011110011111001111100111100011101001111100111110011111001111100111110011111001111100111110011111001111100111100010111000111100111110011111001111100000000000000000000000000000000000001500000054520250317191929
52295014XB  5 19805      00      095300      10RBL   SNCB        1             V1          0   
5024001630  2AGT 198070087114500R 19807E16N 0111110011011001101100111110001111001111100111100000000000000000000000000000000000000000000000000000000000000000000000000000000000000000000000000000000000000000000000000000000000000000000000000000000000000000000000000000000000000000000000000000000000000000000000000000000000000000000000000000000000000000000000000000000000000000000000000000000000000000000000000000000000000000000000000000000000000000295006BV295014XB1387RBL01                            
75    26MUFG  1295006BV  5295014XB1862117                     
52295006BV  1       1980700            11450001   RBL      SNCB   1               V3 V1    0   
72V3    0111110011011001101100111110001111001111100111100000000000000000000000000000000000000000000000000000000000000000000000000000000000000000000000000000000000000000000000000000000000000000000000000000000000000000000000000000000000000000000000000000000000000000000000000000000000000000000000000000000000000000000000000000000000000000000000000000000000000000000000000000000000000000000000000000000000000000                                                                                                                                                                                                                                                                                                                                                                                                                1500000054520241217191710
73D 198060111110011011001101100111110001111001111100111100000000000000000000000000000000000000000000000000000000000000000000000000000000000000000000000000000000000000000000000000000000000000000000000000000000000000000000000000000000000000000000000000000000000000000000000000000000000000000000000000000000000000000000000000000000000000000000000000000000000000000000000000000000000000000000000000000000000000000  16801500000054520241217191710
5229751500  2 19807 1980700      114830      10RBL   SNCB        1             V1    V1    0   
5229502200  3 19807 1980700      115000      10RBL   SNCB        1             V1    V1    0   
52295014BV  4 19807 1980700      115200      10RBL   SNCB        1             V1    V1    0   
72V1    0111110011011001101100111110001111001111100111100000000000000000000000000000000000000000000000000000000000000000000000000000000000000000000000000000000000000000000000000000000000000000000000000000000000000000000000000000000000000000000000000000000000000000000000000000000000000000000000000000000000000000000000000000000000000000000000000000000000000000000000000000000000000000000000000000000000000000                                                                                                                                                                                                                                                                                                                                                                                                                1500000054520241212191719
74AAM96                           79 101111100110110011011001111100011110011111001111000000000000000000000000000000000000000000000000000000000000000000000000000000000000000000000000000000000000000000000000000000000000000000000000000000000000000000000000000000000000000000000000000000000000000000000000000000000000000000000000000000000000000000000000000000000000000000000000000000000000000000000000000000000000000000000000000000000000000001500000054520250129191954
52295014XB  5 19807      00      115300      10RBL   SNCB        1             V1          0   
5024001630  3R4S 198070087114500R 19807E16N 0000000000000000000000000000000000000000000000010001111000000000111110001001001111100111110001111001111100111110011111000000000000000000000000000000111110011111001110100111110001111001111100111110011111001111100111110001111001111100111110011110001111100111110011111001111100111110011111001111100111110011111000000000000000000000001011100111110011111001111100111110000000000000000000000000000000000000295006BV295014XB1387RBL01                            
75    26MUFG  1295006BV  5295014XB1862117                     
52295006BV  1       1980700            11450001   RBL      SNCB   1               V3 V1    0   
72V3    0000000000000000000000000000000000000000000000010001111000000000111110001001001111100111110001111001111100111110011111000000000000000000000000000000111110011111001110100111110001111001111100111110011111001111100111110001111001111100111110011110001111100111110011111001111100111110011111001111100111110011111000000000000000000000001011100111110011111001111100111110000000000000000000000000000000000000                                                                                                                                                                                                                                                                                                                                                                                                                1500000054520250226085834
73D 198060000000000000000000000000000000000000000000000010001111000000000111110001001001111100111110001111001111100111110011111000000000000000000000000000000111110011111001110100111110001111001111100111110011111001111100011110001111001111100111110011110001111100111110011111001111100111110011111001111100111110011111000000000000000000000001011100111110011111001111100111110000000000000000000000000000000000000  16801500000054520250226085834
5229751500  2 19807 1980700      114830      10RBL   SNCB        1             V1    V1    0   
5229502200  3 19807 1980700      115000      10RBL   SNCB        1             V1    V1    0   
52295014BV  4 19807 1980700      115200      10RBL   SNCB        1             V1    V1    0   
72V1    0000000000000000000000000000000000000000000000010001111000000000111110001001001111100111110001111001111100111110011111000000000000000000000000000000111110011111001110100111110001111001111100111110011111001111100111110001111001111100111110011110001111100111110011111001111100111110011111001111100111110011111000000000000000000000001011100111110011111001111100111110000000000000000000000000000000000000                                                                                                                                                                                                                                                                                                                                                                                                                1500000054520250226085834
74AAM96                           79 100000000000000000000000000000000000000000000000100011110000000001111100010010011111001111100011110011111001111100111110000000000000000000000000000001100100111110001101001111100011110011111001111100111110011111001111100011110011111001111100111100011101001111100111110011111001111100111110011111001111100111110000000000000000000000010111000111100111110011111001111100000000000000000000000000000000000001500000054520250317191929
52295014XB  5 19807      00      115300      10RBL   SNCB        1             V1          0   
5024001631  2AGT 198090087134500R 19809E16N 0111110011011001101100111110001111001111100111100000000000000000000000000000000000000000000000000000000000000000000000000000000000000000000000000000000000000000000000000000000000000000000000000000000000000000000000000000000000000000000000000000000000000000000000000000000000000000000000000000000000000000000000000000000000000000000000000000000000000000000000000000000000000000000000000000000000000000295006BV295014XB1387RBL01                            
75    26MUFR  1295006BV  5295014XB1862126                     
52295006BV  1       1980900            13450001   RBL      SNCB   1               V3 V1    0   
72V3    0111110011011001101100111110001111001111100111100000000000000000000000000000000000000000000000000000000000000000000000000000000000000000000000000000000000000000000000000000000000000000000000000000000000000000000000000000000000000000000000000000000000000000000000000000000000000000000000000000000000000000000000000000000000000000000000000000000000000000000000000000000000000000000000000000000000000000                                                                                                                                                                                                                                                                                                                                                                                                                1500000054520241217191710
73D 198080111110011011001101100111110001111001111100111100000000000000000000000000000000000000000000000000000000000000000000000000000000000000000000000000000000000000000000000000000000000000000000000000000000000000000000000000000000000000000000000000000000000000000000000000000000000000000000000000000000000000000000000000000000000000000000000000000000000000000000000000000000000000000000000000000000000000000  16801500000054520241217191710
5229751500  2 19809 1980900      134830      10RBL   SNCB        1             V1    V1    0   
5229502200  3 19809 1980900      135000      10RBL   SNCB        1             V1    V1    0   
52295014BV  4 19809 1980900      135200      10RBL   SNCB        1             V1    V1    0   
72V1    0111110011011001101100111110001111001111100111100000000000000000000000000000000000000000000000000000000000000000000000000000000000000000000000000000000000000000000000000000000000000000000000000000000000000000000000000000000000000000000000000000000000000000000000000000000000000000000000000000000000000000000000000000000000000000000000000000000000000000000000000000000000000000000000000000000000000000                                                                                                                                                                                                                                                                                                                                                                                                                1500000054520241212191719
74AAM96                           79 101111100110110011011001111100011110011111001111000000000000000000000000000000000000000000000000000000000000000000000000000000000000000000000000000000000000000000000000000000000000000000000000000000000000000000000000000000000000000000000000000000000000000000000000000000000000000000000000000000000000000000000000000000000000000000000000000000000000000000000000000000000000000000000000000000000000000001500000054520250129191954
52295014XB  5 19809      00      135300      10RBL   SNCB        1             V1          0   
5024001631  3R4S 198090087134500R 19809E16N 0000000000000000000000000000000000000000000000010001111000000000111110011001001111100111110001111001111100111110011111000000000000000000000000000000111110011111001110100111110001111001111100111110011111001111100111110001111001111100111110011110001111100111110011111001111100111110011111001111100111110011111000000000000000000000001011100111110011111001111100111110000000000000000000000000000000000000295006BV295014XB1387RBL01                            
75    26MUFR  1295006BV  5295014XB1862126                     
52295006BV  1       1980900            13450001   RBL      SNCB   1               V3 V1    0   
72V3    0000000000000000000000000000000000000000000000010001111000000000111110011001001111100111110001111001111100111110011111000000000000000000000000000000111110011111001110100111110001111001111100111110011111001111100111110001111001111100111110011110001111100111110011111001111100111110011111001111100111110011111000000000000000000000001011100111110011111001111100111110000000000000000000000000000000000000                                                                                                                                                                                                                                                                                                                                                                                                                1500000054520250226085834
73D 198080000000000000000000000000000000000000000000000010001111000000000111110011001001111100111110001111001111100111110011111000000000000000000000000000000111110011111001110100111110001111001111100111110011111001111100011110001111001111100111110011110001111100111110011111001111100111110011111001111100111110011111000000000000000000000001011100111110011111001111100111110000000000000000000000000000000000000  16801500000054520250226085834
5229751500  2 19809 1980900      134830      10RBL   SNCB        1             V1    V1    0   
5229502200  3 19809 1980900      135000      10RBL   SNCB        1             V1    V1    0   
52295014BV  4 19809 1980900      135200      10RBL   SNCB        1             V1    V1    0   
72V1    0000000000000000000000000000000000000000000000010001111000000000111110011001001111100111110001111001111100111110011111000000000000000000000000000000111110011111001110100111110001111001111100111110011111001111100111110001111001111100111110011110001111100111110011111001111100111110011111001111100111110011111000000000000000000000001011100111110011111001111100111110000000000000000000000000000000000000                                                                                                                                                                                                                                                                                                                                                                                                                1500000054520250226085834
74AAM96                           79 100000000000000000000000000000000000000000000000100011110000000001111100110010011111001111100011110011111001111100111110000000000000000000000000000001100100111110001101001111100011110011111001111100111110011111001111100011110011111001111100111100011101001111100111110011111001111100111110011111001111100111110000000000000000000000010111000111100111110011111001111100000000000000000000000000000000000001500000054520250317191929
52295014XB  5 19809      00      135300      10RBL   SNCB        1             V1          0   
5024001632  2AGT 198130087174500R 19813E16N 0111110011011001101100111100001111001111100111100000000000000000000000000000000000000000000000000000000000000000000000000000000000000000000000000000000000000000000000000000000000000000000000000000000000000000000000000000000000000000000000000000000000000000000000000000000000000000000000000000000000000000000000000000000000000000000000000000000000000000000000000000000000000000000000000000000000000000295006BV295014XB1387RBL01                            
75    26MUFF  1295006BV  5295014XB1862116                     
52295006BV  1       1981300            17450001   RBL      SNCB   1               V3 V1    0   
72V3    0111110011011001101100111100001111001111100111100000000000000000000000000000000000000000000000000000000000000000000000000000000000000000000000000000000000000000000000000000000000000000000000000000000000000000000000000000000000000000000000000000000000000000000000000000000000000000000000000000000000000000000000000000000000000000000000000000000000000000000000000000000000000000000000000000000000000000                                                                                                                                                                                                                                                                                                                                                                                                                1500000054520241217191710
73D 198120111110011011001101100111100001111001111100111100000000000000000000000000000000000000000000000000000000000000000000000000000000000000000000000000000000000000000000000000000000000000000000000000000000000000000000000000000000000000000000000000000000000000000000000000000000000000000000000000000000000000000000000000000000000000000000000000000000000000000000000000000000000000000000000000000000000000000  16801500000054520241217191710
5229751500  2 19813 1981300      174830      10RBL   SNCB        1             V1    V1    0   
5229502200  3 19813 1981300      175000      10RBL   SNCB        1             V1    V1    0   
52295014BV  4 19813 1981300      175200      10RBL   SNCB        1             V1    V1    0   
72V1    0111110011011001101100111100001111001111100111100000000000000000000000000000000000000000000000000000000000000000000000000000000000000000000000000000000000000000000000000000000000000000000000000000000000000000000000000000000000000000000000000000000000000000000000000000000000000000000000000000000000000000000000000000000000000000000000000000000000000000000000000000000000000000000000000000000000000000                                                                                                                                                                                                                                                                                                                                                                                                                1500000054520241212191719
74AAM96                           79 101111100110110011011001111000011110011111001111000000000000000000000000000000000000000000000000000000000000000000000000000000000000000000000000000000000000000000000000000000000000000000000000000000000000000000000000000000000000000000000000000000000000000000000000000000000000000000000000000000000000000000000000000000000000000000000000000000000000000000000000000000000000000000000000000000000000000001500000054520250129191954
52295014XB  5 19813      00      175300      10RBL   SNCB        1             V1          0   
5024001632  3R4S 198130087174500R 19813E16N 0000000000000000000000000000000000000000000000010011111001111100101110001001001111100111110001111001111100111110011111001111100011110000000000000000111110011111001110100111110001111001111100111110011111001111100111110001111001111100111110011110001111100111110011111001111100111110011111001111100111110011111001111100111110011111001011100111110011111001111100111110000000000000000000000000000000000000295006BV295014XB1387RBL01                            
75    26MUFF  1295006BV  5295014XB1862116                     
52295006BV  1       1981300            17450001   RBL      SNCB   1               V3 V1    0   
72V3    0000000000000000000000000000000000000000000000010011111001111100101110001001001111100111110001111001111100111110011111001111100011110000000000000000111110011111001110100111110001111001111100111110011111001111100111110001111001111100111110011110001111100111110011111001111100111110011111001111100111110011111001111100111110011111001011100111110011111001111100111110000000000000000000000000000000000000                                                                                                                                                                                                                                                                                                                                                                                                                1500000054520250226085834
73D 198120000000000000000000000000000000000000000000000010011111001111100101110001001001111100111110001111001111100111110011111001111100011110000000000000000111110011111001110100111110001111001111100111110011111001111100011110001111001111100111110011110001111100111110011111001111100111110011111001111100111110011111001111100111110011111001011100111110011111001111100111110000000000000000000000000000000000000  16801500000054520250226085834
5229751500  2 19813 1981300      174830      10RBL   SNCB        1             V1    V1    0   
5229502200  3 19813 1981300      175000      10RBL   SNCB        1             V1    V1    0   
52295014BV  4 19813 1981300      175200      10RBL   SNCB        1             V1    V1    0   
72V1    0000000000000000000000000000000000000000000000010011111001111100101110001001001111100111110001111001111100111110011111001111100011110000000000000000111110011111001110100111110001111001111100111110011111001111100111110001111001111100111110011110001111100111110011111001111100111110011111001111100111110011111001111100111110011111001011100111110011111001111100111110000000000000000000000000000000000000                                                                                                                                                                                                                                                                                                                                                                                                                1500000054520250226085834
74AAM96                           79 100000000000000000000000000000000000000000000000100111110011111001011100010010011111001111100011110011111001111100111110011111000111100000000000000001100100111110001101001111100011110011111001111100111110011111001111100011110011111001111100111100011101001111100111110011111001111100111110011111001111100111110011111001111100111100010111000111100111110011111001111100000000000000000000000000000000000001500000054520250317191929
52295014XB  5 19813      00      175300      10RBL   SNCB        1             V1          0   
5024001633  3AGT 198150087194500R 19815E16N 0111110011011001101100111110001111001111100111000000000000000000000000000000000000000000000000000000000000000000000000000000000000000000000000000000000000000000000000000000000000000000000000000000000000000000000000000000000000000000000000000000000000000000000000000000000000000000000000000000000000000000000000000000000000000000000000000000000000000000000000000000000000000000000000000000000000000000295006BV295014XB1387RBL01                            
75    26MUFY  1295006BV  5295014XB1862132                     
52295006BV  1       1981500            19450001   RBL      SNCB   1               V3 V1    0   
72V3    0111110011011001101100111110001111001111100111000000000000000000000000000000000000000000000000000000000000000000000000000000000000000000000000000000000000000000000000000000000000000000000000000000000000000000000000000000000000000000000000000000000000000000000000000000000000000000000000000000000000000000000000000000000000000000000000000000000000000000000000000000000000000000000000000000000000000000                                                                                                                                                                                                                                                                                                                                                                                                                1500000054520241217191710
73D 198140111110011011001101100111110001111001111100111000000000000000000000000000000000000000000000000000000000000000000000000000000000000000000000000000000000000000000000000000000000000000000000000000000000000000000000000000000000000000000000000000000000000000000000000000000000000000000000000000000000000000000000000000000000000000000000000000000000000000000000000000000000000000000000000000000000000000000  15601500000054520241217191710
5229751500  2 19815 1981500      194830      10RBL   SNCB        1             V1    V1    0   
5229502200  3 19815 1981500      195000      10RBL   SNCB        1             V1    V1    0   
52295014BV  4 19815 1981500      195200      10RBL   SNCB        1             V1    V1    0   
72V1    0111110011011001101100111110001111001111100111000000000000000000000000000000000000000000000000000000000000000000000000000000000000000000000000000000000000000000000000000000000000000000000000000000000000000000000000000000000000000000000000000000000000000000000000000000000000000000000000000000000000000000000000000000000000000000000000000000000000000000000000000000000000000000000000000000000000000000                                                                                                                                                                                                                                                                                                                                                                                                                1500000054520241212191719
74AAM96                           79 101111100110110011011001111100011110011111001110000000000000000000000000000000000000000000000000000000000000000000000000000000000000000000000000000000000000000000000000000000000000000000000000000000000000000000000000000000000000000000000000000000000000000000000000000000000000000000000000000000000000000000000000000000000000000000000000000000000000000000000000000000000000000000000000000000000000000001500000054520250129191954
52295014XB  5 19815      00      195300      10RBL   SNCB        1             V1          0   
5024001633  4R4S 198150087194500R 19815E16N 0000000000000000000000000000000000000000000000010011111001111100111110001011001111100111110001111001111100111110011111001111100011110000000000000000111110011111001110100111110001111001111100111110011111001111100111110001111001111100111110011110001111100111110011111001111100111110011111001111100111110011111001111100111110011111001011100111110011111001111100111110000000000000000000000000000000000000295006BV295014XB1387RBL01                            
75    26MUFY  1295006BV  5295014XB1862132                     
52295006BV  1       1981500            19450001   RBL      SNCB   1               V3 V1    0   
72V3    0000000000000000000000000000000000000000000000010011111001111100111110001011001111100111110001111001111100111110011111001111100011110000000000000000111110011111001110100111110001111001111100111110011111001111100111110001111001111100111110011110001111100111110011111001111100111110011111001111100111110011111001111100111110011111001011100111110011111001111100111110000000000000000000000000000000000000                                                                                                                                                                                                                                                                                                                                                                                                                1500000054520250130191630
73D 198140000000000000000000000000000000000000000000000010011111001111100111110001011001111100111110001111001111100111110011111001111100011110000000000000000111110011111001110100111110001111001111100111110011111001111100011110001111001111100111110011110001111100111110011111001111100111110011111001111100111110011111001111100111110011111001011100111110011111001111100111110000000000000000000000000000000000000  15601500000054520250130191630
5229751500  2 19815 1981500      194830      10RBL   SNCB        1             V1    V1    0   
