01MAS202412152025121350
5024001604  2SER1181010087053420R118101E14R 1111111111111111111111111111111111111111100111110011111111111100111110011111001111100111111111111001111111111111111111111111111111111011111111111111111111111111111111111111111111111001111111111111111111001111111111111111111111111111111111111111111111111111111100000000000011000000000000000000000000000000000100000011000001100000110000000000001100000000000000000000000000000000000000000000000000000000386011BV116210BV1287TBE03          745203   118118   
75    26LMX7  1386011BV 34116210BV1834271                     
52386011BV  1      11810100            05342000   TBE      Z22500 2               VB V1    0   
52386011PI  211810111810100      053510      00TBE   Z22500      2             V1    V1    0   
52731430BV  311810111810100053610      05370000TBETBEZ22500Z2250022            V1    V1    0   
52731430PI  411810111810100      053930      00TBE   Z22500      2             V1    V1    0   
52731448BV  511810111810100054020      05410000TBETBEZ22500Z2250022            V1 V1 V31   0   
5228189900  611810111810100054350      05445000TBETBEZ22500Z2250022            V31   V31   0   
7231    1111111111111111111111111111111111111111100111110011111111111100111110011111001111100111111111111001111111111111111111111111111111111011111111111111111111111111111111111111111111111001111111111111111111001111111111111111111111111111111111111111111111111111111100000000000011000000000000000000000000000000000100000011000001100000110000000000001100000000000000000000000000000000000000000000000000000000                                                                                                                                                                                                                                                                                                                                                                                                                1500000004520250312200039
52281873PK  711810111810100      054700      00TBE   Z22500      2             V31   1EO   0   
52281873BV  811810111810100054750      05485000TBETBEZ22500Z2250022            1EOV531EO   0   
7251    0000000000000000000000000000000000001111100111110011111111111100111110011111001111100111111111111001111111111111111111111111111111111011111111111111111111111111111111111111111111111001111111111111111111001111111111111111111111111111111111111111111111111111111100000000000011000000000000000000000000000000000100000011000001100000110000000000001100000000000000000000000000000000000000000000000000000000                                                                                                                                                                                                                                                                                                                                                                                                                1500000004520250312200039
7253    1111111111111111111111111111111111110000000000000000000000000000000000000000000000000000000000000000000000000000000000000000000000000000000000000000000000000000000000000000000000000000000000000000000000000000000000000000000000000000000000000000000000000000000000000000000000000000000000000000000000000000000000000000000000000000000000000000000000000000000000000000000000000000000000000000000000000000                                                                                                                                                                                                                                                                                                                                                                                                                1500000004520250207191851
5211310013  911810111810100      055000      00TBE   Z22500      2             1EO   1EO   0   
52113100PK 1011810111810100      055040      00TBE   Z22500      2             1EO   1EO   0   
52654798BV 1111810111810100055140      05522000TBETBEZ22500Z2250022            1EO   1EO   0   
52113209BV 1211810111810100055430      05553000TBETBEZ22500Z2250022            1EO   1EO   0   
52113209SM 1311810111810100      055630      00TBE   Z22500      2             1EO   1B4   0   
5211321783 1411810111810100      055840      00TBE   Z22500      2             1B4   1B4   0   
52113217BV 1511810111810100055920      06002000TBETBEZ22500Z2250022            1B41B41L4   0   
52113217BR 1611810111810100      060220      00TBE   Z22500      2             1L4   1L4   0   
5211369600 1711810111810100      060250      00TBE   Z22500      2             1L4   1L4   0   
5211370400 1811810111810100      060420      00TBE   Z22500      2             1L4   1L4   0   
5211371200 1911810111810100060610      06081000TBETBEZ22500Z2250022            1L4   1L4   0   
52113746AG 2011810111810100      060840      00TBE   Z22500      2             1L4   1L4   0   
52113746BV 2111810111810100      060940      00TBE   Z22500      2             1L41L4V1    0   
52113746BF 2211810111810100      061030      00TBE   Z22500      2             V1    V1    0   
5211377900 2311810111810100      061120      00TBE   Z22500      2             V1    V1    0   
52113795BV 2411810111810100061300      06135000TBETBEZ22500Z2250022            V1    V1    0   
5211380300 2511810111810100061640      06172000TBETBEZ22500Z2250022            V1    V1    0   
52116046BV 2611810111810100062020      06210000TBETBEZ22500Z2250022            V1    V1    0   
5211603800 2711810111810100062330      06241000TBETBEZ22500Z2250022            V1    V1    0   
5211602000 2811810111810100062730      06281000TBETBEZ22500Z2250022            V1    V1    0   
52116012PA 2911810111810100      062950      00TBE   Z22500      2             V1    V1    0   
52116012PB 3011810111810100      063020      00TBE   Z22500      2             V1    V1    0   
52116012BV 3111810111810100063120      06320000TBETBEZ22500Z2250022            V1 V1 V1B   0   
72V1    1111111111111111111111111111111111111111100111110011111111111100111110011111001111100111111111111001111111111111111111111111111111111011111111111111111111111111111111111111111111111001111111111111111111001111111111111111111111111111111111111111111111111111111100000000000011000000000000000000000000000000000100000011000001100000110000000000001100000000000000000000000000000000000000000000000000000000                                                                                                                                                                                                                                                                                                                                                                                                                1500000004520250312200039
74ATransilien                    100 111111111111111111111111111111111111111111001111100111111111111001111100111110011111001111111111110011111111111111111111111111111111110111111111111111111111111111111111111111111111110011111111111111111110011111111111111111111111111111111111111111111111111111111000000000000110000000000000000000000000000000001000000110000011000001100000000000011000000000000000000000000000000000000000000000000000000001500000004520250317191929
52116012CV 3211810111810100      063310      00TBE   Z22500      2             V1B   V1B   0   
52116210CV 3311810111810100      063530      00TBE   Z22500      2             V1B   V2    0   
52116210BV 34118101      00063640            00TBE   Z22500      2             V2 VA       0   
5024001604  3R4S1181010087053420R118101E14R 0000000000000000000000000000000000000000000000000000000000000011000001100000000000000000000000000000000000000000000000000000000000000000000000000000000000000000000000000000000000000000000000000000000000000000000000000000000000000000000000000000000000000000000000000000000000000000000000000000000000000000000000000000000000000000000000000000000000000000000000000000000000000000000000000000000000000000386011BV116210BV1287TBE03          745203   118118   
75    26LMX7  1386011BV 36116210BV1834271                     
52386011BV  1      11810100            05342000   TBE      Z22500 2               VB V1    0   
52386011PI  211810111810100      053510      00TBE   Z22500      2             V1    V1    0   
52731430BV  311810111810100053610      05370000TBETBEZ22500Z2250022            V1    V1    0   
52731430PI  411810111810100      053930      00TBE   Z22500      2             V1    V1    0   
52731448BV  511810111810100054020      05410000TBETBEZ22500Z2250022            V1 V1 V31   0   
5228189900  611810111810100054350      05445000TBETBEZ22500Z2250022            V31   V31   0   
7231    0000000000000000000000000000000000000000000000000000000000000011000001100000000000000000000000000000000000000000000000000000000000000000000000000000000000000000000000000000000000000000000000000000000000000000000000000000000000000000000000000000000000000000000000000000000000000000000000000000000000000000000000000000000000000000000000000000000000000000000000000000000000000000000000000000000000000000                                                                                                                                                                                                                                                                                                                                                                                                                1500000004520250214192401
52281873PK  711810111810100      054850      00TBE   Z22500      2             V31   1EO   0   
52281873BV  811810111810100055140      05525000TBETBEZ22500Z2250022            1EOV53TIR   0   
7251    0000000000000000000000000000000000000000000000000000000000000011000001100000000000000000000000000000000000000000000000000000000000000000000000000000000000000000000000000000000000000000000000000000000000000000000000000000000000000000000000000000000000000000000000000000000000000000000000000000000000000000000000000000000000000000000000000000000000000000000000000000000000000000000000000000000000000000                                                                                                                                                                                                                                                                                                                                                                                                                1500000004520250214192401
5211310013  911810111810100      055430      00TBE   Z22500      2             TIRTIRVM    0   
52113100P2 1011810111810100      055510      00TBE   Z22500      2             VM VM V1B   0   
5211310026 1111810111810100      055550      00TBE   Z22500      2             V1B   V1B   0   
5211320933 1211810111810100      055620      00TBE   Z22500      2             V1B   V1B   0   
521132091B 1311810111810100      055640      00TBE   Z22500      2             V1B   V1B   0   
52113209BV 1411810111810100      055700      00TBE   Z22500      2             V1B   V1B   0   
52113209SM 1511810111810100      055720      00TBE   Z22500      2             V1B1B11L1   0   
5211321783 1611810111810100      055900      00TBE   Z22500      2             1L11L11B4   0   
52113217BV 1711810111810100055940      06004000TBETBEZ22500Z2250022            1B41B41L4   0   
52113217BR 1811810111810100      060240      00TBE   Z22500      2             1L4   1L4   0   
5211369600 1911810111810100      060300      00TBE   Z22500      2             1L4   1L4   0   
5211370400 2011810111810100      060420      00TBE   Z22500      2             1L4   1L4   0   
5211371200 2111810111810100060610      06081000TBETBEZ22500Z2250022            1L4   1L4   0   
52113746AG 2211810111810100      060840      00TBE   Z22500      2             1L4   1L4   0   
52113746BV 2311810111810100      060940      00TBE   Z22500      2             1L41L4V1    0   
52113746BF 2411810111810100      061020      00TBE   Z22500      2             V1    V1    0   
5211377900 2511810111810100      061110      00TBE   Z22500      2             V1    V1    0   
52113795BV 2611810111810100061300      06135000TBETBEZ22500Z2250022            V1    V1    0   
5211380300 2711810111810100061640      06172000TBETBEZ22500Z2250022            V1    V1    0   
52116046BV 2811810111810100062020      06210000TBETBEZ22500Z2250022            V1    V1    0   
5211603800 2911810111810100062330      06241000TBETBEZ22500Z2250022            V1    V1    0   
5211602000 3011810111810100062730      06281000TBETBEZ22500Z2250022            V1    V1    0   
52116012PA 3111810111810100      062950      00TBE   Z22500      2             V1    V1    0   
52116012PB 3211810111810100      063030      00TBE   Z22500      2             V1    V1    0   
52116012BV 3311810111810100063120      06320000TBETBEZ22500Z2250022            V1 V1 V1B   0   
72V1    0000000000000000000000000000000000000000000000000000000000000011000001100000000000000000000000000000000000000000000000000000000000000000000000000000000000000000000000000000000000000000000000000000000000000000000000000000000000000000000000000000000000000000000000000000000000000000000000000000000000000000000000000000000000000000000000000000000000000000000000000000000000000000000000000000000000000000                                                                                                                                                                                                                                                                                                                                                                                                                1500000004520250214192401
74ATransilien                    100 100000000000000000000000000000000000000000000000000000000000000110000011000000000000000000000000000000000000000000000000000000000000000000000000000000000000000000000000000000000000000000000000000000000000000000000000000000000000000000000000000000000000000000000000000000000000000000000000000000000000000000000000000000000000000000000000000000000000000000000000000000000000000000000000000000000000000001500000004520250221192626
52116012CV 3411810111810100      063310      00TBE   Z22500      2             V1B   V1B   0   
52116210CV 3511810111810100      063530      00TBE   Z22500      2             V1B   V2    0   
52116210BV 36118101      00063640            00TBE   Z22500      2             V2 VA       0   
5024001604  8AGT1181010087055100R118101E14R 000000000000000000000000000000000000000000000000010000000000000000000000000000000000000000000000000000000000000000000000000000000000000000000000000000000000000000000000000000000000000000000000000000000000000000000000000000000000000000000000000000000000000000000000000000000000000000000000000000000000000000000000000000000000000000000000000000000000000000000000000000000000000000000000000000000000000011300100116210BV1287TBE03          745203   118118   
75    26LMX7  111300100 29116210BV1834271                     
5211300100  1      11810100            05510000   TBE      Z22500 2               VM VL    0   
7222    0000000000000000000000000000000000000000000000000100000000000000000000000000000000000000000000000000000000000000000000000000000000000000000000000000000000000000000000000000000000000000000000000000000000000000000000000000000000000000000000000000000000000000000000000000000000000000000000000000000000000000000000000000000000000000000000000000000000000000000000000000000000000000000000000000000000000000                                                                                                                                                                                                                                                                                                                                                                                                                1500000004520250131173417
73D7458100000000000000000000000000000000000000000000000000100000000000000000000000000000000000000000000000000000000000000000000000000000000000000000000000000000000000000000000000000000000000000000000000000000000000000000000000000000000000000000000000000000000000000000000000000000000000000000000000000000000000000000000000000000000000000000000000000000000000000000000000000000000000000000000000000000000000000   4201500000004520250131173417
74DMI2N                          224 200000000000000000000000000000000000000000000000001000000000000000000000000000000000000000000000000000000000000000000000000000000000000000000000000000000000000000000000000000000000000000000000000000000000000000000000000000000000000000000000000000000000000000000000000000000000000000000000000000000000000000000000000000000000000000000000000000000000000000000000000000000000000000000000000000000000000001500000004520250131192431
5211310013  211810111810100      055340      00TBE   Z22500      2             VL VL VM    0   
52113100P2  311810111810100      055420      00TBE   Z22500      2             VM VM V1B   0   
5211310026  411810111810100      055500      00TBE   Z22500      2             V1B   V1B   0   
5211320933  511810111810100      055530      00TBE   Z22500      2             V1B   V1B   0   
521132091B  611810111810100      055550      00TBE   Z22500      2             V1B   V1B   0   
52113209BV  711810111810100055640      05572000TBETBEZ22500Z2250022            V1B   V1B   0   
52113209SM  811810111810100      055810      00TBE   Z22500      2             V1B1B11L1   0   
5211321783  911810111810100      060000      00TBE   Z22500      2             1L11L11B4   0   
52113217BV 1011810111810100060040      06014000TBETBEZ22500Z2250022            1B41B41L4   0   
52113217BR 1111810111810100      060320      00TBE   Z22500      2             1L4   1L4   0   
5211369600 1211810111810100      060340      00TBE   Z22500      2             1L4   1L4   0   
5211370400 1311810111810100      060440      00TBE   Z22500      2             1L4   1L4   0   
5211371200 1411810111810100060610      06081000TBETBEZ22500Z2250022            1L4   1L4   0   
52113746AG 1511810111810100      060840      00TBE   Z22500      2             1L4   1L4   0   
52113746BV 1611810111810100      060940      00TBE   Z22500      2             1L41L4V1    0   
52113746BF 1711810111810100      061030      00TBE   Z22500      2             V1    V1    0   
5211377900 1811810111810100      061120      00TBE   Z22500      2             V1    V1    0   
52113795BV 1911810111810100061300      06135000TBETBEZ22500Z2250022            V1    V1    0   
5211380300 2011810111810100061640      06172000TBETBEZ22500Z2250022            V1    V1    0   
52116046BV 2111810111810100062020      06210000TBETBEZ22500Z2250022            V1    V1    0   
5211603800 2211810111810100062330      06241000TBETBEZ22500Z2250022            V1    V1    0   
5211602000 2311810111810100062730      06281000TBETBEZ22500Z2250022            V1    V1    0   
52116012PA 2411810111810100      062950      00TBE   Z22500      2             V1    V1    0   
52116012PB 2511810111810100      063020      00TBE   Z22500      2             V1    V1    0   
52116012BV 2611810111810100063120      06320000TBETBEZ22500Z2250022            V1 V1 V1B   0   
72V1    0000000000000000000000000000000000000000000000000100000000000000000000000000000000000000000000000000000000000000000000000000000000000000000000000000000000000000000000000000000000000000000000000000000000000000000000000000000000000000000000000000000000000000000000000000000000000000000000000000000000000000000000000000000000000000000000000000000000000000000000000000000000000000000000000000000000000000                                                                                                                                                                                                                                                                                                                                                                                                                1500000004520250131173417
74ATransilien                    100 100000000000000000000000000000000000000000000000001000000000000000000000000000000000000000000000000000000000000000000000000000000000000000000000000000000000000000000000000000000000000000000000000000000000000000000000000000000000000000000000000000000000000000000000000000000000000000000000000000000000000000000000000000000000000000000000000000000000000000000000000000000000000000000000000000000000000001500000004520250131192431
52116012CV 2711810111810100      063310      00TBE   Z22500      2             V1B   V1B   0   
52116210CV 2811810111810100      063530      00TBE   Z22500      2             V1B   V2    0   
52116210BV 29118101      00063640            00TBE   Z22500      2             V2 VA       0   
5024001604  9AGT1181010087055100R118101E14R 000000000000000000000000000000000000000000000000100000000000000000000000000000000000000000000000000000000000000000000000000000000000000000000000000000000000000000000000000000000000000000000000000000000000000000000000000000000000000000000000000000000000000000000000000000000000000000000000000000000000000000000000000000000000000000000000000000000000000000000000000000000000000000000000000000000000000011300100116210BV1287TBE03          745203   118118   
75    26LMX7  111300100 29116210BV1834271                     
5211300100  1      11810100            05510000   TBE      Z22500 2               VM VL    0   
7217    0000000000000000000000000000000000000000000000001000000000000000000000000000000000000000000000000000000000000000000000000000000000000000000000000000000000000000000000000000000000000000000000000000000000000000000000000000000000000000000000000000000000000000000000000000000000000000000000000000000000000000000000000000000000000000000000000000000000000000000000000000000000000000000000000000000000000000                                                                                                                                                                                                                                                                                                                                                                                                                1500000004520250131173417
73D7458560000000000000000000000000000000000000000000000001000000000000000000000000000000000000000000000000000000000000000000000000000000000000000000000000000000000000000000000000000000000000000000000000000000000000000000000000000000000000000000000000000000000000000000000000000000000000000000000000000000000000000000000000000000000000000000000000000000000000000000000000000000000000000000000000000000000000000   7201500000004520250131173417
74DRER NG                        113 100000000000000000000000000000000000000000000000010000000000000000000000000000000000000000000000000000000000000000000000000000000000000000000000000000000000000000000000000000000000000000000000000000000000000000000000000000000000000000000000000000000000000000000000000000000000000000000000000000000000000000000000000000000000000000000000000000000000000000000000000000000000000000000000000000000000000001500000004520250131173417
5211310013  211810111810100      055330      00TBE   Z22500      2             VL VL VM    0   
52113100P2  311810111810100      055420      00TBE   Z22500      2             VM VM V1B   0   
5211310026  411810111810100      055500      00TBE   Z22500      2             V1B   V1B   0   
5211320933  511810111810100      055530      00TBE   Z22500      2             V1BV1BV1    0   
521132091B  611810111810100      055550      00TBE   Z22500      2             V1    V1    0   
52113209BV  711810111810100055630      05571000TBETBEZ22500Z2250022            V1    V1    0   
52113209SM  811810111810100      055820      00TBE   Z22500      2             V1    1L4   0   
5211321783  911810111810100      055950      00TBE   Z22500      2             1L4   1L4   0   
52113217BV 1011810111810100060030      06013000TBETBEZ22500Z2250022            1L4   1L4   0   
52113217BR 1111810111810100      060310      00TBE   Z22500      2             1L4   1L4   0   
5211369600 1211810111810100      060340      00TBE   Z22500      2             1L4   1L4   0   
5211370400 1311810111810100      060440      00TBE   Z22500      2             1L4   1L4   0   
5211371200 1411810111810100060610      06081000TBETBEZ22500Z2250022            1L4   1L4   0   
52113746AG 1511810111810100      060840      00TBE   Z22500      2             1L4   1L4   0   
52113746BV 1611810111810100      060940      00TBE   Z22500      2             1L41L4V1    0   
52113746BF 1711810111810100      061030      00TBE   Z22500      2             V1    V1    0   
5211377900 1811810111810100      061120      00TBE   Z22500      2             V1    V1    0   
52113795BV 1911810111810100061300      06135000TBETBEZ22500Z2250022            V1    V1    0   
5211380300 2011810111810100061640      06172000TBETBEZ22500Z2250022            V1    V1    0   
52116046BV 2111810111810100062020      06210000TBETBEZ22500Z2250022            V1    V1    0   
5211603800 2211810111810100062330      06241000TBETBEZ22500Z2250022            V1    V1    0   
5211602000 2311810111810100062730      06281000TBETBEZ22500Z2250022            V1    V1    0   
52116012PA 2411810111810100      062950      00TBE   Z22500      2             V1    V1    0   
52116012PB 2511810111810100      063020      00TBE   Z22500      2             V1    V1    0   
52116012BV 2611810111810100063120      06320000TBETBEZ22500Z2250022            V1 V1 V1B   0   
72V1    0000000000000000000000000000000000000000000000001000000000000000000000000000000000000000000000000000000000000000000000000000000000000000000000000000000000000000000000000000000000000000000000000000000000000000000000000000000000000000000000000000000000000000000000000000000000000000000000000000000000000000000000000000000000000000000000000000000000000000000000000000000000000000000000000000000000000000                                                                                                                                                                                                                                                                                                                                                                                                                1500000004520250131173417
74ATransilien                    100 100000000000000000000000000000000000000000000000010000000000000000000000000000000000000000000000000000000000000000000000000000000000000000000000000000000000000000000000000000000000000000000000000000000000000000000000000000000000000000000000000000000000000000000000000000000000000000000000000000000000000000000000000000000000000000000000000000000000000000000000000000000000000000000000000000000000000001500000004520250131192431
52116012CV 2711810111810100      063310      00TBE   Z22500      2             V1B   V1B   0   
52116210CV 2811810111810100      063530      00TBE   Z22500      2             V1B   V2    0   
52116210BV 29118101      00063640            00TBE   Z22500      2             V2 VA       0   
5024001604 10AGT1181010087053420R118101E14R 0000000000000000000000000000000000000000000000000000000000000000000000000000000000011000000000000000000000000000000000000000000000000000000000000000000000000000000000000000000000000000000000000000000000000000000000000000000000000000000000000000000000000000000000000000000000000000000000000000000000000000000000000000000000000000000000000000000000000000000000000000000000000000000000000000000000000000386011BV116210BV1287TBE03          745203   118118   
75    26LMX7  1386011BV 36116210BV1834271                     
52386011BV  1      11810100            05342000   TBE      Z22500 2               VB V1    0   
52386011PI  211810111810100      053510      00TBE   Z22500      2             V1    V1    0   
52731430BV  311810111810100053610      05370000TBETBEZ22500Z2250022            V1    V1    0   
52731430PI  411810111810100      053930      00TBE   Z22500      2             V1    V1    0   
52731448BV  511810111810100054020      05410000TBETBEZ22500Z2250022            V1 V1 V31   0   
5228189900  611810111810100054350      05445000TBETBEZ22500Z2250022            V31   V31   0   
7231    0000000000000000000000000000000000000000000000000000000000000000000000000000000000011000000000000000000000000000000000000000000000000000000000000000000000000000000000000000000000000000000000000000000000000000000000000000000000000000000000000000000000000000000000000000000000000000000000000000000000000000000000000000000000000000000000000000000000000000000000000000000000000000000000000000000000000000                                                                                                                                                                                                                                                                                                                                                                                                                1500000004520250307173330
52281873PK  711810111810100      054850      00TBE   Z22500      2             V31   1EO   0   
52281873BV  811810111810100055140      05524000TBETBEZ22500Z2250022            1EOV53TIR   0   
7251    0000000000000000000000000000000000000000000000000000000000000000000000000000000000011000000000000000000000000000000000000000000000000000000000000000000000000000000000000000000000000000000000000000000000000000000000000000000000000000000000000000000000000000000000000000000000000000000000000000000000000000000000000000000000000000000000000000000000000000000000000000000000000000000000000000000000000000                                                                                                                                                                                                                                                                                                                                                                                                                1500000004520250307173330
5211310013  911810111810100      055420      00TBE   Z22500      2             TIRTIRVM    0   
52113100P2 1011810111810100      055500      00TBE   Z22500      2             VM VM V1B   0   
5211310026 1111810111810100      055550      00TBE   Z22500      2             V1B   V1B   0   
5211320933 1211810111810100      055620      00TBE   Z22500      2             V1B   V1B   0   
521132091B 1311810111810100      055630      00TBE   Z22500      2             V1B   V1B   0   
52113209BV 1411810111810100      055700      00TBE   Z22500      2             V1B   V1B   0   
52113209SM 1511810111810100      055720      00TBE   Z22500      2             V1B1B11L1   0   
5211321783 1611810111810100      055900      00TBE   Z22500      2             1L11L11B4   0   
52113217BV 1711810111810100055940      06004000TBETBEZ22500Z2250022            1B41B41L4   0   
52113217BR 1811810111810100      060240      00TBE   Z22500      2             1L4   1L4   0   
5211369600 1911810111810100      060300      00TBE   Z22500      2             1L4   1L4   0   
5211370400 2011810111810100      060420      00TBE   Z22500      2             1L4   1L4   0   
5211371200 2111810111810100060610      06081000TBETBEZ22500Z2250022            1L4   1L4   0   
52113746AG 2211810111810100      060840      00TBE   Z22500      2             1L4   1L4   0   
52113746BV 2311810111810100      060940      00TBE   Z22500      2             1L41L4V1    0   
52113746BF 2411810111810100      061030      00TBE   Z22500      2             V1    V1    0   
5211377900 2511810111810100      061120      00TBE   Z22500      2             V1    V1    0   
52113795BV 2611810111810100061300      06135000TBETBEZ22500Z2250022            V1    V1    0   
5211380300 2711810111810100061640      06172000TBETBEZ22500Z2250022            V1    V1    0   
52116046BV 2811810111810100062020      06210000TBETBEZ22500Z2250022            V1    V1    0   
5211603800 2911810111810100062330      06241000TBETBEZ22500Z2250022            V1    V1    0   
5211602000 3011810111810100062730      06281000TBETBEZ22500Z2250022            V1    V1    0   
52116012PA 3111810111810100      062950      00TBE   Z22500      2             V1    V1    0   
52116012PB 3211810111810100      063020      00TBE   Z22500      2             V1    V1    0   
52116012BV 3311810111810100063120      06320000TBETBEZ22500Z2250022            V1 V1 V1B   0   
72V1    0000000000000000000000000000000000000000000000000000000000000000000000000000000000011000000000000000000000000000000000000000000000000000000000000000000000000000000000000000000000000000000000000000000000000000000000000000000000000000000000000000000000000000000000000000000000000000000000000000000000000000000000000000000000000000000000000000000000000000000000000000000000000000000000000000000000000000                                                                                                                                                                                                                                                                                                                                                                                                                1500000004520250307173330
74ATransilien                    100 100000000000000000000000000000000000000000000000000000000000000000000000000000000000110000000000000000000000000000000000000000000000000000000000000000000000000000000000000000000000000000000000000000000000000000000000000000000000000000000000000000000000000000000000000000000000000000000000000000000000000000000000000000000000000000000000000000000000000000000000000000000000000000000000000000000000000001500000004520250307192357
52116012CV 3411810111810100      063310      00TBE   Z22500      2             V1B   V1B   0   
52116210CV 3511810111810100      063530      00TBE   Z22500      2             V1B   V2    0   
52116210BV 36118101      00063640            00TBE   Z22500      2             V2 VA       0   
5024001604 11AGT1181010087053420R118101E14R 0000000000000000000000000000000000000000000000000000000000000000000000000000000000000000000000000110000000000000000000000000000000000000000000000000000000000000000000000000000000000000000000000000000000000000000000000000000000000000000000000000000000000000000000000000000000000000000000000000000000000000000000000000000000000000000000000000000000000000000000000000000000000000000000000000000000000000386011BV116210BV1287TBE03          745203   118118   
75    26LMX7  1386011BV 34116210BV1834271                     
52386011BV  1      11810100            05342000   TBE      Z22500 2               VB V1    0   
52386011PI  211810111810100      053510      00TBE   Z22500      2             V1    V1    0   
52731430BV  311810111810100053610      05370000TBETBEZ22500Z2250022            V1    V1    0   
52731430PI  411810111810100      053930      00TBE   Z22500      2             V1    V1    0   
52731448BV  511810111810100054020      05410000TBETBEZ22500Z2250022            V1 V1 V31   0   
5228189900  611810111810100054350      05445000TBETBEZ22500Z2250022            V31   V31   0   
7231    0000000000000000000000000000000000000000000000000000000000000000000000000000000000000000000000000110000000000000000000000000000000000000000000000000000000000000000000000000000000000000000000000000000000000000000000000000000000000000000000000000000000000000000000000000000000000000000000000000000000000000000000000000000000000000000000000000000000000000000000000000000000000000000000000000000000000000                                                                                                                                                                                                                                                                                                                                                                                                                1500000004520250115201238
52281873PK  711810111810100      054700      00TBE   Z22500      2             V31   1EO   0   
52281873BV  811810111810100054750      05485000TBETBEZ22500Z2250022            1EOV531EO   0   
7253    0000000000000000000000000000000000000000000000000000000000000000000000000000000000000000000000000110000000000000000000000000000000000000000000000000000000000000000000000000000000000000000000000000000000000000000000000000000000000000000000000000000000000000000000000000000000000000000000000000000000000000000000000000000000000000000000000000000000000000000000000000000000000000000000000000000000000000                                                                                                                                                                                                                                                                                                                                                                                                                1500000004520250115201238
5211310013  911810111810100      055000      00TBE   Z22500      2             1EO   1EO   0   
52113100PK 1011810111810100      055040      00TBE   Z22500      2             1EO   1EO   0   
52654798BV 1111810111810100055140      05522000TBETBEZ22500Z2250022            1EO   1EO   0   
52113209BV 1211810111810100055430      05553000TBETBEZ22500Z2250022            1EO   1EO   0   
52113209SM 1311810111810100      055630      00TBE   Z22500      2             1EO   1B4   0   
5211321783 1411810111810100      055840      00TBE   Z22500      2             1B4   1B4   0   
52113217BV 1511810111810100055920      06002000TBETBEZ22500Z2250022            1B4   1B4   0   
52113217BR 1611810111810100      060220      00TBE   Z22500      2             1B4   1B4   0   
5211369600 1711810111810100      060250      00TBE   Z22500      2             1B4   1B4   0   
5211370400 1811810111810100      060420      00TBE   Z22500      2             1B4   1B4   0   
5211371200 1911810111810100060610      06081000TBETBEZ22500Z2250022            1B4   1B4   0   
52113746AG 2011810111810100      060840      00TBE   Z22500      2             1B4   1B4   0   
52113746BV 2111810111810100      060940      00TBE   Z22500      2             1B41B4V1    0   
52113746BF 2211810111810100      061040      00TBE   Z22500      2             V1    V1    0   
5211377900 2311810111810100      061120      00TBE   Z22500      2             V1    V1    0   
52113795BV 2411810111810100061300      06135000TBETBEZ22500Z2250022            V1    V1    0   
5211380300 2511810111810100061640      06172000TBETBEZ22500Z2250022            V1    V1    0   
52116046BV 2611810111810100062020      06210000TBETBEZ22500Z2250022            V1    V1    0   
5211603800 2711810111810100062330      06241000TBETBEZ22500Z2250022            V1    V1    0   
5211602000 2811810111810100062730      06281000TBETBEZ22500Z2250022            V1    V1    0   
52116012PA 2911810111810100      062950      00TBE   Z22500      2             V1    V1    0   
52116012PB 3011810111810100      063020      00TBE   Z22500      2             V1    V1    0   
52116012BV 3111810111810100063120      06320000TBETBEZ22500Z2250022            V1 V1 V1B   0   
72V1    0000000000000000000000000000000000000000000000000000000000000000000000000000000000000000000000000110000000000000000000000000000000000000000000000000000000000000000000000000000000000000000000000000000000000000000000000000000000000000000000000000000000000000000000000000000000000000000000000000000000000000000000000000000000000000000000000000000000000000000000000000000000000000000000000000000000000000                                                                                                                                                                                                                                                                                                                                                                                                                1500000004520250115201238
74ATransilien                    100 100000000000000000000000000000000000000000000000000000000000000000000000000000000000000000000000001100000000000000000000000000000000000000000000000000000000000000000000000000000000000000000000000000000000000000000000000000000000000000000000000000000000000000000000000000000000000000000000000000000000000000000000000000000000000000000000000000000000000000000000000000000000000000000000000000000000000001500000004520250115201238
52116012CV 3211810111810100      063310      00TBE   Z22500      2             V1B   V1B   0   
52116210CV 3311810111810100      063530      00TBE   Z22500      2             V1B   V2    0   
52116210BV 34118101      00063640            00TBE   Z22500      2             V2 VA       0   
5024001604 12R4S1181010087052850R118101E14R 0000000000000000000000000000000000000000000000000000000000000000000000000000000000000000000000000000000000000000000000000000000000000000000000000000000000000000000000000000000000000000000000000000000000000000000000000000000000000000000000000000000000000000000000000110000000000001100000110000000000000000000010000000000000000000000100011000000000000110000011000001000000000000000000000000000000000000386011FG116210BV1287TBE03          Garage   118116   
75    26YQ8G  1386011FG 36116210BV1834271                     
52386011FG  1      11810100            05285000   TBE      Z22500 2               FG VF    0   
52386011RO  211810111810100      052930      00TBE   Z22500      2             VF VF VB    0   
52386011BV  311810111810100053240      05342000TBETBEZ22500Z2250022            VB VB V1    0   
52386011PI  411810111810100      053510      00TBE   Z22500      2             V1    V1    0   
52731430BV  511810111810100053610      05370000TBETBEZ22500Z2250022            V1    V1    0   
52731430PI  611810111810100      053930      00TBE   Z22500      2             V1    V1    0   
52731448BV  711810111810100054020      05410000TBETBEZ22500Z2250022            V1 V1 V31   0   
5228189900  811810111810100054350      05445000TBETBEZ22500Z2250022            V31   V31   0   
52281873PK  911810111810100      054710      00TBE   Z22500      2             V31   1EO   0   
52281873BV 1011810111810100054750      05485000TBETBEZ22500Z2250022            1EOV511EO   0   
5211310013 1111810111810100      055000      00TBE   Z22500      2             1EO   1EO   0   
52113100PK 1211810111810100      055040      00TBE   Z22500      2             1EO   1EO   0   
52654798BV 1311810111810100055140      05522000TBETBEZ22500Z2250022            1EO   1EO   0   
52113209BV 1411810111810100055430      05553000TBETBEZ22500Z2250022            1EO   1EO   0   
52113209SM 1511810111810100      055630      00TBE   Z22500      2             1EO   1B4   0   
5211321783 1611810111810100      055840      00TBE   Z22500      2             1B4   1B4   0   
52113217BV 1711810111810100055920      06002000TBETBEZ22500Z2250022            1B4   1B4   0   
52113217BR 1811810111810100      060220      00TBE   Z22500      2             1B4   1B4   0   
5211369600 1911810111810100      060250      00TBE   Z22500      2             1B4   1B4   0   
5211370400 2011810111810100      060420      00TBE   Z22500      2             1B4   1B4   0   
5211371200 2111810111810100060610      06081000TBETBEZ22500Z2250022            1B4   1B4   0   
52113746AG 2211810111810100      060840      00TBE   Z22500      2             1B4   1B4   0   
52113746BV 2311810111810100      060940      00TBE   Z22500      2             1B41B4V1    0   
52113746BF 2411810111810100      061040      00TBE   Z22500      2             V1    V1    0   
5211377900 2511810111810100      061120      00TBE   Z22500      2             V1    V1    0   
52113795BV 2611810111810100061300      06135000TBETBEZ22500Z2250022            V1    V1    0   
5211380300 2711810111810100061640      06172000TBETBEZ22500Z2250022            V1    V1    0   
52116046BV 2811810111810100062020      06210000TBETBEZ22500Z2250022            V1    V1    0   
5211603800 2911810111810100062330      06241000TBETBEZ22500Z2250022            V1    V1    0   
5211602000 3011810111810100062730      06281000TBETBEZ22500Z2250022            V1    V1    0   
52116012PA 3111810111810100      062950      00TBE   Z22500      2             V1    V1    0   
52116012PB 3211810111810100      063030      00TBE   Z22500      2             V1    V1    0   
52116012BV 3311810111810100063120      06320000TBETBEZ22500Z2250022            V1 V1 V1B   0   
52116012CV 3411810111810100      063310      00TBE   Z22500      2             V1B   V1B   0   
52116210CV 3511810111810100      063530      00TBE   Z22500      2             V1B   V2    0   
52116210BV 36118101      00063640            00TBE   Z22500      2             V2 VA       0   
5024001604 13R4S1181010087052850R118101E14R 0000000000000000000000000000000000000000000000000000000000000000000000000000000000000000000000000000000000000000000000000000000000000000000000000000000000000000000000000000000000000000000000000000000000000000000000000000000000000000000000000000000000000000000011111001111100111110011111001111100111110011111001111100111110011111001011100111110011111001111100111110000000000000000000000000000000000000386011FG116210BV1287TBE03          Garage   118118   
75    26YQ8D  1386011FG 36116210BV1834271                     
52386011FG  1      11810100            05285000   TBE      Z22500 2               FG VF    0   
52386011RO  211810111810100      052930      00TBE   Z22500      2             VF VF VB    0   
52386011BV  311810111810100053240      05342000TBETBEZ22500Z2250022            VB VB V1    0   
52386011PI  411810111810100      053510      00TBE   Z22500      2             V1    V1    0   
52731430BV  511810111810100053610      05370000TBETBEZ22500Z2250022            V1    V1    0   
52731430PI  611810111810100      053930      00TBE   Z22500      2             V1    V1    0   
52731448BV  711810111810100054020      05410000TBETBEZ22500Z2250022            V1 V1 V31   0   
5228189900  811810111810100054350      05445000TBETBEZ22500Z2250022            V31   V31   0   
52281873PK  911810111810100      054710      00TBE   Z22500      2             V31   1EO   0   
52281873BV 1011810111810100054750      05485000TBETBEZ22500Z2250022            1EOV511EO   0   
5211310013 1111810111810100      055000      00TBE   Z22500      2             1EO   1EO   0   
52113100PK 1211810111810100      055040      00TBE   Z22500      2             1EO   1EO   0   
52654798BV 1311810111810100055140      05522000TBETBEZ22500Z2250022            1EO   1EO   0   
52113209BV 1411810111810100055430      05553000TBETBEZ22500Z2250022            1EO   1EO   0   
52113209SM 1511810111810100      055630      00TBE   Z22500      2             1EO   1B4   0   
5211321783 1611810111810100      055840      00TBE   Z22500      2             1B4   1B4   0   
52113217BV 1711810111810100055920      06002000TBETBEZ22500Z2250022            1B41B41L4   0   
52113217BR 1811810111810100      060220      00TBE   Z22500      2             1L4   1L4   0   
5211369600 1911810111810100      060250      00TBE   Z22500      2             1L4   1L4   0   
5211370400 2011810111810100      060420      00TBE   Z22500      2             1L4   1L4   0   
5211371200 2111810111810100060610      06081000TBETBEZ22500Z2250022            1L4   1L4   0   
52113746AG 2211810111810100      060840      00TBE   Z22500      2             1L4   1L4   0   
52113746BV 2311810111810100      060940      00TBE   Z22500      2             1L41L4V1    0   
52113746BF 2411810111810100      061020      00TBE   Z22500      2             V1    V1    0   
5211377900 2511810111810100      061110      00TBE   Z22500      2             V1    V1    0   
52113795BV 2611810111810100061300      06135000TBETBEZ22500Z2250022            V1    V1    0   
5211380300 2711810111810100061640      06172000TBETBEZ22500Z2250022            V1    V1    0   
52116046BV 2811810111810100062020      06210000TBETBEZ22500Z2250022            V1    V1    0   
5211603800 2911810111810100062330      06241000TBETBEZ22500Z2250022            V1    V1    0   
5211602000 3011810111810100062730      06281000TBETBEZ22500Z2250022            V1    V1    0   
52116012PA 3111810111810100      062950      00TBE   Z22500      2             V1    V1    0   
52116012PB 3211810111810100      063030      00TBE   Z22500      2             V1    V1    0   
52116012BV 3311810111810100063120      06320000TBETBEZ22500Z2250022            V1 V1 V1B   0   
52116012CV 3411810111810100      063310      00TBE   Z22500      2             V1B   V1B   0   
52116210CV 3511810111810100      063530      00TBE   Z22500      2             V1B   V2    0   
52116210BV 36118101      00063640            00TBE   Z22500      2             V2 VA       0   
5024001604 14AGT1181010087053420R118101E14R 0000000000000000000000000000000000000000000000000000000000000000000000000000000000000000000000000000000000000000000000000000000000000100000000000000000000000000000000000000000000000000000000000000000000000000000000000000000000000000000000000000000000000000000000000000000000000000000000000000000000000000000000000000000000000000000000000000000000000000000000000000000000000000000000000000000000000000386011BV116210BV1287TBE03          745203   118118   
75    26LMX7  1386011BV 36116210BV1834271                     
52386011BV  1      11810100            05342000   TBE      Z22500 2               VB V1    0   
52386011PI  211810111810100      053510      00TBE   Z22500      2             V1    V1    0   
52731430BV  311810111810100053610      05370000TBETBEZ22500Z2250022            V1    V1    0   
52731430PI  411810111810100      053930      00TBE   Z22500      2             V1    V1    0   
52731448BV  511810111810100054020      05410000TBETBEZ22500Z2250022            V1 V1 V31   0   
5228189900  611810111810100054350      05445000TBETBEZ22500Z2250022            V31   V31   0   
7231    0000000000000000000000000000000000000000000000000000000000000000000000000000000000000000000000000000000000000000000000000000000000000100000000000000000000000000000000000000000000000000000000000000000000000000000000000000000000000000000000000000000000000000000000000000000000000000000000000000000000000000000000000000000000000000000000000000000000000000000000000000000000000000000000000000000000000000                                                                                                                                                                                                                                                                                                                                                                                                                1500000004520250304200744
52281873PK  711810111810100      054700      00TBE   Z22500      2             V31   1EO   0   
52281873BV  811810111810100054750      05485000TBETBEZ22500Z2250022            1EOV53TIR   0   
5211310013  911810111810100      055010      00TBE   Z22500      2             TIRTIRVM    0   
52113100P2 1011810111810100      055100      00TBE   Z22500      2             VM VM V1B   0   
5211310026 1111810111810100      055140      00TBE   Z22500      2             V1B   V1B   0   
5211320933 1211810111810100      055210      00TBE   Z22500      2             V1BV1BV1    0   
521132091B 1311810111810100      055300      00TBE   Z22500      2             V1    V1    0   
52113209BV 1411810111810100055400      05553000TBETBEZ22500Z2250022            V1    V1    0   
52113209SM 1511810111810100      055650      00TBE   Z22500      2             V1    1L4   0   
5211321783 1611810111810100      055840      00TBE   Z22500      2             1L4   1L4   0   
52113217BV 1711810111810100055920      06002000TBETBEZ22500Z2250022            1L4   1L4   0   
52113217BR 1811810111810100      060220      00TBE   Z22500      2             1L4   1L4   0   
5211369600 1911810111810100      060250      00TBE   Z22500      2             1L4   1L4   0   
5211370400 2011810111810100      060420      00TBE   Z22500      2             1L4   1L4   0   
5211371200 2111810111810100060610      06081000TBETBEZ22500Z2250022            1L4   1L4   0   
52113746AG 2211810111810100      060840      00TBE   Z22500      2             1L4   1L4   0   
52113746BV 2311810111810100      060940      00TBE   Z22500      2             1L41L4V1    0   
52113746BF 2411810111810100      061030      00TBE   Z22500      2             V1    V1    0   
5211377900 2511810111810100      061120      00TBE   Z22500      2             V1    V1    0   
52113795BV 2611810111810100061300      06135000TBETBEZ22500Z2250022            V1    V1    0   
5211380300 2711810111810100061640      06172000TBETBEZ22500Z2250022            V1    V1    0   
52116046BV 2811810111810100062020      06210000TBETBEZ22500Z2250022            V1    V1    0   
5211603800 2911810111810100062330      06241000TBETBEZ22500Z2250022            V1    V1    0   
5211602000 3011810111810100062730      06281000TBETBEZ22500Z2250022            V1    V1    0   
52116012PA 3111810111810100      062950      00TBE   Z22500      2             V1    V1    0   
52116012PB 3211810111810100      063020      00TBE   Z22500      2             V1    V1    0   
52116012BV 3311810111810100063120      06320000TBETBEZ22500Z2250022            V1 V1 V1B   0   
52116012CV 3411810111810100      063310      00TBE   Z22500      2             V1B   V1B   0   
52116210CV 3511810111810100      063530      00TBE   Z22500      2             V1B   V2    0   
52116210BV 36118101      00063640            00TBE   Z22500      2             V2 VA       0   
5024001604 15R4S1181010087054700R118101E14R 000000000000000000000000000000000000000000000000000000000000000000000000000000000000000000000000000000000000000000000000000000000000000000000000000000000000000000000000000000000000000000000000000000000011000000000000000000000000000000000000000000000000000000000000000000000000000000000000000000000000000000000000000000000000000000000000000000000000000000000000000000000000000000000000000000000000000011300100116210BV1287TBE03          745203   118118   
75    26LMX7  111300100 26116210BV1834271                     
5211300100  1      11810100            05470000   TBE      Z22500 2               VK 1EO   0   
52113100PK  211810111810100      055040      00TBE   Z22500      2             1EO   1EO   0   
52654798BV  311810111810100055140      05522000TBETBEZ22500Z2250022            1EO   1EO   0   
52113209BV  411810111810100055430      05553000TBETBEZ22500Z2250022            1EO   1EO   0   
52113209SM  511810111810100      055630      00TBE   Z22500      2             1EO   1B4   0   
5211321783  611810111810100      055840      00TBE   Z22500      2             1B4   1B4   0   
52113217BV  711810111810100055920      06002000TBETBEZ22500Z2250022            1B41B41L4   0   
52113217BR  811810111810100      060220      00TBE   Z22500      2             1L4   1L4   0   
5211369600  911810111810100      060250      00TBE   Z22500      2             1L4   1L4   0   
5211370400 1011810111810100      060420      00TBE   Z22500      2             1L4   1L4   0   
5211371200 1111810111810100060610      06081000TBETBEZ22500Z2250022            1L4   1L4   0   
52113746AG 1211810111810100      060840      00TBE   Z22500      2             1L4   1L4   0   
52113746BV 1311810111810100      060940      00TBE   Z22500      2             1L41L4V1    0   
52113746BF 1411810111810100      061030      00TBE   Z22500      2             V1    V1    0   
5211377900 1511810111810100      061120      00TBE   Z22500      2             V1    V1    0   
52113795BV 1611810111810100061300      06135000TBETBEZ22500Z2250022            V1    V1    0   
5211380300 1711810111810100061640      06172000TBETBEZ22500Z2250022            V1    V1    0   
52116046BV 1811810111810100062020      06210000TBETBEZ22500Z2250022            V1    V1    0   
5211603800 1911810111810100062330      06241000TBETBEZ22500Z2250022            V1    V1    0   
5211602000 2011810111810100062730      06281000TBETBEZ22500Z2250022            V1    V1    0   
52116012PA 2111810111810100      062950      00TBE   Z22500      2             V1    V1    0   
52116012PB 2211810111810100      063020      00TBE   Z22500      2             V1    V1    0   
52116012BV 2311810111810100063120      06320000TBETBEZ22500Z2250022            V1 V1 V1B   0   
52116012CV 2411810111810100      063310      00TBE   Z22500      2             V1B   V1B   0   
52116210CV 2511810111810100      063530      00TBE   Z22500      2             V1B   V2    0   
52116210BV 26118101      00063640            00TBE   Z22500      2             V2 VA       0   
5024001605  3SER1181030087060420R118103E14R 1000001100100110010011000001100000110000000000000000000110000000000000000000000000000000001100000000000011000001100000110000011100001000010110001011000001100000110001011000001110000000000011000001100000000000011100001100000110000011000001100001110000011000001100000000000011000000000000000000000000000000000100000011000001100000110000000000001100000000000000000000000000000000000000000000000000000000386011BV116210BV1287TBE03          745215   118122   
75    26LMY4  1386011BV 34116210BV1834288                     
52386011BV  1      11810300            06042000   TBE      Z22500 2               VB V1    0   
52386011PI  211810311810300      060510      00TBE   Z22500      2             V1    V1    0   
52731430BV  311810311810300060610      06070000TBETBEZ22500Z2250022            V1    V1    0   
52731430PI  411810311810300      060930      00TBE   Z22500      2             V1    V1    0   
52731448BV  511810311810300061020      06110000TBETBEZ22500Z2250022            V1 V1 V31   0   
5228189900  611810311810300061350      06145000TBETBEZ22500Z2250022            V31   V31   0   
7231    1000001100100110010011000001100000110000000000000000000110000000000000000000000000000000001100000000000011000001100000110000011000001000000110000011000001100000110000011000001100000000000011000001100000000000011000001100000110000011000001100000110000011000001100000000000011000000000000000000000000000000000100000011000001100000110000000000001100000000000000000000000000000000000000000000000000000000                                                                                                                                                                                                                                                                                                                                                                                                                1500000004520250312200040
52281873PK  711810311810300      061700      00TBE   Z22500      2             V31   1EO   0   
52281873BV  811810311810300061750      06185000TBETBEZ22500Z2250022            1EOV531EO   0   
7251    0000000000000000000000000000000000000000000000000000000110000000000000000000000000000000001100000000000011000001100000110000011000001000000110000011000001100000110000011000001100000000000011000001100000000000011000001100000110000011000001100000110000011000001100000000000011000000000000000000000000000000000100000011000001100000110000000000001100000000000000000000000000000000000000000000000000000000                                                                                                                                                                                                                                                                                                                                                                                                                1500000004520250312200040
7253    1000001100100110010011000001100000110000000000000000000000000000000000000000000000000000000000000000000000000000000000000000000000000000000000000000000000000000000000000000000000000000000000000000000000000000000000000000000000000000000000000000000000000000000000000000000000000000000000000000000000000000000000000000000000000000000000000000000000000000000000000000000000000000000000000000000000000000                                                                                                                                                                                                                                                                                                                                                                                                                1500000004520250207191851
5211310013  911810311810300      062000      00TBE   Z22500      2             1EO   1EO   0   
52113100PK 1011810311810300      062020      00TBE   Z22500      2             1EO   1EO   0   
52654798BV 1111810311810300062110      06215000TBETBEZ22500Z2250022            1EO   1EO   0   
52113209BV 1211810311810300062410      06251000TBETBEZ22500Z2250022            1EO   1EO   0   
52113209SM 1311810311810300      062620      00TBE   Z22500      2             1EO   1B4   0   
5211321783 1411810311810300      062830      00TBE   Z22500      2             1B4   1B4   0   
52113217BV 1511810311810300062920      06302000TBETBEZ22500Z2250022            1B41B41L4   0   
52113217BR 1611810311810300      063300      00TBE   Z22500      2             1L4   1L4   0   
5211369600 1711810311810300      063340      00TBE   Z22500      2             1L4   1L4   0   
5211370400 1811810311810300      063440      00TBE   Z22500      2             1L4   1L4   0   
5211371200 1911810311810300063610      06381000TBETBEZ22500Z2250022            1L4   1L4   0   
52113746AG 2011810311810300      063840      00TBE   Z22500      2             1L4   1L4   0   
52113746BV 2111810311810300      063940      00TBE   Z22500      2             1L41L4V1    0   
52113746BF 2211810311810300      064020      00TBE   Z22500      2             V1    V1    0   
5211377900 2311810311810300      064110      00TBE   Z22500      2             V1    V1    0   
52113795BV 2411810311810300064300      06435000TBETBEZ22500Z2250022            V1    V1    0   
5211380300 2511810311810300064640      06472000TBETBEZ22500Z2250022            V1    V1    0   
52116046BV 2611810311810300065020      06510000TBETBEZ22500Z2250022            V1    V1    0   
5211603800 2711810311810300065330      06541000TBETBEZ22500Z2250022            V1    V1    0   
5211602000 2811810311810300065730      06581000TBETBEZ22500Z2250022            V1    V1    0   
52116012PA 2911810311810300      065950      00TBE   Z22500      2             V1    V1    0   
52116012PB 3011810311810300      070030      00TBE   Z22500      2             V1    V1    0   
52116012BV 3111810311810300070120      07020000TBETBEZ22500Z2250022            V1 V1 V1B   0   
72V1    1000001100100110010011000001100000110000000000000000000110000000000000000000000000000000001100000000000011000001100000110000011000001000000110000011000001100000110000011000001100000000000011000001100000000000011000001100000110000011000001100000110000011000001100000000000011000000000000000000000000000000000100000011000001100000110000000000001100000000000000000000000000000000000000000000000000000000                                                                                                                                                                                                                                                                                                                                                                                                                1500000004520250312200040
74ATransilien                    100 110000011001001100100110000011000001100000000000000000001100000000000000000000000000000000011000000000000110000011000001100000110000010000001100000110000011000001100000110000011000000000000110000011000000000000110000011000001100000110000011000001100000110000011000000000000110000000000000000000000000000000001000000110000011000001100000000000011000000000000000000000000000000000000000000000000000000001500000004520250314192847
52116012CV 3211810311810300      070310      00TBE   Z22500      2             V1B   V1B   0   
52116210CV 3311810311810300      070530      00TBE   Z22500      2             V1B   V2    0   
52116210BV 34118103      00070640            00TBE   Z22500      2             V2 VA       0   
5024001605  4SER1181030087060420R118103E14R 0111110011011001101100111110011111001111100111110011111001111100111110011111001011100111110011111001111100111110011111001111100011110011101001110100111110011111001110100111110001111001111100111110011111001111100011110011111001111100111110011110001111100111110000000000000000000000000000000000000000000000000000000000000000000000000000000000000000000000000000000000000000000000000000000000000000000000386011BV116210BV1287TBE03          745215   118124   
75    26LMY6  1386011BV 34116210BV1834288                     
52386011BV  1      11810300            06042000   TBE      Z22500 2               VB V1    0   
52386011PI  211810311810300      060510      00TBE   Z22500      2             V1    V1    0   
52731430BV  311810311810300060610      06070000TBETBEZ22500Z2250022            V1    V1    0   
52731430PI  411810311810300      060930      00TBE   Z22500      2             V1    V1    0   
52731448BV  511810311810300061020      06110000TBETBEZ22500Z2250022            V1 V1 V31   0   
5228189900  611810311810300061350      06145000TBETBEZ22500Z2250022            V31   V31   0   
7231    0111110011011001101100111110011111001111100111110011111001111100111110011111001011100111110011111001111100111110011111001111100011110011101001110100111110011111001110100111110001111001111100111110011111001111100011110011111001111100111110011110001111100111110000000000000000000000000000000000000000000000000000000000000000000000000000000000000000000000000000000000000000000000000000000000000000000000                                                                                                                                                                                                                                                                                                                                                                                                                1500000004520250219200646
52281873PK  711810311810300      061700      00TBE   Z22500      2             V31   1EO   0   
52281873BV  811810311810300061750      06185000TBETBEZ22500Z2250022            1EOV531EO   0   
7251    0000000000000000000000000000000000001111100111110011111001111100111110011111001011100111110011111001111100111110011111001111100011110011101001110100111110011111001110100111110001111001111100111110011111001111100011110011111001111100111110011110001111100111110000000000000000000000000000000000000000000000000000000000000000000000000000000000000000000000000000000000000000000000000000000000000000000000                                                                                                                                                                                                                                                                                                                                                                                                                1500000004520250219200646
7253    0111110011011001101100111110011111000000000000000000000000000000000000000000000000000000000000000000000000000000000000000000000000000000000000000000000000000000000000000000000000000000000000000000000000000000000000000000000000000000000000000000000000000000000000000000000000000000000000000000000000000000000000000000000000000000000000000000000000000000000000000000000000000000000000000000000000000000                                                                                                                                                                                                                                                                                                                                                                                                                1500000004520250123191627
5211310013  911810311810300      062000      00TBE   Z22500      2             1EO   1EO   0   
52113100PK 1011810311810300      062040      00TBE   Z22500      2             1EO   1EO   0   
52654798BV 1111810311810300062140      06222000TBETBEZ22500Z2250022            1EO   1EO   0   
52113209BV 1211810311810300062430      06253000TBETBEZ22500Z2250022            1EO   1EO   0   
52113209SM 1311810311810300      062630      00TBE   Z22500      2             1EO   1B4   0   
5211321783 1411810311810300      062840      00TBE   Z22500      2             1B4   1B4   0   
52113217BV 1511810311810300062920      06302000TBETBEZ22500Z2250022            1B41B41L4   0   
52113217BR 1611810311810300      063300      00TBE   Z22500      2             1L4   1L4   0   
5211369600 1711810311810300      063340      00TBE   Z22500      2             1L4   1L4   0   
5211370400 1811810311810300      063440      00TBE   Z22500      2             1L4   1L4   0   
5211371200 1911810311810300063600      06380000TBETBEZ22500Z2250022            1L4   1L4   0   
52113746AG 2011810311810300      063830      00TBE   Z22500      2             1L4   1L4   0   
52113746BV 2111810311810300      063930      00TBE   Z22500      2             1L41L4V1    0   
52113746BF 2211810311810300      064020      00TBE   Z22500      2             V1    V1    0   
5211377900 2311810311810300      064110      00TBE   Z22500      2             V1    V1    0   
52113795BV 2411810311810300064250      06434000TBETBEZ22500Z2250022            V1    V1    0   
5211380300 2511810311810300064620      06470000TBETBEZ22500Z2250022            V1    V1    0   
52116046BV 2611810311810300065000      06504000TBETBEZ22500Z2250022            V1    V1    0   
5211603800 2711810311810300065310      06535000TBETBEZ22500Z2250022            V1    V1    0   
5211602000 2811810311810300065710      06575000TBETBEZ22500Z2250022            V1    V1    0   
52116012PA 2911810311810300      065930      00TBE   Z22500      2             V1    V1    0   
52116012PB 3011810311810300      070000      00TBE   Z22500      2             V1    V1    0   
52116012BV 3111810311810300070100      07014000TBETBEZ22500Z2250022            V1 V1 V1B   0   
72V1    0111110011011001101100111110011111001111100111110011111001111100111110011111001011100111110011111001111100111110011111001111100011110011101001110100111110011111001110100111110001111001111100111110011111001111100011110011111001111100111110011110001111100111110000000000000000000000000000000000000000000000000000000000000000000000000000000000000000000000000000000000000000000000000000000000000000000000                                                                                                                                                                                                                                                                                                                                                                                                                1500000004520250219200646
74ATransilien                    100 101111100110110011011001111100111110011111001111100111110011111001111100111110010111001111100111110011111001111100111110011111000111100111010011101001111100111110011101001111100011110011111001111100111110011111000111100111110011111001111100111100011111001111100000000000000000000000000000000000000000000000000000000000000000000000000000000000000000000000000000000000000000000000000000000000000000000001500000004520250317191929
52116012CV 3211810311810300      070250      00TBE   Z22500      2             V1B   V1B   0   
52116210CV 3311810311810300      070510      00TBE   Z22500      2             V1B   V2    0   
52116210BV 34118103      00070620            00TBE   Z22500      2             V2 VA       0   
5024001605  5R4S1181030087060420R118103E14R 0000000000000000000000000000000000000000000000000000000000000011000001000000110000000000000000000000000000000000000000000000000000000000000000000000000000000000000000000000000000000000000000000000000000000000000000000000000000000000000000000000000000000000000000000000000000000000000000000000000000000000000000000000000000000000000000000000000000000000000000000000000000000000000000000000000000000000386011BV116210BV1287TBE03          745215   118122   
75    26LMY4  1386011BV 36116210BV1834288                     
52386011BV  1      11810300            06042000   TBE      Z22500 2               VB V1    0   
52386011PI  211810311810300      060510      00TBE   Z22500      2             V1    V1    0   
52731430BV  311810311810300060610      06070000TBETBEZ22500Z2250022            V1    V1    0   
52731430PI  411810311810300      060930      00TBE   Z22500      2             V1    V1    0   
52731448BV  511810311810300061020      06110000TBETBEZ22500Z2250022            V1 V1 V31   0   
5228189900  611810311810300061350      06145000TBETBEZ22500Z2250022            V31   V31   0   
7231    0000000000000000000000000000000000000000000000000000000000000011000001000000110000000000000000000000000000000000000000000000000000000000000000000000000000000000000000000000000000000000000000000000000000000000000000000000000000000000000000000000000000000000000000000000000000000000000000000000000000000000000000000000000000000000000000000000000000000000000000000000000000000000000000000000000000000000                                                                                                                                                                                                                                                                                                                                                                                                                1500000004520250214192401
52281873PK  711810311810300      061840      00TBE   Z22500      2             V31   1EO   0   
52281873BV  811810311810300062110      06221000TBETBEZ22500Z2250022            1EOV53TIR   0   
7251    0000000000000000000000000000000000000000000000000000000000000011000001000000110000000000000000000000000000000000000000000000000000000000000000000000000000000000000000000000000000000000000000000000000000000000000000000000000000000000000000000000000000000000000000000000000000000000000000000000000000000000000000000000000000000000000000000000000000000000000000000000000000000000000000000000000000000000                                                                                                                                                                                                                                                                                                                                                                                                                1500000004520250214192401
5211310013  911810311810300      062330      00TBE   Z22500      2             TIRTIRVM    0   
52113100P2 1011810311810300      062420      00TBE   Z22500      2             VM VM V1B   0   
5211310026 1111810311810300      062500      00TBE   Z22500      2             V1B   V1B   0   
5211320933 1211810311810300      062540      00TBE   Z22500      2             V1B   V1B   0   
521132091B 1311810311810300      062550      00TBE   Z22500      2             V1B   V1B   0   
52113209BV 1411810311810300      062620      00TBE   Z22500      2             V1B   V1B   0   
52113209SM 1511810311810300      062640      00TBE   Z22500      2             V1B1B11L1   0   
5211321783 1611810311810300      062820      00TBE   Z22500      2             1L11L11B4   0   
52113217BV 1711810311810300062900      06304000TBETBEZ22500Z2250022            1B41B41L4   0   
52113217BR 1811810311810300      063240      00TBE   Z22500      2             1L4   1L4   0   
5211369600 1911810311810300      063300      00TBE   Z22500      2             1L4   1L4   0   
5211370400 2011810311810300      063420      00TBE   Z22500      2             1L4   1L4   0   
5211371200 2111810311810300063610      06381000TBETBEZ22500Z2250022            1L4   1L4   0   
52113746AG 2211810311810300      063840      00TBE   Z22500      2             1L4   1L4   0   
52113746BV 2311810311810300      063940      00TBE   Z22500      2             1L41L4V1    0   
52113746BF 2411810311810300      064020      00TBE   Z22500      2             V1    V1    0   
5211377900 2511810311810300      064110      00TBE   Z22500      2             V1    V1    0   
52113795BV 2611810311810300064300      06435000TBETBEZ22500Z2250022            V1    V1    0   
5211380300 2711810311810300064640      06472000TBETBEZ22500Z2250022            V1    V1    0   
52116046BV 2811810311810300065020      06510000TBETBEZ22500Z2250022            V1    V1    0   
5211603800 2911810311810300065330      06541000TBETBEZ22500Z2250022            V1    V1    0   
5211602000 3011810311810300065730      06581000TBETBEZ22500Z2250022            V1    V1    0   
52116012PA 3111810311810300      065950      00TBE   Z22500      2             V1    V1    0   
52116012PB 3211810311810300      070030      00TBE   Z22500      2             V1    V1    0   
52116012BV 3311810311810300070120      07020000TBETBEZ22500Z2250022            V1 V1 V1B   0   
72V1    0000000000000000000000000000000000000000000000000000000000000011000001000000110000000000000000000000000000000000000000000000000000000000000000000000000000000000000000000000000000000000000000000000000000000000000000000000000000000000000000000000000000000000000000000000000000000000000000000000000000000000000000000000000000000000000000000000000000000000000000000000000000000000000000000000000000000000                                                                                                                                                                                                                                                                                                                                                                                                                1500000004520250214192401
74ATransilien                    100 100000000000000000000000000000000000000000000000000000000000000110000010000001100000000000000000000000000000000000000000000000000000000000000000000000000000000000000000000000000000000000000000000000000000000000000000000000000000000000000000000000000000000000000000000000000000000000000000000000000000000000000000000000000000000000000000000000000000000000000000000000000000000000000000000000000000000001500000004520250228193206
52116012CV 3411810311810300      070310      00TBE   Z22500      2             V1B   V1B   0   
52116210CV 3511810311810300      070530      00TBE   Z22500      2             V1B   V2    0   
52116210BV 36118103      00070640            00TBE   Z22500      2             V2 VA       0   
5024001605  9AGT1181030087060420R118103E14R 0000000000000000000000000000000000000000000000000000000000000000000000000000000000011000000000000000000000000000000000000000000000000000000000000000000000000000000000000000000000000000000000000000000000000000000000000000000000000000000000000000000000000000000000000000000000000000000000000000000000000000000000000000000000000000000000000000000000000000000000000000000000000000000000000000000000000000386011BV116210BV1287TBE03          745215   118122   
75    26LMY4  1386011BV 36116210BV1834288                     
52386011BV  1      11810300            06042000   TBE      Z22500 2               VB V1    0   
52386011PI  211810311810300      060510      00TBE   Z22500      2             V1    V1    0   
52731430BV  311810311810300060610      06070000TBETBEZ22500Z2250022            V1    V1    0   
52731430PI  411810311810300      060930      00TBE   Z22500      2             V1    V1    0   
52731448BV  511810311810300061020      06110000TBETBEZ22500Z2250022            V1 V1 V31   0   
5228189900  611810311810300061350      06145000TBETBEZ22500Z2250022            V31   V31   0   
7231    0000000000000000000000000000000000000000000000000000000000000000000000000000000000011000000000000000000000000000000000000000000000000000000000000000000000000000000000000000000000000000000000000000000000000000000000000000000000000000000000000000000000000000000000000000000000000000000000000000000000000000000000000000000000000000000000000000000000000000000000000000000000000000000000000000000000000000                                                                                                                                                                                                                                                                                                                                                                                                                1500000004520250307173330
52281873PK  711810311810300      061700      00TBE   Z22500      2             V31   1EO   0   
52281873BV  811810311810300061750      06185000TBETBEZ22500Z2250022            1EOV53TIR   0   
7251    0000000000000000000000000000000000000000000000000000000000000000000000000000000000011000000000000000000000000000000000000000000000000000000000000000000000000000000000000000000000000000000000000000000000000000000000000000000000000000000000000000000000000000000000000000000000000000000000000000000000000000000000000000000000000000000000000000000000000000000000000000000000000000000000000000000000000000                                                                                                                                                                                                                                                                                                                                                                                                                1500000004520250307173330
5211310013  911810311810300      062040      00TBE   Z22500      2             TIRTIRVM    0   
52113100P2 1011810311810300      062210      00TBE   Z22500      2             VM VM V1B   0   
5211310026 1111810311810300      062320      00TBE   Z22500      2             V1B   V1B   0   
5211320933 1211810311810300      062400      00TBE   Z22500      2             V1B   V1B   0   
521132091B 1311810311810300      062420      00TBE   Z22500      2             V1B   V1B   0   
52113209BV 1411810311810300      062500      00TBE   Z22500      2             V1B   V1B   0   
52113209SM 1511810311810300      062540      00TBE   Z22500      2             V1B1B11L1   0   
5211321783 1611810311810300      062830      00TBE   Z22500      2             1L11L11B4   0   
52113217BV 1711810311810300062920      06302000TBETBEZ22500Z2250022            1B41B41L4   0   
52113217BR 1811810311810300      063300      00TBE   Z22500      2             1L4   1L4   0   
5211369600 1911810311810300      063340      00TBE   Z22500      2             1L4   1L4   0   
5211370400 2011810311810300      063440      00TBE   Z22500      2             1L4   1L4   0   
5211371200 2111810311810300063610      06381000TBETBEZ22500Z2250022            1L4   1L4   0   
52113746AG 2211810311810300      063840      00TBE   Z22500      2             1L4   1L4   0   
52113746BV 2311810311810300      063940      00TBE   Z22500      2             1L41L4V1    0   
52113746BF 2411810311810300      064020      00TBE   Z22500      2             V1    V1    0   
5211377900 2511810311810300      064110      00TBE   Z22500      2             V1    V1    0   
52113795BV 2611810311810300064300      06435000TBETBEZ22500Z2250022            V1    V1    0   
5211380300 2711810311810300064640      06472000TBETBEZ22500Z2250022            V1    V1    0   
52116046BV 2811810311810300065020      06510000TBETBEZ22500Z2250022            V1    V1    0   
5211603800 2911810311810300065330      06541000TBETBEZ22500Z2250022            V1    V1    0   
5211602000 3011810311810300065730      06581000TBETBEZ22500Z2250022            V1    V1    0   
52116012PA 3111810311810300      065950      00TBE   Z22500      2             V1    V1    0   
52116012PB 3211810311810300      070030      00TBE   Z22500      2             V1    V1    0   
52116012BV 3311810311810300070120      07020000TBETBEZ22500Z2250022            V1 V1 V1B   0   
72V1    0000000000000000000000000000000000000000000000000000000000000000000000000000000000011000000000000000000000000000000000000000000000000000000000000000000000000000000000000000000000000000000000000000000000000000000000000000000000000000000000000000000000000000000000000000000000000000000000000000000000000000000000000000000000000000000000000000000000000000000000000000000000000000000000000000000000000000                                                                                                                                                                                                                                                                                                                                                                                                                1500000004520250307173330
74ATransilien                    100 100000000000000000000000000000000000000000000000000000000000000000000000000000000000110000000000000000000000000000000000000000000000000000000000000000000000000000000000000000000000000000000000000000000000000000000000000000000000000000000000000000000000000000000000000000000000000000000000000000000000000000000000000000000000000000000000000000000000000000000000000000000000000000000000000000000000000001500000004520250307192357
52116012CV 3411810311810300      070310      00TBE   Z22500      2             V1B   V1B   0   
52116210CV 3511810311810300      070530      00TBE   Z22500      2             V1B   V2    0   
52116210BV 36118103      00070640            00TBE   Z22500      2             V2 VA       0   
5024001605 10AGT1181030087062100R118103E14R 000000000000000000000000000000000000000000000000010000000000000000000000000000000000000000000000000000000000000000000000000000000000000000000000000000000000000000000000000000000000000000000000000000000000000000000000000000000000000000000000000000000000000000000000000000000000000000000000000000000000000000000000000000000000000000000000000000000000000000000000000000000000000000000000000000000000000011300100116210BV1287TBE03          745215   118122   
75    26LMY4  111300100 29116210BV1834288                     
5211300100  1      11810300            06210000   TBE      Z22500 2               VM VL    0   
7219    0000000000000000000000000000000000000000000000000100000000000000000000000000000000000000000000000000000000000000000000000000000000000000000000000000000000000000000000000000000000000000000000000000000000000000000000000000000000000000000000000000000000000000000000000000000000000000000000000000000000000000000000000000000000000000000000000000000000000000000000000000000000000000000000000000000000000000                                                                                                                                                                                                                                                                                                                                                                                                                1500000004520250131173417
73D1181000000000000000000000000000000000000000000000000000100000000000000000000000000000000000000000000000000000000000000000000000000000000000000000000000000000000000000000000000000000000000000000000000000000000000000000000000000000000000000000000000000000000000000000000000000000000000000000000000000000000000000000000000000000000000000000000000000000000000000000000000000000000000000000000000000000000000000  24401500000004520250131173417
74DRER NG                        226 200000000000000000000000000000000000000000000000001000000000000000000000000000000000000000000000000000000000000000000000000000000000000000000000000000000000000000000000000000000000000000000000000000000000000000000000000000000000000000000000000000000000000000000000000000000000000000000000000000000000000000000000000000000000000000000000000000000000000000000000000000000000000000000000000000000000000001500000004520250131173417
5211310013  211810311810300      062340      00TBE   Z22500      2             VL VL VM    0   
52113100P2  311810311810300      062420      00TBE   Z22500      2             VM VM V1B   0   
5211310026  411810311810300      062500      00TBE   Z22500      2             V1B   V1B   0   
5211320933  511810311810300      062530      00TBE   Z22500      2             V1B   V1B   0   
521132091B  611810311810300      062550      00TBE   Z22500      2             V1B   V1B   0   
52113209BV  711810311810300062640      06272000TBETBEZ22500Z2250022            V1B   V1B   0   
52113209SM  811810311810300      062810      00TBE   Z22500      2             V1B1B11L1   0   
5211321783  911810311810300      063000      00TBE   Z22500      2             1L11L11B4   0   
52113217BV 1011810311810300063040      06314000TBETBEZ22500Z2250022            1B41B41L4   0   
52113217BR 1111810311810300      063320      00TBE   Z22500      2             1L4   1L4   0   
5211369600 1211810311810300      063340      00TBE   Z22500      2             1L4   1L4   0   
5211370400 1311810311810300      063440      00TBE   Z22500      2             1L4   1L4   0   
5211371200 1411810311810300063610      06381000TBETBEZ22500Z2250022            1L4   1L4   0   
52113746AG 1511810311810300      063840      00TBE   Z22500      2             1L4   1L4   0   
52113746BV 1611810311810300      063940      00TBE   Z22500      2             1L41L4V1    0   
52113746BF 1711810311810300      064020      00TBE   Z22500      2             V1    V1    0   
5211377900 1811810311810300      064110      00TBE   Z22500      2             V1    V1    0   
52113795BV 1911810311810300064300      06435000TBETBEZ22500Z2250022            V1    V1    0   
5211380300 2011810311810300064640      06472000TBETBEZ22500Z2250022            V1    V1    0   
52116046BV 2111810311810300065020      06510000TBETBEZ22500Z2250022            V1    V1    0   
5211603800 2211810311810300065330      06541000TBETBEZ22500Z2250022            V1    V1    0   
5211602000 2311810311810300065730      06581000TBETBEZ22500Z2250022            V1    V1    0   
52116012PA 2411810311810300      065950      00TBE   Z22500      2             V1    V1    0   
52116012PB 2511810311810300      070030      00TBE   Z22500      2             V1    V1    0   
52116012BV 2611810311810300070120      07020000TBETBEZ22500Z2250022            V1 V1 V1B   0   
72V1    0000000000000000000000000000000000000000000000000100000000000000000000000000000000000000000000000000000000000000000000000000000000000000000000000000000000000000000000000000000000000000000000000000000000000000000000000000000000000000000000000000000000000000000000000000000000000000000000000000000000000000000000000000000000000000000000000000000000000000000000000000000000000000000000000000000000000000                                                                                                                                                                                                                                                                                                                                                                                                                1500000004520250131173417
74ATransilien                    100 100000000000000000000000000000000000000000000000001000000000000000000000000000000000000000000000000000000000000000000000000000000000000000000000000000000000000000000000000000000000000000000000000000000000000000000000000000000000000000000000000000000000000000000000000000000000000000000000000000000000000000000000000000000000000000000000000000000000000000000000000000000000000000000000000000000000000001500000004520250131192431
52116012CV 2711810311810300      070310      00TBE   Z22500      2             V1B   V1B   0   
52116210CV 2811810311810300      070530      00TBE   Z22500      2             V1B   V2    0   
52116210BV 29118103      00070640            00TBE   Z22500      2             V2 VA       0   
5024001605 11AGT1181030087062100R118103E14R 000000000000000000000000000000000000000000000000100000000000000000000000000000000000000000000000000000000000000000000000000000000000000000000000000000000000000000000000000000000000000000000000000000000000000000000000000000000000000000000000000000000000000000000000000000000000000000000000000000000000000000000000000000000000000000000000000000000000000000000000000000000000000000000000000000000000000011300100116210BV1287TBE03          745215   118122   
75    26LMY4  111300100 29116210BV1834288                     
5211300100  1      11810300            06210000   TBE      Z22500 2               VM VL    0   
7219    0000000000000000000000000000000000000000000000001000000000000000000000000000000000000000000000000000000000000000000000000000000000000000000000000000000000000000000000000000000000000000000000000000000000000000000000000000000000000000000000000000000000000000000000000000000000000000000000000000000000000000000000000000000000000000000000000000000000000000000000000000000000000000000000000000000000000000                                                                                                                                                                                                                                                                                                                                                                                                                1500000004520250131173417
73D1181000000000000000000000000000000000000000000000000001000000000000000000000000000000000000000000000000000000000000000000000000000000000000000000000000000000000000000000000000000000000000000000000000000000000000000000000000000000000000000000000000000000000000000000000000000000000000000000000000000000000000000000000000000000000000000000000000000000000000000000000000000000000000000000000000000000000000000  26601500000004520250131173417
74DRER NG                        226 200000000000000000000000000000000000000000000000010000000000000000000000000000000000000000000000000000000000000000000000000000000000000000000000000000000000000000000000000000000000000000000000000000000000000000000000000000000000000000000000000000000000000000000000000000000000000000000000000000000000000000000000000000000000000000000000000000000000000000000000000000000000000000000000000000000000000001500000004520250131173417
5211310013  211810311810300      062330      00TBE   Z22500      2             VL VL VM    0   
52113100P2  311810311810300      062420      00TBE   Z22500      2             VM VM V1B   0   
5211310026  411810311810300      062500      00TBE   Z22500      2             V1B   V1B   0   
5211320933  511810311810300      062530      00TBE   Z22500      2             V1BV1BV1    0   
521132091B  611810311810300      062550      00TBE   Z22500      2             V1    V1    0   
52113209BV  711810311810300062630      06271000TBETBEZ22500Z2250022            V1    V1    0   
52113209SM  811810311810300      062820      00TBE   Z22500      2             V1    1L4   0   
5211321783  911810311810300      062950      00TBE   Z22500      2             1L4   1L4   0   
52113217BV 1011810311810300063030      06313000TBETBEZ22500Z2250022            1L4   1L4   0   
52113217BR 1111810311810300      063310      00TBE   Z22500      2             1L4   1L4   0   
5211369600 1211810311810300      063340      00TBE   Z22500      2             1L4   1L4   0   
5211370400 1311810311810300      063440      00TBE   Z22500      2             1L4   1L4   0   
5211371200 1411810311810300063610      06381000TBETBEZ22500Z2250022            1L4   1L4   0   
52113746AG 1511810311810300      063840      00TBE   Z22500      2             1L4   1L4   0   
52113746BV 1611810311810300      063940      00TBE   Z22500      2             1L41L4V1    0   
52113746BF 1711810311810300      064020      00TBE   Z22500      2             V1    V1    0   
5211377900 1811810311810300      064110      00TBE   Z22500      2             V1    V1    0   
52113795BV 1911810311810300064300      06435000TBETBEZ22500Z2250022            V1    V1    0   
5211380300 2011810311810300064640      06472000TBETBEZ22500Z2250022            V1    V1    0   
52116046BV 2111810311810300065020      06510000TBETBEZ22500Z2250022            V1    V1    0   
5211603800 2211810311810300065330      06541000TBETBEZ22500Z2250022            V1    V1    0   
5211602000 2311810311810300065730      06581000TBETBEZ22500Z2250022            V1    V1    0   
52116012PA 2411810311810300      065950      00TBE   Z22500      2             V1    V1    0   
52116012PB 2511810311810300      070030      00TBE   Z22500      2             V1    V1    0   
52116012BV 2611810311810300070120      07020000TBETBEZ22500Z2250022            V1 V1 V1B   0   
72V1    0000000000000000000000000000000000000000000000001000000000000000000000000000000000000000000000000000000000000000000000000000000000000000000000000000000000000000000000000000000000000000000000000000000000000000000000000000000000000000000000000000000000000000000000000000000000000000000000000000000000000000000000000000000000000000000000000000000000000000000000000000000000000000000000000000000000000000                                                                                                                                                                                                                                                                                                                                                                                                                1500000004520250131173417
74ATransilien                    100 100000000000000000000000000000000000000000000000010000000000000000000000000000000000000000000000000000000000000000000000000000000000000000000000000000000000000000000000000000000000000000000000000000000000000000000000000000000000000000000000000000000000000000000000000000000000000000000000000000000000000000000000000000000000000000000000000000000000000000000000000000000000000000000000000000000000000001500000004520250131192431
52116012CV 2711810311810300      070310      00TBE   Z22500      2             V1B   V1B   0   
52116210CV 2811810311810300      070530      00TBE   Z22500      2             V1B   V2    0   
52116210BV 29118103      00070640            00TBE   Z22500      2             V2 VA       0   
5024001605 12AGT1181030087060420R118103E14R 0000000000000000000000000000000000000000000000000000000000000000000000000000000000000000000000000110000000000000000000000000000000000000000000000000000000000000000000000000000000000000000000000000000000000000000000000000000000000000000000000000000000000000000000000000000000000000000000000000000000000000000000000000000000000000000000000000000000000000000000000000000000000000000000000000000000000000386011BV116210BV1287TBE03          745215   118122   
75    26LMY4  1386011BV 34116210BV1834288                     
52386011BV  1      11810300            06042000   TBE      Z22500 2               VB V1    0   
52386011PI  211810311810300      060510      00TBE   Z22500      2             V1    V1    0   
52731430BV  311810311810300060610      06070000TBETBEZ22500Z2250022            V1    V1    0   
